:020000040000FA
:100000000C94A2010C94CA010C94CA010C940F1810
:100010000C94B8170C9489170C94CA010C94CA015B
:100020000C94CA010C94CA010C94CA010C943E1899
:100030000C94CA010C94CA010C94CA010C94CA0114
:100040000C9424160C94CA010C94F2150C94CC1543
:100050000C94CA010C94CA010C94CA010C94CA01F4
:100060000C946E160C94CA0153656E736F72206EF9
:10007000C3A36F20696E696369616C697A61646F9B
:100080002E204EC3A36F20C3A920706F7373C3AD1E
:1000900076656C2063616C69627261722E004361E7
:1000A0006C69627261C3A7C3A36F2073616C7661D0
:1000B000206E6120454550524F4D2E000000000833
:1000C000000201000003040700000000000000001F
:1000D00053656E736F7220556C74726173736F6EBB
:1000E00069636F2048432D5352303420696E696331
:1000F00069616C697A61646F206E6120706F7274DF
:100100006120000000000023002600290042757ACB
:100110007A657220696E696369616C697A61646F7E
:10012000206E6120504F5254415F534552564F5FED
:1001300033202870696E6F20313129202D204C6FBB
:100140006769636120696E76657274696461002015
:100150004C4544730020636F6D2000466974612034
:100160004C454420696E696369616C697A616461B8
:10017000206E6120706F72746120004572726F3A58
:100180002053656E736F7220756C74726173736F38
:100190006E69636F206E616F20696E696369616C5F
:1001A000697A61646F21004572726F3A2042757AF4
:1001B0007A6572206E616F20696E696369616C692E
:1001C0007A61646F21004E656E68756D61206361B0
:1001D0006C69627261C3A7C3A36F2076C3A16C6907
:1001E000646120656E636F6E7472616461206E611C
:1001F00020454550524F4D2C207573616E646F2021
:1002000063616C69627261C3A7C3A36F207061648C
:1002100072616F2073656E736F722E0043616C693B
:10022000627261C3A7C3A36F206361727265676165
:10023000646120646120454550524F4D2E00544367
:100240005333343732352064657465637461646F89
:1002500020636F6D207375636573736F206E61200B
:10026000706F72746120004572726F20616F20643C
:1002700065746563746172206F205443533334375F
:100280003235206E6120706F727461200045727289
:100290006F3A2050696E6F204C454420696E76613C
:1002A0006C69646F212055736520504F5254415F33
:1002B0004C45445F31206120504F5254415F4C45C2
:1002C000445F3400564C35334C305820656E636FB4
:1002D0006E747261646F206E6120706F7274612041
:1002E00000564C35334C3058206EC3A36F20656EDA
:1002F000636F6E747261646F206E6120706F7274D0
:1003000061200000000000250028002B00000000F4
:1003100000240027002A0004040404040404040246
:100320000202020202030303030303010204081092
:10033000204080010204081020010204081020005F
:10034000061AE02211241FBECFEFD8E0DEBFCDBFDA
:1003500012E0A0E0B1E0ECE1FAE402C005900D92F9
:10036000AE3CB107D9F725E0AEECB2E001C01D927A
:10037000A133B207E1F711E0C1EAD1E004C021974F
:10038000FE010E94CF23C03AD107C9F70E946C1B1F
:100390000C9401250C94000090E0FC01E55DFC4FFD
:1003A0002491895E9C4FFC018491882399F090E010
:1003B000880F991FFC01E35FFC4FA591B491FC01EC
:1003C000ED5FFC4F859194918FB7F894EC91E22BFF
:1003D000EC938FBF0895AF92BF92CF92DF92EF92CE
:1003E000FF920F931F93CF93DF936C017B018B01DF
:1003F000040F151FEB015E01AE18BF08C017D1072F
:1004000059F06991D601ED91FC910190F081E02DB8
:10041000C6010995892B79F7C501DF91CF911F910D
:100420000F91FF90EF90DF90CF90BF90AF90089525
:10043000FC01538D448D252F30E0842F90E0821BEA
:10044000930B541710F0CF96089501970895FC016F
:10045000918D828D981761F0A28DAE0FBF2FB11DC7
:100460005D968C91928D9F5F9F73928F90E008951F
:100470008FEF9FEF0895FC01918D828D981731F0D9
:10048000828DE80FF11D858D90E008958FEF9FEF2D
:100490000895FC01918D228D892F90E0805C9F4F03
:1004A000821B91098F739927089586E893E00E9433
:1004B000490221E0892B09F420E0822F089580E091
:1004C00090E0892B29F00E94550281110C940000C4
:1004D0000895FC01A48DA80FB92FB11DA35ABF4FD9
:1004E0002C91848D90E001968F739927848FA68933
:1004F000B7892C93A089B1898C91837080648C9387
:10050000938D848D981306C00288F389E02D808135
:100510008F7D80830895EF92FF920F931F93CF9367
:10052000DF93EC0181E0888F9B8D8C8D98131AC02E
:10053000E889F989808185FF15C09FB7F894EE8915
:10054000FF896083E889F989808183708064808372
:100550009FBF81E090E0DF91CF911F910F91FF90BD
:10056000EF900895F62E0B8D10E00F5F1F4F0F7365
:100570001127E02E8C8D8E110CC00FB607FCFACF20
:10058000E889F989808185FFF5CFCE010E94690253
:10059000F1CFEB8DEC0FFD2FF11DE35AFF4FF082F1
:1005A0009FB7F8940B8FEA89FB8980818062CFCF57
:1005B0000F931F93CF93DF938C01D0E0C0E0F8013D
:1005C000EC0FFD1F6491662341F086E893E00E94E2
:1005D0008B02892B11F02196F2CFCE01DF91CF91C2
:1005E0001F910F910895CF93DF93EC01888D88239D
:1005F000B9F0AA89BB89E889F9898C9185FD03C086
:10060000808186FD0DC00FB607FCF7CF8C9185FF6A
:10061000F2CF808185FFEDCFCE010E946902E9CF44
:10062000DF91CF91089590E0FC01E454FF4F2491B5
:10063000FC01E55DFC4F3491FC01E95EFC4FE49167
:10064000EE23C9F0222339F0233001F1A8F4213040
:1006500019F1223029F1F0E0EE0FFF1FED5FFC4FA2
:10066000A591B4918FB7F894EC91611126C03095A3
:100670003E233C938FBF08952730A9F02830C9F05E
:10068000243049F7809180008F7D03C080918000E5
:100690008F7780938000DFCF84B58F7784BDDBCFE9
:1006A00084B58F7DFBCF8091B0008F778093B000B1
:1006B000D2CF8091B0008F7DF9CF3E2BDACF8E5014
:1006C000806480937C0080917A00806480937A00BB
:1006D00080917A0086FDFCCF80917800909179001E
:1006E00008953FB7F8948091650390916603A091B7
:1006F0006703B091680326B5A89B05C02F3F19F08A
:100700000196A11DB11D3FBFBA2FA92F982F882791
:10071000BC01CD01620F711D811D911D42E0660F6C
:10072000771F881F991F4A95D1F708958F929F923E
:10073000AF92BF92CF92DF92EF92FF926B017C015A
:100740000E9471034B015C01C114D104E104F10466
:10075000B9F00E947103681979098A099B09683EFA
:1007600073408105910580F321E0C21AD108E108A8
:10077000F10888EE880E83E0981EA11CB11CE4CF1E
:10078000FF90EF90DF90CF90BF90AF909F908F90B1
:1007900008952FB7F894609161037091620380917E
:1007A0006303909164032FBF08958F929F92AF923D
:1007B000BF92CF92DF92EF92FF92CF93DF934B01E4
:1007C0005C010E94C9036B017C01CFE2D5E00E946D
:1007D000C9036C197D098E099F09681579058A0579
:1007E0009B0578F461E08BE00E941303CE01019732
:1007F000F1F760E08BE00E941303CE010197F1F75F
:10080000E6CF61E08BE0DF91CF91FF90EF90DF903A
:10081000CF90BF90AF909F908F900C941303209136
:100820001603260F3327331F21323105ECF42091B4
:100830003A03FC0190E080E0243069F082E0089502
:10084000A09116032191AC014A505D4FA40FB52F22
:10085000B11D2C930196861798F380911603680FAB
:100860006093160380E0089581E0089508958FEF66
:100870009FEF08958FEF9FEF08958091EF0290E032
:100880009195819591090895CF93DF93CB01EA016A
:10089000642F0E940F04CE01DF91CF910895CF9372
:1008A000DF931F92CDB7DEB7698361E0CE01019679
:1008B0000E940F0481E090E00F90DF91CF910895A6
:1008C000CF93DF93EC01E98138EF3E0F363008F427
:1008D0004BC032EF3E0F363030F0E83008F446C0FF
:1008E000DF91CF91089521E09091CF02953080F46F
:1008F00081E0890F8093CF02A92FB0E0AA0FBB1F20
:10090000AF52BD4FCD93DC93F0E0E552FD4F9083A5
:100910004091680081E090E0BC01022E01C0660FAA
:100920000A94EAF7462B4093680001C0880F3A9575
:10093000EAF7211107C090916B00892B80936B001F
:1009400083B1CECF213049F490916C00892B8093F4
:100950006C0086B18093D002C3CF90916D00892B3B
:1009600080936D0089B1BCCF20E0BECF3E2F22E046
:10097000BBCFCF93DF93EC0119A281E088A3188E3F
:10098000198E1A8E1B8E1C8E1D8E1E8E1F8ECE01F2
:100990000E946004EC85FD8590818889809589237B
:1009A000808383E090E00197F1F7EC85FD858081FD
:1009B0009889892B808383E290E00197F1F7EC8599
:1009C000FD8590818889809589238083DF91CF91EF
:1009D0000895CF93DF93EC01E989FA8980819F899B
:1009E000892349F00E947103688F798F8A8F9B8FCA
:1009F000DF91CF9108950E9471036C8F7D8F8E8F50
:100A00009F8F81E089A318A20E94C90368A779A7D4
:100A10008AA79BA7EDCFFC01838D20E031E0281B46
:100A200031094CE0429FC001439F900D112465E0C5
:100A300070E00E94A0236E5F7F4F072E000C880B92
:100A4000990B0C949603FC01E05CFF4FE081DC0104
:100A5000AF5BBF4F2C91E21730F4E80FF92FF11D77
:100A6000878D90E008958FEF9FEF0895CF93DF93E8
:100A7000DC01A05CBF4FEC91EC01CF5BDF4F288124
:100A8000E21758F421E02E0F2C93E80FF92FF11DF7
:100A9000878D90E0DF91CF9108958FEF9FEFFACF90
:100AA000CF92DF92EF92FF920F931F93CF93DF933A
:100AB0006C01EB017B01E40EF51E10E000E0CE15A9
:100AC000DF0561F06991D601ED91FC910190F08113
:100AD000E02DC6010995080F191FF1CFC801DF915C
:100AE000CF911F910F91FF90EF90DF90CF900895DD
:100AF000CF93DF93DC01AC59BF4FEC91EC01CD59A2
:100B0000DF4F2881E21750F021E030E0FC01338311
:100B1000228390E080E0DF91CF91089521E02E0FB5
:100B20002C93E80FF92FF11DED5BFF4F608381E0FF
:100B300090E0F1CFFC01EF5BFF4F20813197908176
:100B4000422F491B550BCA0108950F931F93DC01D7
:100B500013961C921E92129708EE13E020E030E0EC
:100B600014960D931D932D933C9317978AE091E073
:100B700011969C938E931C966C931C971D964C9388
:100B80001D9782E01E968C931E9784E690E0509607
:100B90009C938E931F9780E2DF968C93DF97FD01E5
:100BA000E05CFF4F108231961082319698E090837E
:100BB000B19680833196108231961082319683E50A
:100BC00096E091838083329682EA96E091838083D7
:100BD000329685E696E09183808332968BE896E0A4
:100BE00091838083329687E796E091838083329663
:100BF00081E896E09183808370E0FB01E95EFC4F21
:100C00008491655D7C4FFB01649157966C93579777
:100C100090E0880F991FFC01ED5FFC4F2591349106
:100C200052963C932E935197FC01E35FFC4F259124
:100C3000349154963C932E935397FC01ED5FFE4FF5
:100C40008591949156969C938E93559750E0FA0116
:100C5000E95EFC4F8491455D5C4FFA0144915E96DC
:100C60004C935E9790E0880F991FFC01ED5FFC4F5D
:100C70002591349159963C932E935897FC01E35F4C
:100C8000FC4F259134915B963C932E935A97FC012F
:100C9000ED5FFE4F859194915D969C938E935C974A
:100CA0001F910F910895FC012FB7F894A189B28983
:100CB0008C919789909598239C93A389B4898C9162
:100CC0009789892B8C932FBF0895FC012FB7F89437
:100CD000A08DB18D8C91968D909598239C93A28D2B
:100CE000B38D8C91968D892B8C932FBF0895FC0129
:100CF000A589B6899C918789982381E009F480E0D1
:100D00000895FC01A48DB58D9C91868D982381E07A
:100D100009F480E00895FC01A28DB38D9C91868D2D
:100D2000809589238C938685968D008CF18DE02D9E
:100D3000823021F48081982B908308958081909552
:100D40009823FACFFC01A389B4899C918789809567
:100D500089238C93868597890188F289E02D8230DA
:100D600021F48081982B9083089580819095982319
:100D7000FACF08950F931F93CF93DF93EC018885EB
:100D80009985892BD9F40E9471030C811D812E81D4
:100D90003F81DC01CB01801B910BA20BB30B809533
:100DA0009095A095B0958827B7FD83959927AA2798
:100DB000BB27DF91CF911F910F9108950E94C90326
:100DC000E4CF0F931F93CF93DF93EC0148835983B4
:100DD0006A837B8381E090E0998788870E94C903BA
:100DE000088119812A813B81DC01CB01800F911F91
:100DF000A21FB31F8C839D83AE83BF83DF91CF91EE
:100E00001F910F91089590E080E008951F93CF9374
:100E1000DF9385ED8093BC008091F2029091F30204
:100E2000A091F402B091F5020796A11DB11D23E037
:100E3000B695A795979587952A95D1F72091BC00EF
:100E400024FD03C010923A0352C04091F202509127
:100E5000F3026091F4027091F502452B462B472B6B
:100E600069F30097A105B10541F02AE22A95F1F74F
:100E700000C00197A109B109E1CF8091F102C1E061
:100E8000C093F002882399F1D091B8001091BA0074
:100E90008091BC008A7B8093BC0060E082E10E946C
:100EA000130360E083E10E94130310923A03C0939E
:100EB0003C0310923B0361E082E10E94130361E076
:100EC00083E10E9413038091B9008E7F8093B90063
:100ED0008091B9008D7F8093B90088E48093B80039
:100EE00085E48093BC001093BA00D093B800DF91E2
:100EF000CF911F910895FF920F931F93CF93DF938C
:100F0000CDB7DEB72A970FB6F894DEBF0FBECDBFC0
:100F10008C01F62EFC014785508970E060E021E0ED
:100F200030E0CE0101960E94E106F801EB59FF4F37
:100F3000108235960190F081E02DC8010995F5E009
:100F4000FA95F1F70000F801EA59FF4F0190F0819E
:100F5000E02DC801099585E08A95F1F70000FF2092
:100F6000B1F0BE016F5F7F4FC8010E94E20781119F
:100F700016C082E090E02A960FB6F894DEBF0FBE4E
:100F8000CDBFDF91CF911F910F91FF900895F80190
:100F9000E459FF4F0190F081E02DC8010995E5E08B
:100FA000EA95F1F70000F801E859FF4F0190F08150
:100FB000E02DC8010995F5E0FA95F1F7000090E001
:100FC00080E0D9CFEF92FF920F931F93CF93DF93DF
:100FD000EC018B01FC01E459FF4F0190F081E02D01
:100FE00009957E0180E7E80EF11CD701ED91FC9197
:100FF000CE010995811111C0C8010E94BA0688234B
:10100000A1F360E0CE010E947B0780E0DF91CF91E9
:101010001F910F91FF90EF90089581E0F7CF8F928D
:101020009F92AF92BF92CF92DF92EF92FF920F9377
:101030001F93CF93DF93CDB7DEB72A970FB6F894FF
:10104000DEBF0FBECDBF8C01E62EDC011F964D9199
:101050005C9170E060E021E030E0CE0101960E94FA
:10106000E10698E0F92E6801BAE6CB0ED11C5801D2
:10107000E6E6AE0EB11C4801F8E68F0E911CD601D3
:10108000ED91FC91C8010995D401E7FED501ED91E0
:10109000FC91C8010995B5E0BA95F1F70000BE01D1
:1010A0006F5F7F4FC8010E94E207811117C082E085
:1010B000E82EF12CC7012A960FB6F894DEBF0FBEBA
:1010C000CDBFDF91CF911F910F91FF90EF90DF90F7
:1010D000CF90BF90AF909F908F900895E5E0EA95F4
:1010E000F1F70000EE0CCE0101960E94BA068823AB
:1010F00029F061E0C8010E947B07D9CFFA94F11072
:10110000BECFD601ED91FC91C8010995F801E859CF
:10111000FF4F0190F081E02DC8010995B5E0BA9527
:10112000F1F70000BE016F5F7F4FC8010E94E20728
:10113000882309F4BCCFF801E259FF4F0190F081F8
:10114000E02DC801099591E0811101C090E0E92EE0
:10115000E5E0EA95F1F70000D601ED91FC91C801B8
:101160000995A8CF1F93CF93DF93EC01162FFC01B5
:10117000EA59FF4F0190F081E02D099585E08A95AD
:10118000F1F70000FE01E659FF4F0190F081E02DDC
:10119000CE01099585E08A95F1F70000612FCE0117
:1011A000DF91CF911F910C940F08FF920F931F9323
:1011B000CF93DF93CDB7DEB72A970FB6F894DEBF93
:1011C0000FBECDBF8C01F62EFC014785508970E023
:1011D00060E021E030E0CE0101960E94E106F801D6
:1011E000E659FF4F0190F081E02DC8010995F5E027
:1011F000FA95F1F70000F801E859FF4F0190F081EE
:10120000E02DC801099585E08A95F1F70000BE013F
:101210006F5F7F4FC8010E94E207882301F1E5E07C
:10122000EA95F1F70000F801EA59FF4F0190F081CB
:10123000E02DC8010995F5E0FA95F1F700006F2D52
:10124000C8010E940F082A960FB6F894DEBF0FBEA1
:10125000CDBFDF91CF911F910F91FF90089582E054
:1012600090E0F1CF2F923F924F925F926F927F92D8
:101270008F929F92AF92BF92CF92DF92EF92FF92A6
:101280000F931F93CF93DF93CDB7DEB72F970FB692
:10129000F894DEBF0FBECDBF8C014B87FC01E05C34
:1012A000FF4F10826C0181E4C80ED11CD6011C9244
:1012B000660F6F5FB5968081882309F489C0C801E5
:1012C0000E94D508892B09F064C07801512C58017F
:1012D000BAE6AB0EB11C1801E8E62E0E311C38013F
:1012E000F0E76F0E711CC80182599F4F9D878C8754
:1012F000AB85A150BB0B4D01F801EA59FF4FFF87A9
:10130000EE87D801DF968C91DF97581608F041C020
:10131000F701178E1F964D915C9170E060E021E01F
:1013200030E0CE0101960E94E10688E0482ED70108
:101330005F968C915F97880F5F968C93D501ED91A6
:10134000FC91C8010995D101ED91FC91C801099565
:10135000B5E0BA95F1F70000BE016F5F7F4FC8019D
:101360000E94E2078823A9F0E5E0EA95F1F7000082
:10137000D301ED91FC91C801099581112DC0CE01D9
:1013800001960E94BA06882399F361E0C8010E9481
:101390007B0761E0C8010E947B07D6018C912F96E4
:1013A0000FB6F894DEBF0FBECDBFDF91CF911F9176
:1013B0000F91FF90EF90DF90CF90BF90AF909F90F4
:1013C0008F907F906F905F904F903F902F900895F7
:1013D000C8010E94B20876CFAC85BD85ED91FC9125
:1013E000C8010995882321F0F701878D8160878FD7
:1013F0004A9441109CCFD501ED91FC91C80109950B
:10140000C701801B910BAE85BF858816990609F42C
:10141000D101ED91FC91C8010995B5E0BA95F1F7BC
:101420000000BE016F5F7F4FC8010E94E207882362
:1014300009F4AFCFE5E0EA95F1F70000D301ED91B3
:10144000FC91C8010995811107C0CE0101960E9447
:10145000BA06882399F399CFB5E0BA95F1F7000061
:10146000D501ED91FC91C8010995F60180818F5F4E
:1014700080835394FFEFEF1AFF0A8B85851141CFCC
:1014800088CFEF92FF921F93CF93DF93EC01FC0183
:10149000EE5BFF4F6081660FB39680818823A9F0D1
:1014A000CE010E94D50812E08130910519F0029713
:1014B00081F414E061E0CE010E947B07812FDF916F
:1014C000CF911F91FF90EF900895CE010E94B20836
:1014D000EACF10E07E0184E6E80EF11CF70180817E
:1014E000181780F4FE01E10FF11DED5BFF4F6081E5
:1014F000CE010E940F088130910531F00297C9F2A8
:101500001F5FECCF10E0D6CF13E0D4CF0F931F9323
:10151000CF93DF93EC018F8198852C85FC01EE5BE6
:10152000FF4F20838C599F4FDC011C928F8198853F
:10153000DC01ED91FC910190F081E02D09958F8106
:1015400098850E94410A888342E06C858F81988546
:101550000E9432098F819885DC01ED91FC91028413
:10156000F385E02D099500E0182F8F819885DC0127
:10157000ED91FC910284F385E02D0995802B912B50
:10158000DF91CF911F910F910895CF93DF93EC01DD
:101590008F8198852C85FC01EE5BFF4F20838C5951
:1015A0009F4FDC011C928F819885DC01ED91FC91AD
:1015B0000190F081E02D09958F8198850E94410A64
:1015C000888341E06C858F8198850E9432098F81E4
:1015D0009885DC01ED91FC910284F385E02D09955D
:1015E000DF91CF9108950F931F93CF93DF93EC0179
:1015F000142F052F8F8198852C85FC01EE5BFF4F02
:1016000020838C599F4FDC011C928F819885DC01CF
:10161000ED91FC910190F081E02D09958F819885E5
:10162000DC01ED91FC910190F081E02D602F099596
:101630008F819885DC01ED91FC910190F081E02D86
:10164000612F09958F8198850E94410A8883DF91D7
:10165000CF911F910F9108951F93CF93DF93EC01CA
:10166000142F8F8198852C85FC01EE5BFF4F208322
:101670008C599F4FDC011C928F819885DC01ED9184
:10168000FC910190F081E02D09958F819885DC0116
:10169000ED91FC910190F081E02D612F09958F81F2
:1016A00098850E94410A8883DF91CF911F91089508
:1016B0000F931F93CF93DF93EC010E94C9037F8B9D
:1016C0006E8B63E1CE010E94C50A8770C9F48B89D5
:1016D0009C89892BB1F30E94C9032E893F89621B23
:1016E000730B8B899C898617970758F781E08D8B40
:1016F0000FEF1FEFC801DF91CF911F910F91089558
:101700006EE1CE010E94860A8C0141E06BE0CE01C1
:101710000E942C0BEFCF0F931F93CF93DF93EC011D
:101720000E94C9030B811C812D813E81601B710BBE
:10173000820B930B653671058105910508F44DC048
:1017400041E060E8CE010E942C0B41E06FEFCE013A
:101750000E942C0B40E060E0CE010E942C0B488DD3
:1017600061E9CE010E942C0B41E060E0CE010E94B5
:101770002C0B40E06FEFCE010E942C0B40E060E8A4
:10178000CE010E942C0B41E060E0CE010E942C0BA8
:101790000E94C9037F8B6E8B60E0CE010E94C50A58
:1017A00080FF22C08B899C89892BB1F30E94C903D9
:1017B0002E893F89621B730B8B899C89861797073B
:1017C00058F781E08D8B8FEF9FEF9A8389830E947A
:1017D000C9036B837C838D839E8389819A81DF918A
:1017E000CF911F910F910895CE010E94580BEDCF1C
:1017F000CF92DF92EF92FF920F931F93CF93DF93DD
:10180000CDB7DEB728970FB6F894DEBF0FBECDBFB9
:101810008C01DC0156968D919C915797FC01EE5BF3
:10182000FF4F29E220838C599F4FFC01108256966E
:101830008D919C91DC01ED91FC910190F081E02D66
:1018400064E90995F801868997890E94410AD801BF
:1018500019968C93199748E069E256968D919C9160
:101860000E943209FE0131967F016E01F9E0CF0E30
:10187000D11CD80156968D919C91DC01ED91FC9183
:101880000284F385E02D0995F70181937F01EC1522
:10189000FD0579F789819A81D80151969C938E93A1
:1018A00050978B819C811B969C938E931A978D8168
:1018B0009E811D969C938E931C978F8198851F9671
:1018C0009C938E931E970E94C903F801628B738BC1
:1018D000848B958B28960FB6F894DEBF0FBECDBFD4
:1018E000DF91CF911F910F91FF90EF90DF90CF90FC
:1018F0000895CF93DF93EC018E899F89FC01EE5B05
:10190000FF4F29E220838C599F4FDC011C928E8966
:101910009F896068DC01ED91FC910190F081E02DE0
:1019200009958E899F890E94410A898741E069E271
:101930008E899F890E9432098E899F89DC01ED91F1
:10194000FC910284F385E02D0995DF91CF910895F4
:101950000F931F93CF93DF9300D0CDB7DEB78C01E9
:10196000606869834A83DC0156968D919C915797F4
:10197000FC01EE5BFF4F29E220838C599F4FFC0155
:10198000108256968D919C91DC01ED91FC91028024
:10199000F381E02D42E050E0BE016F5F7F4F09957B
:1019A000F801868997890E94410AD80119968C937B
:1019B0000F900F90DF91CF911F910F910895CF93CA
:1019C000DF93EC0160E00E94790C482F4C7F60E0CF
:1019D000CE01DF91CF910C94A80C43E060E00C9411
:1019E000A80C41E060E00C94A80C2F923F924F921B
:1019F0005F926F927F928F929F92AF92BF92CF929F
:101A0000DF92EF92FF920F931F93CF93DF93EC013E
:101A10000E94F10C63E070E080E090E00E94960389
:101A2000CE010E94ED0CCE010E940B05CE010E945A
:101A3000F80BEA84FB840C851D858E849F8448887E
:101A40005988CE010E94DF0CCE010E94F10C63E0A8
:101A500070E080E090E00E949603CE010E94ED0CC1
:101A60008C8D0E94CC0160E08C8D0E941303CE010E
:101A70000E940B05CE010E94F80BAA84BB84CC8483
:101A8000DD846E847F8428883988CE010E94DF0C33
:101A9000EA18FB0881E0E8168AEFF80678F5FB867D
:101AA000EA860C191D0901308AEF180750F51D87C9
:101AB0000C878618970881E088168AEF980620F52B
:101AC0009F868E864218530881E048168AEF580692
:101AD000F0F4598A488ADF91CF911F910F91FF90BE
:101AE000EF90DF90CF90BF90AF909F908F907F90BE
:101AF0006F905F904F903F902F9008951B861A86AD
:101B0000D0CF1D861C86D5CF1F861E86DBCF198AB7
:101B1000188AE1CF8F929F92AF92BF92CF92DF92BD
:101B2000EF92FF920F931F93CF93DF93EC010E94EC
:101B3000F50C2A853B85EC84FD840E851F85C888BD
:101B4000D98821308AEF380710F01B861A86AFEF4C
:101B5000B0E00E9491232881398150E040E00E944A
:101B60006F2349013B872A879701AFEFB0E00E94BE
:101B700091232A813B8150E040E00E946F2379014C
:101B80003D872C879801AFEFB0E00E9491232C8114
:101B90003D8150E040E00E946F2389013F872E87FE
:101BA0009601AFEFB0E00E9491232E813F8150E07B
:101BB00040E00E946F23C901398B288B2FEF8216DA
:101BC000910429F020F02FEF30E03B872A872FEF98
:101BD000E216F10429F020F02FEF30E03D872C874A
:101BE0000F3F110529F020F02FEF30E03F872E87BF
:101BF0008F3F910529F020F08FEF90E0998B888B33
:101C0000DF91CF911F910F91FF90EF90DF90CF90D8
:101C1000BF90AF909F908F900895FC01019000209D
:101C2000E9F73197AF01481B590BBC0186E893E0F7
:101C30000C94EB01CF93DF930E94D802EC018AE26F
:101C400091E00E940D0E8C0F9D1FDF91CF910895A2
:101C500080912B050E94CC0160E080912B050E94B1
:101C600013038BEE90E00197F1F7F89480912B0528
:101C70008B3009F46AC068F48A3009F43AC08DE800
:101C800092E00E941A0E78948BEE90E00197F1F7A3
:101C900008958C3009F485C08D3089F7E0912805CE
:101CA000F091290580912A0590E0019760F300806A
:101CB00005D0018003D0028001D017C008D007D022
:101CC00006D005D004D003D002D001D008952D9ABB
:101CD000001C0000000008F02D980000000000002B
:101CE0000000000008F42D9808950380F481E02D91
:101CF000DCCFE0912805F091290580912A0590E03C
:101D0000019708F4C0CF008005D0018003D0028085
:101D100001D017C008D007D006D005D004D003D01A
:101D200002D001D008952A9A001C0000000008F09B
:101D30002A980000000000000000000008F42A9823
:101D400008950380F481E02DDBCFE0912805F09128
:101D5000290580912A0590E0019708F494CF00802E
:101D600005D0018003D0028001D017C008D007D071
:101D700006D005D004D003D002D001D008952B9A0C
:101D8000001C0000000008F02B980000000000007C
:101D90000000000008F42B9808950380F481E02DE2
:101DA000DBCFE0912805F091290580912A0590E08C
:101DB000019708F468CF008005D0018003D002802D
:101DC00001D017C008D007D006D005D004D003D06A
:101DD00002D001D008952C9A001C0000000008F0E9
:101DE0002C980000000000000000000008F42C986F
:101DF00008950380F481E02DDBCF8F929F92AF9204
:101E0000BF920F931F93CF93DF93CDB7DEB7A19708
:101E10000FB6F894DEBF0FBECDBF19A2423008F452
:101E20004AE08E010F5D1F4F842E912CB12CA12C06
:101E3000A50194010E946F23E62FB901CA01EA307F
:101E4000F4F4E05DD801EE938D01232B242B252B98
:101E500079F790E080E0109719F0CD010E940D0E07
:101E6000A1960FB6F894DEBF0FBECDBFDF91CF9124
:101E70001F910F91BF90AF909F908F900895E95C54
:101E8000E1CFBC0190E080E04AE00C94FD0ECF93DE
:101E9000DF930E94410FEC018AE291E00E940D0E57
:101EA0008C0F9D1FDF91CF910895CF93DF93D0E0EA
:101EB000C0E0009719F00E940D0EEC018AE291E05B
:101EC0000E940D0E8C0F9D1FDF91CF9108953F92C0
:101ED0004F925F926F927F928F929F92AF92BF923A
:101EE000CF92DF92EF92FF920F931F93CF93DF93E6
:101EF000CDB7DEB7A1970FB6F894DEBF0FBECDBF4A
:101F00008C01DC0117968D919C91892B01F582E75C
:101F100090E00E94D5237C01F801428561850E94F2
:101F2000A505D8011896FC92EE92179788E290E0EA
:101F3000F701908B878761E0C7010E947B07D8017A
:101F40001796ED91FC9184E690E0908B878780E373
:101F5000F82EF801F48660E0C8010E94C50AD80195
:101F60008C91882399F089E21C968C9360E0C801DB
:101F70000E94C50AF8018081811108C040E36AE827
:101F8000C8010E942C0BD8011C96FC9260ECC80181
:101F90000E94C50A7801BDE0EB0EF11C8E3E41F0B7
:101FA00081EE92E00E94D802C7010E94550FFFCF38
:101FB00084EC92E00E94D802C7010E94550F69E8A4
:101FC000C8010E94C50A482F416069E8C8010E9403
:101FD0002C0B40E068E8C8010E942C0B41E060E84F
:101FE000C8010E942C0B41E06FEFC8010E942C0B2E
:101FF00040E060E0C8010E942C0B61E9C8010E942A
:10200000C50AF801808F41E060E0C8010E942C0BF6
:1020100040E06FEFC8010E942C0B40E060E8C8016F
:102020000E942C0B60E6C8010E94C50A482F42613D
:1020300060E6C8010E942C0B40E250E064E4C80155
:102040000E94F30A4FEF61E0C8010E942C0B41E0AF
:1020500060E8C8010E942C0B41E06FEFC8010E94AC
:102060002C0B40E060E0C8010E942C0B46E06FEFB3
:10207000C8010E942C0B63E8C8010E94C50A482FC2
:10208000446063E8C8010E942C0B47E06FEFC80171
:102090000E942C0B41E061E8C8010E942C0B41E03A
:1020A00060E8C8010E942C0B4BE664E9C8010E945D
:1020B0002C0B40E063E8C8010E942C0B0E94C9036E
:1020C000D80157967C936E93569763E8C8010E9497
:1020D000C50A81112EC0F80183899489892BA9F33F
:1020E0000E94C903D80156962D913C915797621BC7
:1020F000730B53968D919C918617970730F7F12CAF
:102100008F2DA1960FB6F894DEBF0FBECDBFDF9125
:10211000CF911F910F91FF90EF90DF90CF90BF90E4
:10212000AF909F908F907F906F905F904F903F9077
:10213000089541E063E8C8010E942C0B62E9C801E0
:102140000E94C50AD82EE894D7F8C82ECC1CCC24FF
:10215000CC1C40E061E8C8010E942C0B46E06FEF08
:10216000C8010E942C0B63E8C8010E94C50A482FD1
:102170004B7F63E8C8010E942C0B41E06FEFC80160
:102180000E942C0B41E060E0C8010E942C0B40E053
:102190006FEFC8010E942C0B40E060E8C8010E946C
:1021A0002C0BF801878190852485FC01EE5BFF4FA5
:1021B00020838C599F4FDC011C92F8018781908508
:1021C000DC01ED91FC910190F081E02D60EB09952F
:1021D000F801878190850E94410AD8018C9346E0DE
:1021E0001C966C911C9717968D919C910E943209B8
:1021F0007E01B7E1EB0EF11C3701B7E0BB2EBA94BC
:10220000BB2071F0F80187819085DC01ED91FC9194
:102210000284F385E02D0995F30181933F01EFCF0F
:1022200041E06FEFC8010E942C0B40E06FE4C80151
:102230000E942C0B4CE26EE4C8010E942C0B40E083
:102240006FEFC8010E942C0B44EB66EBC8010E94A3
:102250002C0BACE0C11001C0A0E090E080E061E098
:1022600070E0482F46954695469550E0F701E40FFB
:10227000F51F2081B82FB7708A1710F09D113CC050
:10228000F701E40FF51FAB0101C0440FBA95EAF75F
:102290004095242320838F5F803319F7D801179648
:1022A0008D919C9118971C962C911C97FC01EE5BCC
:1022B000FF4F20838C599F4FFC01108217968D9100
:1022C0009C91DC01ED91FC910190F081E02D60EB9F
:1022D0000995A7E0DA2EF80187819085DA94DD2050
:1022E000A9F0D7016D917D01DC01ED91FC91019088
:1022F000F081E02D0995EFCF30E002C035952795AC
:10230000BA95E2F720FFC7CF9F5FC5CF0E94410A71
:10231000F801808341E06FEFC8010E942C0B40E080
:1023200060E0C8010E942C0B40E06FEFC8010E94E2
:102330002C0B40E069E0C8010E942C0B40E060E1FA
:10234000C8010E942C0B40E061E1C8010E942C0BE7
:1023500041E064E2C8010E942C0B4FEF65E2C80126
:102360000E942C0B40E065E7C8010E942C0B41E065
:102370006FEFC8010E942C0B4CE26EE4C8010E9472
:102380002C0B40E068E4C8010E942C0B40E260E3A3
:10239000C8010E942C0B40E06FEFC8010E942C0B7B
:1023A00049E060E3C8010E942C0B40E064E5C801ED
:1023B0000E942C0B44E061E3C8010E942C0B43E017
:1023C00062E3C8010E942C0B43E860E4C8010E944C
:1023D0002C0B45E266E4C8010E942C0B40E060E64D
:1023E000C8010E942C0B40E067E2C8010E942C0B40
:1023F00046E060E5C8010E942C0B40E061E5C801A1
:102400000E942C0B46E962E5C8010E942C0B48E0B3
:1024100066E5C8010E942C0B40E367E5C8010E94F5
:102420002C0B40E061E6C8010E942C0B40E062E604
:10243000C8010E942C0B40E064E6C8010E942C0BEE
:1024400040E065E6C8010E942C0B40EA66E6C80140
:102450000E942C0B41E06FEFC8010E942C0B42E35D
:1024600062E2C8010E942C0B44E167E4C8010E94AB
:102470002C0B4FEF69E4C8010E942C0B40E06AE48A
:10248000C8010E942C0B40E06FEFC8010E942C0B8A
:102490004AE06AE7C8010E942C0B40E06BE7C801E4
:1024A0000E942C0B41E268E7C8010E942C0B41E01E
:1024B0006FEFC8010E942C0B44E363E2C8010E9445
:1024C0002C0B40E062E4C8010E942C0B4FEF64E447
:1024D000C8010E942C0B46E265E4C8010E942C0B47
:1024E00045E066E4C8010E942C0B40E460E4C801AA
:1024F0000E942C0B46E06EE0C8010E942C0B4AE1C2
:1025000060E2C8010E942C0B40E463E4C8010E9411
:102510002C0B40E06FEFC8010E942C0B43E064E3FA
:10252000C8010E942C0B44E465E3C8010E942C0BF7
:1025300041E06FEFC8010E942C0B44E061E3C80149
:102540000E942C0B49E06BE4C8010E942C0B45E073
:102550006CE4C8010E942C0B44E06DE4C8010E94A9
:102560002C0B40E06FEFC8010E942C0B40E064E4AC
:10257000C8010E942C0B40E265E4C8010E942C0BAC
:1025800048E067E4C8010E942C0B48E268E4C801F7
:102590000E942C0B40E067E6C8010E942C0B44E02F
:1025A00060E7C8010E942C0B41E061E7C8010E946E
:1025B0002C0B4EEF62E7C8010E942C0B40E066E74F
:1025C000C8010E942C0B40E067E7C8010E942C0B59
:1025D00041E06FEFC8010E942C0B41E06DE0C801A3
:1025E0000E942C0B40E06FEFC8010E942C0B41E0D1
:1025F00060E8C8010E942C0B48EF61E0C8010E940E
:102600002C0B41E06FEFC8010E942C0B41E06EE8FB
:10261000C8010E942C0B41E060E0C8010E942C0B15
:1026200040E06FEFC8010E942C0B40E060E8C80159
:102630000E942C0B44E06AE0C8010E942C0B64E865
:10264000C8010E94C50A482F4F7E64E8C8010E9455
:102650002C0B41E06BE0C8010E942C0BBE01635EB5
:102660007F4FC8010E94B819AE014F5F5F4FBE0196
:10267000635E7F4FC8010E94F0188D8D882309F496
:10268000F2C08B859C85AD85BE858C57924FAF4F30
:10269000BF4F2F8D222309F4EBC04B855C856D85E0
:1026A0007E854E545D4F6F4F7F4F440F551F661F01
:1026B000771F840F951FA61FB71F28A1222361F043
:1026C0004F85588969897A894C565D4F6F4F7F4F86
:1026D000840F951FA61FB71F29A1222361F04B89E4
:1026E0005C896D897E894A5D5D4F6F4F7F4F840F96
:1026F000951FA61FB71FF801818F928FA38FB48FEC
:1027000048EE61E0C8010E942C0BD8015996CD908B
:10271000DD90ED90FC905C97BE01635E7F4FC80139
:102720000E94B819AE014F5F5F4FBE01635E7F4FDD
:10273000C8010E94F0188D8D882309F4A6C08B85EE
:102740009C85AD85BE858C57924FAF4FBF4F2F8D67
:10275000222309F49FC04B855C856D857E854E5490
:102760005D4F6F4F7F4F440F551F661F771F840FBC
:10277000951FA61FB71F38A0332061F04F855889D9
:1027800069897A894C565D4F6F4F7F4F840F951F33
:10279000A61FB71F29A1222309F498C04C015D018F
:1027A000E6E28E0EE2E09E1EA11CB11CC814D90404
:1027B000EA04FB0408F48AC0AB81B0E020E03FE209
:1027C0004AE350E00E945C232B013C01F4EF4F0EE2
:1027D000F1E05F1E611C711CA701960128193909DF
:1027E0004A095B09A8EEB3E00E945C234B015C013F
:1027F000C301B20120ED37E040E050E00E946F23BA
:10280000820E931EA41EB51EC301B20128EE33E052
:1028100040E050E00E946F23C501B4010E946F2385
:10282000332031F08F819885280F391F411D511DAC
:10283000211531054105510509F467C0BA01A90107
:10284000415051096109710990E080E02A013B0182
:10285000442445284628472851F176956795579591
:1028600047950196F3CF86E39BE0A0E0B0E011CF5F
:102870002E8D222309F421CF4B855C856D857E85C5
:102880004C565D4F6F4F7F4F14CF86E39BE0A0E027
:10289000B0E05DCF2E8D222309F46DCF4B855C8592
:1028A0006D857E854C565D4F6F4F7F4F60CF982F63
:1028B0008827482B592B61E7C8010E94F30AD801E9
:1028C0005996CD92DD92ED92FC925C9741E061E0E9
:1028D000C8010E942C0B60E4C8010E94D51988230E
:1028E00009F40DCC42E061E0C8010E942C0B60E0CD
:1028F000C8010E94D519F82E882309F400CC48EEAF
:1029000061E0C8010E942C0BFBCB50E040E0D3CF2C
:10291000009711F00C940D0E90E080E00895AF92B6
:10292000BF92CF92DF92EF92FF920F931F93CF93BC
:10293000DF93EC01EAE0F5E090E080E02191319155
:102940000196232B09F045C0880F991FFC01E85F11
:10295000FA4FD183C08382E790E00E94D5238C0197
:102960004D8D6C8D0E94A5051F8B0E8B8AE0E82E85
:10297000F12CF801F08AE78661E0C8010E947B072C
:10298000EE89FF89F08AE78662E1CE010E94790C28
:102990008E01015E1F4F8D3409F18434F9F08031CE
:1029A000E9F063E070E080E090E00E94960362E16D
:1029B000CE010E94790C8D3489F0843479F0803115
:1029C00069F087E692E00E94D802C8010E94550F84
:1029D000FFCF8530910509F0B1CFBDCF81E0888F61
:1029E000FB8C4F2D61E0CE010E94A80CFB8EF98C70
:1029F000EA8C4F2D6FE0CE010E94A80CF98EEA8E72
:102A0000CE010E94F10C63E070E080E090E00E9453
:102A10009603CE010E94ED0CCE010E940B058EE3C1
:102A200092E00E94D802C8010E94550F2E8D2150BD
:102A3000330B49E0429F7001439FF00C1124870142
:102A40000C591F4F6E01FDE6EF0EF11C5E01C8012F
:102A50000E944623F50181935F010F5F1F4FE0162F
:102A6000F106A9F79E01285F3F4F80E0F6019191A2
:102A70006F0189272E173F07C9F7988589130EC064
:102A80008CE192E0DF91CF911F910F91FF90EF9039
:102A9000DF90CF90BF90AF900C941A0E80E092E040
:102AA000998388839B838A839D838C8380E094E0D1
:102AB0009F838E8386EC91E0E5CFBF92CF92DF9229
:102AC000EF92FF920F931F93CF93DF93CDB7DEB7B3
:102AD00029970FB6F894DEBF0FBECDBFFC01208D45
:102AE000211113C088E690E029960FB6F894DEBF56
:102AF0000FBECDBFDF91CF911F910F91FF90EF904F
:102B0000DF90CF90BF900C941A0E8C010E94F50CB0
:102B1000F801828593859A838983848595859C8332
:102B20008B83868597859E838D83808991899887FD
:102B30008F831986CE0101966C019E01275F3F4F5E
:102B4000FC019191898589278987E217F307C9F7E5
:102B5000F801268D2150330B49E0429F7001439FBD
:102B6000F00C112487010C591F4FFDE6EF0EF11CEC
:102B7000F601B1906F01C8010E944623B81621F0FA
:102B80006B2DC8010E944E230F5F1F4FE016F10608
:102B900079F78EE990E0A8CF1F920F920FB60F92AF
:102BA00011242F933F934F935F936F937F938F9352
:102BB0009F93AF93BF93EF93FF9386E893E00E94B8
:102BC0006902FF91EF91BF91AF919F918F917F919A
:102BD0006F915F914F913F912F910F900FBE0F908A
:102BE0001F9018951F920F920FB60F9211242F93DA
:102BF0008F939F93EF93FF93E0919603F091970348
:102C00008081E0919C03F0919D0382FD1BC0908127
:102C100080919F038F5F8F732091A003821741F0F3
:102C2000E0919F03F0E0EA57FC4F958F80939F035C
:102C3000FF91EF919F918F912F910F900FBE0F9069
:102C40001F9018958081F4CF1F920F920FB60F92AC
:102C500011242F933F938F939F93AF93BF938091B2
:102C6000610390916203A0916303B091640330917A
:102C7000600323E0230F2D3758F50196A11DB11DE8
:102C8000209360038093610390936203A093630396
:102C9000B09364038091650390916603A0916703EC
:102CA000B09168030196A11DB11D809365039093B7
:102CB0006603A0936703B0936803BF91AF919F91A0
:102CC0008F913F912F910F900FBE0F901F901895ED
:102CD00026E8230F0296A11DB11DD2CF1F920F929D
:102CE0000FB60F9211242F933F934F935F936F93DF
:102CF0007F938F939F93AF93BF93EF93FF938091B5
:102D0000B900887F803609F44AC0F0F5883209F4AA
:102D1000A5C018F5803109F499C0B8F4882309F4E6
:102D2000F5C0883009F492C0FF91EF91BF91AF9147
:102D30009F918F917F916F915F914F913F912F91D3
:102D40000F900FBE0F901F901895883109F486C020
:102D5000803251F78093390314C0803409F49BC04A
:102D600040F48033B9F38833F9F68093390385EC66
:102D7000AEC0803509F483C0883509F494C0883426
:102D800099F60E940607D0CF883909F48AC038F531
:102D9000883729F050F4883611F0803729F683E01F
:102DA00080933A031092380355C0883809F479C0EB
:102DB000803919F0803809F0B7CF8091380380321C
:102DC00008F06FC0E091380381E08E0F80933803E4
:102DD0008091BB00F0E0E85EFC4F80833BC0803B0D
:102DE00039F0D0F4803A09F477C0883A09F09CCFE2
:102DF00084E080933A031092170310921603F0E0D8
:102E0000E0E009958091160381110FC081E0809365
:102E100016031092F60209C0803C09F4A8CF883C42
:102E200009F4A5CF883B09F07FCFE091170381E03B
:102E30008E0F80931703F0E0EA50FD4F808180935E
:102E4000BB00909117038091160329C080915F0306
:102E50008093BB0085EC8093BC0066CF90915E03AD
:102E600080915D03981758F5E0915E0381E08E0F25
:102E700080935E03F0E0E35CFC4F8081E9CFE0915A
:102E80005E0381E08E0F80935E038091BB00F0E0D3
:102E9000E35CFC4F808390915E0380915D03981703
:102EA000C8F285E8D8CFE0915E0381E08E0F809371
:102EB0005E038091BB00F0E0E35CFC4F8083809177
:102EC0003C0381115ECF81E080933B0384EA8093D1
:102ED000BC0010923A0328CF85EC8093BC0010927E
:102EE0003A0380913803803230F4E0913803F0E007
:102EF000E85EFC4F10826091380370E088E193E057
:102F0000F0E0E0E00995109238030ECF10923903FB
:102F100038CF1F920F920FB60F9211242F933F9329
:102F20004F935F936F937F938F939F93AF93BF93D1
:102F3000EF93FF93E091DE02F0E0EE0FFF1FEF5200
:102F4000FD4F80819181009711F00E94E904FF916B
:102F5000EF91BF91AF919F918F917F916F915F9111
:102F60004F913F912F910F900FBE0F901F9018958A
:102F70001F920F920FB60F9211242F933F934F93EE
:102F80005F936F937F938F939F93AF93BF93CF93F1
:102F9000EF93FF9386B1C091D002C8278093D002EF
:102FA000C1FF0DC0E091EA02F0E0EE0FFF1FEF520B
:102FB000FD4F80819181009711F00E94E904C3FFC9
:102FC0000DC0E091EC02F0E0EE0FFF1FEF52FD4F5D
:102FD00080819181009711F00E94E904C5FF0DC026
:102FE000E091EE02F0E0EE0FFF1FEF52FD4F808107
:102FF0009181009711F00E94E904FF91EF91CF9128
:10300000BF91AF919F918F917F916F915F914F9100
:103010003F912F910F900FBE0F901F9018951F9208
:103020000F920FB60F9211242F933F934F935F93FC
:103030006F937F938F939F93AF93BF93EF93FF9380
:10304000E091E402F0E0EE0FFF1FEF52FD4F8081B0
:103050009181009711F00E94E904FF91EF91BF91D7
:10306000AF919F918F917F916F915F914F913F9120
:103070002F910F900FBE0F901F9018951F920F92D7
:103080000FB60F9211242F933F934F935F936F933B
:103090007F938F939F93AF93BF93CF93DF93EF93E0
:1030A000FF938091CE02C0912F04D0E087FF36C0FD
:1030B00010928500109284008091CE028F5F8093E1
:1030C000CE028091CE02082E000C990B8C179D0722
:1030D0002CF48091CE0284300CF449C0809184009D
:1030E0009091850080E49DE0909389008093880012
:1030F0008FEF8093CE02FF91EF91DF91CF91BF913F
:10310000AF919F918F917F916F915F914F913F917F
:103110002F910F900FBE0F901F9018958091CE02A7
:10312000082E000C990B8C179D0734F6E091CE0207
:103130008E2FEE0F990BFC01EE0FFF1FE80FF91F0A
:10314000ED5DFB4F808186FFB7CFE091CE028E2FE1
:10315000EE0F990BFC01EE0FFF1FE80FF91FED5D5D
:10316000FB4F808160E08F730E941303A5CF2091F5
:10317000840030918500E091CE028E2FEE0F990BE6
:10318000FC01EE0FFF1FE80FF91FED5DFB4F818182
:103190009281820F931F9093890080938800E09121
:1031A000CE028E2FEE0F990BFC01EE0FFF1FE80FE2
:1031B000F91FED5DFB4F808186FF9DCFE091CE0230
:1031C0008E2FEE0F990BFC01EE0FFF1FE80FF91F7A
:1031D000ED5DFB4F808161E08F730E9413038BCF05
:1031E0008F929F92AF92BF92CF92DF92EF92FF9217
:1031F0000F931F93CF93DF936C017B01EA0160E58E
:103200000E94C50A8F5F880F90E09983888366E4E7
:10321000C6010E94C50A082F10E00F5F1F4F1D83D3
:103220000C83A881B0E020E03FE24AE350E00E9436
:103230005C236C507E4F8F4F9F4F38EE832E33E0D0
:10324000932EA12CB12CA50194010E946F23D801CB
:103250000E9467236C507E4F8F4F9F4FA5019401B2
:103260000E946F232A873B874C875D8761E5C601F3
:103270000E94860A8C01112702C0000F111F9A9527
:10328000E2F70F5F1F4F1F830E83A881B0E020E09D
:103290003FE24AE350E00E945C236C507E4F8F4F28
:1032A0009F4FA50194010E946F23D8010E945C23C7
:1032B0006C507E4F8F4F9F4FA50194010E946F234A
:1032C0002E873F87488B598B60E7C6010E94C50A4D
:1032D0008F5F880F90E09B838A8361E7C6010E941D
:1032E000860A9C01992702C0880F991F3A95E2F738
:1032F000019699878887F7012381222331F02E8157
:103300003F81821B930B99878887AA81B0E020E0D8
:103310003FE24AE350E00E945C236C507E4F8F4FA7
:103320009F4F28EEC22E23E0D22EE12CF12CA701D4
:1033300096010E946F23A885B9850E945C236C507A
:103340007E4F8F4F9F4FA70196010E946F232A8BBC
:103350003B8B4C8B5D8BDF91CF911F910F91FF9039
:10336000EF90DF90CF90BF90AF909F908F90089597
:10337000CF93DF93EB0161E00E94C50A84FB99279C
:1033800090F9988383FB992790F99A8382FB992778
:1033900090F9998386FB992790F99B83881F88274A
:1033A000881F8C83DF91CF910895CF93DF93EC0139
:1033B000462F416060E00E942C0B0E94C9037F8B66
:1033C0006E8B63E1CE010E94C50A877089F48B89F8
:1033D0009C89892BB1F30E94C9032E893F89621B06
:1033E000730B8B899C898617970758F780E00BC071
:1033F00041E06BE0CE010E942C0B40E060E0CE018A
:103400000E942C0B81E0DF91CF910895FF920F93E2
:103410001F93CF93DF93109289031092880388EE55
:1034200093E0A0E0B0E080938A0390938B03A09395
:103430008C03B0938D038CE191E09093870380938C
:10344000860385EC90E0909393038093920384EC41
:1034500090E0909395038093940380EC90E0909398
:1034600097038093960381EC90E090939903809367
:10347000980382EC90E090939B0380939A0386ECF0
:1034800090E090939D0380939C0310929F03109271
:10349000A0031092A1031092A2031092290510928A
:1034A000280510922A0510922B0510922C051092D7
:1034B0000805109209058AE0EAE0F5E0DF01982F9F
:1034C0001D929A95E9F7E4E1F5E0DF01982F1D924E
:1034D0009A95E9F7EEE1F5E0DF011D928A95E9F7AB
:1034E0008CE090E00E94D523FC01AC01445F5F4F6B
:1034F0006FEFC8EBDBE020912F04243008F0EAC026
:1035000031E0320F30932F04208330E0D901AA0F2D
:10351000BB1FA20FB31FAD5DBB4F1296DC93CE93C2
:1035200011973396E417F50731F7909307058093C9
:103530000605109205051092F8041FEF1093FB0486
:10354000C2E0D0E0D093FA04C093F9048EE08093F7
:10355000FC048FE08093FD046DE271E08FEF94E056
:103560000E94FA2481E08093FE041092D304109309
:10357000D604D093D504C093D40480E18093D704BB
:1035800081E18093D80463E371E08AED94E00E94C6
:10359000FA2482E0F82EF092D9041092AE0410932F
:1035A000B104D093B004C093AF0418E01093B204F8
:1035B000D9E0D093B30469E371E085EB94E00E9415
:1035C000FA24C3E0C093B40410927B0410927A04EE
:1035D00010927C0410927D0410927E0410927F045D
:1035E00009E20093850410928D0410928C041092CD
:1035F0008E041092810410928004F0928204C09391
:1036000083046FE371E086E894E00E94FA2484E08A
:103610008093840488E39AE4A0E0B0E080935504AA
:1036200090935604A0935704B093580482E180937A
:103630004D0483E180934E0465E471E080E594E0FD
:103640000E94FA2410924F0410926D0410926E049E
:103650001092650410926604109267041092680438
:103660001092690410926A0410926B0410926C0418
:1036700010926F04109270041092710410927204F0
:1036800010923204109231041092330410923404D8
:10369000109235041092360400933C0410924404B6
:1036A000109243041092450410923804109237048B
:1036B00010933904D0933A0469E371E08DE394E008
:1036C0000E94FA24C0933B04DF91CF911F910F9188
:1036D000FF900895608325CFCF93DF9300D000D073
:1036E000CDB7DEB7789484B5826084BD84B581603F
:1036F00084BD85B5826085BD85B5816085BD8091BD
:103700006E00816080936E00109281008091810034
:10371000826080938100809181008160809381002C
:10372000809180008160809380008091B1008460EE
:103730008093B1008091B00081608093B00080914F
:103740007A00846080937A0080917A00826080930E
:103750007A0080917A00816080937A0080917A006B
:10376000806880937A001092C100E0919603F091F6
:10377000970382E08083E0919203F091930310829B
:10378000E0919403F091950380E1808310929E0371
:10379000E0919A03F0919B0386E08083E091980387
:1037A000F0919903808180618083E0919803F0918A
:1037B0009903808188608083E0919803F091990358
:1037C000808180688083E0919803F09199038081E3
:1037D0008F7D808386E00E94CC0187E00E94CC012F
:1037E00085E00E94CC0184E00E94CC018AE491E053
:1037F0000E94550F80E691E00E94881485E10E94A6
:103800005F0327E133E1DC010E94B42328EE33E0BB
:1038100040E050E00E946F2369017A014AE0C7014D
:10382000B6010E94FD0E84E791E00E94550F21ED44
:10383000C21627E0D206E104F10408F046C188E789
:1038400091E00E94550F85E10E945F0327E133E17B
:10385000DC010E94B4236834774E8641910538F428
:103860006DE770E080E090E00E949603ECCF84EC7E
:1038700091E00E94550FE4E1F5E090E080E02191B5
:103880003191232B09F038C1880F991FFC01EC5EA0
:10389000FA4F89E794E09183808389E794E00E945E
:1038A000670FE4E1F5E090E080E021913191232B76
:1038B00009F028C1880F991FFC01EC5EFA4F80E3E4
:1038C00094E09183808380E394E00E94670F80EE10
:1038D00094E00E948F148BEB94E00E948F1486E991
:1038E00094E00E948F14EEE1F5E090E080E02191F9
:1038F0003191232B09F00CC1880F991FFC01E25E66
:10390000FA4F8DE494E09183808320914D0430E060
:10391000F901E95EFC4F8491255D3C4FF90124914A
:1039200020935D0490E0880F991FFC01ED5FFC4F30
:10393000A591B491B0935A04A0935904FC01E35F9C
:10394000FC4F8591949190935C0480935B0440912B
:103950004E0450E0FA01E95EFC4F8491FA01E55D06
:10396000FC4FE491E093640490E0880F991FFC0100
:10397000ED5FFE4F4591549150935F0440935E0478
:10398000FC01E35FFC4F45915491509361044093D7
:103990006004FC01ED5FFC4F85919491909363046A
:1039A00080936204EC9120952E232C93E0915B048C
:1039B000F0915C04808190915D04892B8083E0917B
:1039C0006004F09161049081809164048095892362
:1039D0008083E0916204F09163049081809164049B
:1039E0008095892380838DE494E00E946004109286
:1039F00075041092760410927704109278048FEF79
:103A00009FEF9093740480937304F1E0F0934F045C
:103A100080ED90E00E94D80280E594E00E94550F6E
:103A200021E0209308058BE00E94CC0161E08BE04F
:103A30000E94130331E0309305058DE091E00E9470
:103A40001A0E81E080932A058AE080932B0585E099
:103A500090E00E94D523FC01108211821282909383
:103A60002905809328059483838391E090932C0506
:103A70008BE591E00E94D8028FE192E00E948814C9
:103A800085E591E00E94D80260912A0570E090E0FF
:103A900080E04AE00E94FD0E8FE491E00E941A0E41
:103AA00080912C05882309F40DC190912A05E0919D
:103AB0002805F091290580E0981709F401C11182C9
:103AC000108212828F5F3596F7CF81EDC81A87E09A
:103AD000D80AE108F1089BE4C91694E0D906E1048C
:103AE000F10408F0C8CE87EE91E00E94550F86EFF2
:103AF00091E00E94550FFFCF01968530910509F0A6
:103B0000BECECBCE01968530910509F0CECEDBCE70
:103B100001968530910509F0EACEF7CEEB81FC8164
:103B20001386128688C2EB81FC811586148693C2A7
:103B3000EB81FC81178616869EC2EB81FC81118A7F
:103B4000108AA9C20E94C9030091750410917604DD
:103B50002091770430917804601B710B820B930BDA
:103B60006536710581059105A0F180916D04811183
:103B700004C08DE494E00E94B9040E94C9036B0163
:103B80007C0139E1C30ED11CE11CF11C80916D0454
:103B9000882371F10E9471030091650410916604FD
:103BA0002091670430916804601B710B820B930BAA
:103BB00000915504109156042091570430915804F7
:103BC000061717072807390798F410926D0410920A
:103BD0006E0480916E0481111BC08FEF9FEF909354
:103BE000740480937304EFEFFFEFFA83E9832AC430
:103BF00080916E048111EDCF0E94C9036C157D0583
:103C00008E059F0530F783E290E00197F1F7BECF74
:103C10004091690450916A0460916B0470916C0446
:103C20008091650490916604A0916704B091680446
:103C300084179507A607B70780F62091690430918D
:103C40006A0440916B0450916C04809165049091DA
:103C50006604A0916704B0916804281B390B4A0BD5
:103C60005B0B20936F043093700440937104509366
:103C70007204211531054105510509F4AECFA8EEB6
:103C8000B3E00E945C2320E932EE40E050E00E9465
:103C90006F23C90101969A8389839093740480935A
:103CA0007304D0C364E670E080E090E00E94D50326
:103CB0006CC464E670E080E090E00E94D50373C4B9
:103CC0000E94280E1092690310926A0310926B03EF
:103CD00010926C0384E10E945F038436910580F4A6
:103CE00082E292E00E94550F8BE392E00E94550F12
:103CF00080EE94E00E945D158BEB94E00E945D15D0
:103D000022242A94312C08E015E094E1E92E95E074
:103D1000F92EF701219131917F013A8329832115F1
:103D2000310581F141E060E8C9010E942C0B41E0BE
:103D30006FEF89819A810E942C0B40E060E08981BD
:103D40009A810E942C0BE981FA81408D61E9CF01B3
:103D50000E942C0B41E060E089819A810E942C0B2B
:103D600040E06FEF89819A810E942C0B40E060E86F
:103D700089819A810E942C0B41E060E089819A81BF
:103D80000E942C0BFEE1EF16F5E0FF0611F62EE186
:103D900035E03A832983E981FA8181919191FA830F
:103DA000E983009731F0FC0120A1211102C00E949B
:103DB000B90429813A812852354069F70E9471037C
:103DC0006B017C01EAE0F5E0FA83E983FC83EB8395
:103DD000EB81FC8181919191FC83EB83009711F041
:103DE0000E94F10C24E135E08B819C812817390772
:103DF00079F70E9471036C197D098E099F09643C53
:103E0000794081059105A8F38AE0E82E85E0F82E37
:103E1000F701819191917F01009711F00E94ED0CC3
:103E20002B813C812E153F0599F78BE195E3019796
:103E3000F1F78AE095E09C838B83EB81FC81819193
:103E40009191FC83EB83009711F00E94F80B2B817A
:103E50003C812E153F0589F78AE095E09C838B8392
:103E6000EB81FC8181919191FC83EB83009711F0B0
:103E70000E94DF0C2B813C812E153F0589F70E94A3
:103E800071034B015C018AE095E09C838B83EB819D
:103E9000FC8181919191FC83EB83009711F00E944A
:103EA000F10C2B813C812E153F0589F70E9471038F
:103EB000681979098A099B09643C79408105910553
:103EC000A8F3B8E08B2EB5E09B2EF401828193819C
:103ED000009789F00E94ED0CF4010280F381E02D3F
:103EE000FC83EB83848D0E94CC0160E0EB81FC813C
:103EF000848D0E941303F2E08F0E911C22E135E0C5
:103F00002815390511F78BE195E30197F1F7F801D1
:103F10000280F381E02DFC83EB83EF2B09F424C1B5
:103F20000E94C903EB81FC814288538864887588AC
:103F3000641975098609970963347105810591052E
:103F400018F0CF010E948A0DEB81FC81A284B3841A
:103F5000F8010280F381E02DFC83EB830E94C9030A
:103F6000EB81FC81428853886488758864197509DF
:103F700086099709633471058105910518F0CF0111
:103F80000E948A0DEB81FC8144845584F8010280F3
:103F9000F381E02DFC83EB830E94C903EB81FC815C
:103FA0002289338944895589621B730B840B950BD5
:103FB000633471058105910518F0CF010E948A0DC7
:103FC000EB81FC8166847784F8010280F381E02D27
:103FD000FC83EB830E94C903EB81FC812289338936
:103FE00044895589621B730B840B950B63347105EF
:103FF0008105910518F0CF010E948A0DEB81FC81AB
:10400000C088D188F801828193810E94F80BF80161
:104010000280F381E02DFC83EB8382859385A81ACF
:10402000B90AF1E0AF16FAEFBF0608F077CDEB81E1
:10403000FC81B386A286EB81FC8184859585481A34
:10404000590AF1E04F16FAEF5F0608F06CCDEB81EC
:10405000FC8155864486EB81FC8186859785681AAC
:10406000790AF1E06F16FAEF7F0608F061CDEB8177
:10407000FC8177866686EB81FC8180899189C81AEC
:10408000D90AF1E0CF16FAEFDF0608F056CDEB8142
:10409000FC81D18AC08AEB81FC8122853385AFEF18
:1040A000B0E00E9491232081318150E040E00E94E5
:1040B0006F232901EB81FC81338722872485358595
:1040C000AFEFB0E00E9491232281338150E040E0C5
:1040D0000E946F235901EB81FC8135872487268557
:1040E0003785AFEFB0E00E9491232481358150E005
:1040F00040E00E946F236901EB81FC8137872687AE
:1041000020893189AFEFB0E00E9491232681378169
:1041100050E040E00E946F23C901EB81FC81318BAC
:10412000208BFFEF4F16510429F020F0EB81FC812A
:1041300033862286FFEFAF16B10429F020F0EB8121
:10414000FC8135862486FFEFCF16D10429F020F0BC
:10415000EB81FC81378626868F3F910529F020F080
:10416000EB81FC81318A208A0E5F1F4F08151905EB
:1041700009F0CDCEE981FA8181919191FA83E983A9
:10418000009711F00E94DF0C29813A812E153F051E
:1041900089F704E115E0F801219131918F013A830B
:1041A00029832115310579F0C9010E94580BE98155
:1041B000FA81928381830E94C903E981FA81638332
:1041C000748385839683F5E00E311F0721F70E94E3
:1041D000C9030091F2041091F3042091F40430918A
:1041E000F504601B710B820B930B63347105810521
:1041F000910520F080EE94E00E948A0D8091EA04FF
:104200009091EB0490938503809384038091EC0458
:104210009091ED0490938303809382038091EE0448
:104220009091EF0490938103809380038091F00438
:104230009091F10490937F0380937E0382E592E056
:104240000E94881480918403909185030E94410FFD
:104250008FE592E00E9488148091820390918303FD
:104260000E94410F83E692E00E94881480918003AF
:10427000909181030E94410F87E692E00E9488148A
:1042800080917E0390917F030E94470F0E94C90393
:104290000091CD041091CE042091CF043091D00430
:1042A000601B710B820B930B6334710581059105C3
:1042B00020F08BEB94E00E948A0D8091C5049091D0
:1042C000C60490937D0380937C038091C7049091F2
:1042D000C80490937B0380937A038091C9049091E2
:1042E000CA0490937903809378038091CB049091D2
:1042F000CC0490937703809376038BE692E00E9440
:10430000881480917C0390917D030E94410F8FE57A
:1043100092E00E94881480917A0390917B030E941E
:10432000410F83E692E00E94881480917803909177
:1043300079030E94410F87E692E00E9488148091E1
:104340007603909177030E94470F0E94C903009162
:10435000A8041091A9042091AA043091AB04601B19
:10436000710B820B930B633471058105910520F06D
:1043700086E994E00E948A0D8091A0049091A104A6
:1043800090937503809374038091A2049091A30489
:1043900090937303809372038091A4049091A50479
:1043A00090937103809370038091A6049091A70469
:1043B00090936F0380936E0388E792E00E948814C5
:1043C00080917403909175030E94410F8FE592E0F4
:1043D0000E94881480917203909173030E94410F90
:1043E00083E692E00E94881480917003909171039B
:1043F0000E94410F87E692E00E94881480916E032C
:1044000090916F030E94470F89E794E00E948B0B05
:104410009A83898385E892E00E94881489819A8131
:104420000E94410F81E992E00E94550F80914F0454
:10443000811188CB8BE791E00E941A0E2FEF3FEF9E
:104440003A83298385E992E00E948814E981FA8100
:104450006F01FF0FEE08FF084AE0C701B601F7FE43
:104460000DC06DE286E893E00E948B0266277727F5
:10447000CB016C197D098E099F094AE00E94FD0E4F
:104480008EEA92E00E94550F80E394E00E948B0B2D
:104490009A83898382EB92E00E94881489819A81B1
:1044A0000E94410F81E992E00E94550F80912C05F6
:1044B000882341F180912A05882311F1809180039E
:1044C000909181032091820330918303E09128052C
:1044D000F0912905409184035091850365E056953C
:1044E00047956A95E1F7418375E0369527957A956A
:1044F000E1F72083A5E096958795AA95E1F7828359
:104500000E94280EF0916D03FF5FF983F0936D0315
:104510000E94C9030091690310916A0320916B0303
:1045200030916C03601B710B820B930B683E7340E0
:1045300081059105C0F00E94C903609369037093DF
:104540006A0380936B0390936C033981632F70E04F
:1045500090E080E04AE00E94FD0E8AE291E00E9435
:104560000D0E10926D0384E10E945F038436910565
:10457000D0F48FEB92E00E94550F809105058111D8
:1045800091CB87EA91E00E941A0E64E670E080E029
:1045900090E00E9496038091050581118ACB87EAFD
:1045A00091E00E941A0E80E090E0892B09F4ABCBD9
:1045B0000E945502882309F4A6CB0E940000A3CBD9
:1045C00080914F04882369F020914E0438EF320F18
:1045D0003630C0F182EF820F8630E0F032E02830D2
:1045E000D8F080910505882321F061E08BE00E94DE
:1045F00013038091060590910705009711F00E9422
:1046000071248091280590912905009709F43DC0F7
:104610000C947124282F31E081E090E001C0880FD4
:104620002A95EAF78095313019F590916C0089232D
:1046300080936C0080916C008111D3CF80916800D1
:104640008D7F13C020916B0081E090E001C0880F46
:104650003A95EAF78095822380936B0080916B00F6
:104660008111BFCF809168008E7F80936800B9CFA1
:1046700090916D00892380936D0080916D00811170
:10468000B0CF809168008B7FF0CF0895F999FECF6D
:1046900092BD81BDF89A992780B50895262FF99982
:1046A000FECF1FBA92BD81BD20BD0FB6F894FA9A15
:1046B000F99A0FBE019608950E949123A59F900D2F
:1046C000B49F900DA49F800D911D11240895B7FFF4
:1046D0000C945C230E945C23821B930B0895A1E23F
:1046E0001A2EAA1BBB1BFD010DC0AA1FBB1FEE1F6C
:1046F000FF1FA217B307E407F50720F0A21BB30BB7
:10470000E40BF50B661F771F881F991F1A9469F732
:1047100060957095809590959B01AC01BD01CF018E
:104720000895A29FB001B39FC001A39F700D811D8A
:104730001124911DB29F700D811D1124911D0895AA
:1047400097FB072E16F4009407D077FD09D00E943E
:10475000BB2307FC05D03EF4909581959F4F0895AB
:10476000709561957F4F08950E949123B7FF08953A
:10477000821B930B0895AA1BBB1B51E107C0AA1F04
:10478000BB1FA617B70710F0A61BB70B881F991FF2
:104790005A95A9F780959095BC01CD010895EE0F2B
:1047A000FF1F0590F491E02D09940F931F93CF9371
:1047B000DF938230910510F482E090E0E0912F05C4
:1047C000F091300530E020E0B0E0A0E0309799F4BF
:1047D0002115310509F44AC0281B390B2430310555
:1047E000D8F58A819B816115710589F1FB0193835D
:1047F0008283FE0111C040815181028113814817DB
:104800005907E0F04817590799F4109761F012968C
:104810000C93129713961C933296CF01DF91CF9190
:104820001F910F91089500932F0510933005F4CF39
:104830002115310551F04217530738F0A901DB016A
:104840009A01BD01DF01F801C1CFEF01F9CF9093CB
:10485000300580932F05CDCFFE01E20FF31F81932A
:1048600091932250310939832883D7CF20912D0588
:1048700030912E05232B41F4209102013091030148
:1048800030932E0520932D052091000130910101D8
:104890002115310541F42DB73EB7409104015091E7
:1048A0000501241B350BE0912D05F0912E05E21733
:1048B000F307A0F42E1B3F0B2817390778F0AC0143
:1048C0004E5F5F4F2417350748F04E0F5F1F509320
:1048D0002E0540932D05819391939FCFF0E0E0E06A
:1048E0009CCFCF93DF930097E9F0FC0132971382BE
:1048F0001282A0912F05B0913005ED0130E020E04B
:104900001097A1F420813181820F931F20912D05F2
:1049100030912E052817390709F061C0F0932E0554
:10492000E0932D05DF91CF910895EA01CE17DF07BF
:10493000E8F54A815B819E0141155105B1F7E90116
:10494000FB83EA8349915991C40FD51FEC17FD07EA
:1049500061F4808191810296840F951FE90199830A
:104960008883828193819B838A83F0E0E0E01296C2
:104970008D919C9113970097B9F52D913C911197CA
:10498000CD010296820F931F20912D0530912E05A7
:104990002817390739F6309751F5109230051092E3
:1049A0002F05B0932E05A0932D05BCCFD383C283D2
:1049B00040815181840F951FC817D90761F44E5F5C
:1049C0005F4F88819981480F591F518340838A81A5
:1049D0009B81938382832115310509F0B0CFF09339
:1049E0003005E0932F059ECFFD01DC01C0CF13827F
:1049F0001282D7CFFB01DC0101900D920020E1F77C
:104A0000089511E0C1EAD1E004C0FE010E94CF2365
:104A10002196C23AD107C9F7F894FFCF00003105BB
:104A2000800000000000780550050307B9069A05CC
:104A300036052305000000008B02EB011802F3028B
:104A4000490227023B020D0A004932432D31004939
:104A500032432D32004932432D33004932432D3445
:104A60000055532D350048656C6C6F2C20427269DF
:104A7000636B2053696D706C6573210054656E73B0
:104A8000616F20646120626174657269613A20001F
:104A9000206D5600427269636B206C696761646FB8
:104AA000206170656E6173206E61205553422C2029
:104AB0007061726120656C652066756E63696F6EEA
:104AC00061722C206C69677565206120636861766E
:104AD00065206C6967612F6465736C6967612E007E
:104AE000427269636B206C696761646F2C20636F2D
:104AF0006D65C3A7616E646F206F2063C3B3646983
:104B0000676F0042617465726961206672616361FA
:104B10002100436F6C6F717565206F20627269634D
:104B20006B207061726120636172726567617220CF
:104B30006520616775617264652E00533400426FB1
:104B400074616F20617065727461646F206E6F2094
:104B5000696E6963696F0063616C696272616E643A
:104B60006F2073656E736F7265732E2E2E00536502
:104B70006E736F7231202D20523A0020473A002088
:104B8000423A0020433A0053656E736F7232202D13
:104B900020523A0053656E736F7233202D20523AC3
:104BA0000044697374616E6369613A2000206D6D21
:104BB0000044697374616E63696120556C7472613D
:104BC00073736F6E69636F3A200020636D004469F0
:104BD0007374616E636961333A2000426F74616F70
:0A4BE00020617065727461646F005B
:107E0000112484B714BE81FFF0D085E080938100F7
:107E100082E08093C00088E18093C10086E0809377
:107E2000C20080E18093C4008EE0C9D0259A86E02C
:107E300020E33CEF91E0309385002093840096BBD3
:107E4000B09BFECF1D9AA8958150A9F7CC24DD24C4
:107E500088248394B5E0AB2EA1E19A2EF3E0BF2EE7
:107E6000A2D0813461F49FD0082FAFD0023811F036
:107E7000013811F484E001C083E08DD089C08234E0
:107E800011F484E103C0853419F485E0A6D080C0E4
:107E9000853579F488D0E82EFF2485D0082F10E0AE
:107EA000102F00270E291F29000F111F8ED06801E7
:107EB0006FC0863521F484E090D080E0DECF843638
:107EC00009F040C070D06FD0082F6DD080E0C81688
:107ED00080E7D80618F4F601B7BEE895C0E0D1E017
:107EE00062D089930C17E1F7F0E0CF16F0E7DF06D8
:107EF00018F0F601B7BEE89568D007B600FCFDCFD4
:107F0000A601A0E0B1E02C9130E011968C91119780
:107F100090E0982F8827822B932B1296FA010C0160
:107F200087BEE89511244E5F5F4FF1E0A038BF0790
:107F300051F7F601A7BEE89507B600FCFDCF97BE46
:107F4000E89526C08437B1F42ED02DD0F82E2BD052
:107F50003CD0F601EF2C8F010F5F1F4F84911BD097
:107F6000EA94F801C1F70894C11CD11CFA94CF0C13
:107F7000D11C0EC0853739F428D08EE10CD085E9AC
:107F80000AD08FE07ACF813511F488E018D01DD067
:107F900080E101D065CF982F8091C00085FFFCCF94
:107FA0009093C60008958091C00087FFFCCF809118
:107FB000C00084FD01C0A8958091C6000895E0E648
:107FC000F0E098E1908380830895EDDF803219F02E
:107FD00088E0F5DFFFCF84E1DECF1F93182FE3DFCA
:107FE0001150E9F7F2DF1F91089580E0E8DFEE27F6
:047FF000FF270994CA
:027FFE00040479
:00000001FF
