:020000040000FA
:100000000C9430020C9458020C9458020C94E91988
:100010000C9492190C9463190C9458020C94181AAD
:100020000C9458020C9458020C9458020C945802E8
:100030000C9458020C9458020C9458020C945802D8
:100040000C94FE170C9458020C94CC170C94A61721
:100050000C9458020C9458020C9458020C945802B8
:100060000C9448180C94580200000000230026004D
:1000700029004E656E68756D612063616C696272FE
:1000800061C3A7C3A36F2076C3A16C6964612065B7
:100090006E636F6E7472616461206E6120454550BD
:1000A000524F4D2C207573616E646F2063616C69D3
:1000B000627261C3A7C3A36F2070616472616F2015
:1000C00073656E736F722E0043616C69627261C3F7
:1000D000A7C3A36F20636172726567616461206466
:1000E0006120454550524F4D2E0054435333343711
:1000F00032352064657465637461646F20636F6D6D
:10010000207375636573736F206E6120706F7274F6
:100110006120004572726F20616F206465746563B1
:10012000746172206F205443533334373235206E5C
:100130006120706F72746120002054696D656F7565
:10014000743A204461646F7320696E636F6D706CE4
:1001500065746F7320646F204769726F73636F708B
:10016000696F0054696D656F75743A204461646FFE
:100170007320696E636F6D706C65746F7320646F4C
:100180002053656E736F724C696E686100000000E9
:1001900000240027002A00000000080002010000DF
:1001A0000304070000000000000000427269636B56
:1001B000206C696761646F2C20636F6D65C3A761F4
:1001C0006E646F206F2063C3B36469676F00436F11
:1001D0006C6F717565206F20627269636B2070614E
:1001E0007261206361727265676172206520616768
:1001F00075617264652E0042617465726961206682
:10020000726163612100427269636B206C6967618E
:10021000646F206170656E6173206E61205553427A
:100220002C207061726120656C652066756E636953
:100230006F6E61722C206C69677565206120636840
:10024000617665206C6967612F6465736C696761AD
:100250002E00206D560054656E73616F206461201E
:10026000626174657269613A200048656C6C6F2C3C
:1002700020427269636B2053696D706C6573210055
:1002800042757A7A657220696E696369616C697A10
:1002900061646F206E6120706F72746120000102D2
:1002A0000408102040800102040810200102040804
:1002B000102000000000250028002B000404040486
:1002C0000404040402020202020203030303030300
:1002D000536572766F20696E69636961646F206E21
:1002E0006120706F727461200056616C6F722065BE
:1002F00073637269746F206E6F20736572766F3AE4
:10030000200056616C6F72206D61706561646F20B2
:1003100070617261207469636B733A2000564C35CA
:10032000334C305820656E636F6E747261646F2059
:100330006E6120706F7274612000564C35334C3002
:1003400058206EC3A36F20656E636F6E7472616414
:100350006F206E6120706F72746120004572726F41
:100360003A204D6F746F72206E616F20696E696301
:1003700069616C697A61646F212055736520696ECB
:10038000696369616C697A614D6F746F7265732816
:100390002920616E74657320646520636F6E7472CA
:1003A0006F6C6172206F73206D6F746F7265732E46
:1003B000004572726F3A2042757A7A6572206E61DA
:1003C0006F20696E696369616C697A61646F21008D
:1003D000204C4544730020636F6D200046697461B2
:1003E000204C454420696E696369616C697A616477
:1003F00061206E6120706F72746120004572726FAF
:100400003A207175616E7469646164652064652069
:100410004C45447320696E76616C696461202831B3
:100420002D313029004572726F3A2050696E6F206D
:100430004C454420696E76616C69646F2120557368
:100440006520504F5254415F4C45445F312061203C
:10045000504F5254415F4C45445F3400D41BD92760
:1004600011241FBECFEFD8E0DEBFCDBF12E0A0E069
:10047000B1E0E8E9F5E502C005900D92AE32B107B2
:10048000D9F724E0AEE2B2E001C01D92AF39B20765
:10049000E1F712E0CFE2D2E004C02197FE010E9412
:1004A0008D29CE32D107C9F70E949D1D0C94BF2A19
:1004B0000C940000AF92BF92CF92DF92EF92FF9226
:1004C0000F931F93CF93DF936C017B018B01040F7C
:1004D000151FEB015E01AE18BF08C017D10759F018
:1004E0006991D601ED91FC910190F081E02DC6015A
:1004F0000995892B79F7C501DF91CF911F910F9154
:10050000FF90EF90DF90CF90BF90AF900895FC01E7
:10051000538D448D252F30E0842F90E0821B930B68
:10052000541710F0CF96089501970895FC01918D0E
:10053000828D981761F0A28DAE0FBF2FB11D5D9611
:100540008C91928D9F5F9F73928F90E008958FEFB3
:100550009FEF0895FC01918D828D981731F0828D67
:10056000E80FF11D858D90E008958FEF9FEF0895BE
:10057000FC01918D228D892F90E0805C9F4F821B22
:1005800091098F73992708958CED92E00E94B8022B
:1005900021E0892B09F420E0822F089580E090E08B
:1005A000892B29F00E94C40281110C940000089547
:1005B000FC01A48DA80FB92FB11DA35ABF4F2C91D8
:1005C000848D90E001968F739927848FA689B789CF
:1005D0002C93A089B1898C91837080648C93938DC6
:1005E000848D981306C00288F389E02D80818F7D69
:1005F00080830895EF92FF920F931F93CF93DF9321
:10060000EC0181E0888F9B8D8C8D98131AC0E8894E
:10061000F989808185FF15C09FB7F894EE89FF891D
:100620006083E889F98980818370806480839FBFBB
:1006300081E090E0DF91CF911F910F91FF90EF90BB
:100640000895F62E0B8D10E00F5F1F4F0F731127CB
:10065000E02E8C8D8E110CC00FB607FCFACFE88906
:10066000F989808185FFF5CFCE010E94D802F1CFB4
:10067000EB8DEC0FFD2FF11DE35AFF4FF0829FB77A
:10068000F8940B8FEA89FB8980818062CFCF0F932A
:100690001F93CF93DF938C01D0E0C0E0F801EC0F03
:1006A000FD1F6491662341F08CED92E00E94FA02F6
:1006B000892B11F02196F2CFCE01DF91CF911F91BE
:1006C0000F910895CF93DF93EC01888D8823B9F0C3
:1006D000AA89BB89E889F9898C9185FD03C080814D
:1006E00086FD0DC00FB607FCF7CF8C9185FFF2CFCA
:1006F000808185FFEDCFCE010E94D802E9CFDF9146
:10070000CF91089590E0FC01E956FE4F2491FC0141
:10071000E256FD4F3491FC01E454FD4FE491EE2389
:10072000C9F0222339F0233001F1A8F4213019F166
:10073000223029F1F0E0EE0FFF1FEE54FD4FA5919E
:10074000B4918FB7F894EC91611126C030953E2397
:100750003C938FBF08952730A9F02830C9F024308A
:1007600049F7809180008F7D03C0809180008F7752
:1007700080938000DFCF84B58F7784BDDBCF84B5D5
:100780008F7DFBCF8091B0008F778093B000D2CF68
:100790008091B0008F7DF9CF3E2BDACFCF93DF93DE
:1007A00090E0FC01E256FD4F249184549D4FFC01E2
:1007B00084918823D1F090E0880F991FFC01E357C2
:1007C000FE4FA591B491FC01EE54FD4FC591D4911B
:1007D00061110EC09FB7F8948C91E22FE0958E23A3
:1007E0008C932881E223E8839FBFDF91CF91089506
:1007F0008FB7F894EC91E22BEC938FBFF6CF1F9359
:10080000CF93DF93182FEB0161E00E94CE03209776
:1008100039F460E0812FDF91CF911F910C94820316
:10082000CF3FD10511F461E0F5CFE12FF0E0E956BB
:10083000FE4FE491E33031F140F4E130B1F0E230C9
:10084000E1F0C038D1057CF7E4CFE73029F1E8309A
:1008500059F1E430B1F7809180008062809380008C
:10086000D0938B00C0938A0004C084B5806884BD97
:10087000C7BDDF91CF911F91089584B5806284BD7B
:10088000C8BDF7CF80918000806880938000D093AE
:100890008900C0938800EDCF8091B000806880937C
:1008A000B000C093B300E5CF8091B0008062809328
:1008B000B000C093B400DDCF8E50806480937C0084
:1008C00080917A00806480937A0080917A0086FD1E
:1008D000FCCF809178009091790008953FB7F8940B
:1008E0008091A7029091A802A091A902B091AA02BA
:1008F00026B5A89B05C02F3F19F00196A11DB11D7B
:100900003FBFBA2FA92F982F8827BC01CD01620FB6
:10091000711D811D911D42E0660F771F881F991F71
:100920004A95D1F708958F929F92AF92BF92CF923E
:10093000DF92EF92FF926B017C010E946E044B01EB
:100940005C01C114D104E104F104B9F00E946E0409
:10095000681979098A099B09683E734081059105E8
:1009600080F321E0C21AD108E108F10888EE880E70
:1009700083E0981EA11CB11CE4CFFF90EF90DF90A4
:10098000CF90BF90AF909F908F9008952FB7F8941D
:100990006091A3027091A4028091A5029091A60299
:1009A0002FBF089520915802260F3327331F21327D
:1009B0003105ECF420917C02FC0190E080E02430D1
:1009C00069F082E00895A09158022191AC01485C41
:1009D0005D4FA40FB52FB11D2C930196861798F388
:1009E00080915802680F6093580280E0089581E07A
:1009F000089508958FEF9FEF08958FEF9FEF08956B
:100A00008091310290E09195819591090895CF935D
:100A1000DF93CB01EA01642F0E94D204CE01DF9163
:100A2000CF910895CF93DF931F92CDB7DEB769833F
:100A300061E0CE0101960E94D20481E090E00F9027
:100A4000DF91CF9108950895CF93DF93EC018C85CA
:100A5000882319F0719561957109798768872881D4
:100A600077FD13C03FEF369FC001379F900D1124D3
:100A700064E670E00E947229822F0E94FF0360E00A
:100A80008981DF91CF910C94820331E0369FC001C0
:100A9000379F900D961B112464E670E00E94722926
:100AA0008FEF90E0AC01461B570BBA01822F0E94DA
:100AB000FF0361E0E5CFCF93DF93EC01E989FA8989
:100AC00080819F89892349F00E946E04688F798F05
:100AD0008A8F9B8FDF91CF9108950E946E046C8F57
:100AE0007D8F8E8F9F8F81E089A318A20E94C604FC
:100AF00068A779A78AA79BA7EDCFFC01838D20E08B
:100B000031E0281B31094CE0429FC001439F900D0A
:100B1000112465E070E00E9472296E5F7F4F072EFE
:100B2000000C880B990B0C949304AF92BF92CF9258
:100B3000DF92EF92FF920F931F93CF93DF93FC010D
:100B40005B0170E060E01FB7C685D785058590E042
:100B500080E02881202391F00196238D348D281781
:100B60003907B8F7CB01DF91CF911F910F91FF901B
:100B7000EF90DF90CF90BF90AF90089583899489D4
:100B80000197F1F7E588F68888E090E0D7011197A2
:100B9000F1F7C92ED12CD594C7949C2D38813023E0
:100BA00009F09068815091F7C789D08D2197F1F7AE
:100BB0001FBF6F5F7F4FD5019D935D01461757079C
:100BC00009F0C1CFCFCFFC01E05CFF4FE081DC0139
:100BD000AF5BBF4F2C91E21730F4E80FF92FF11DF6
:100BE000878D90E008958FEF9FEF0895CF93DF9367
:100BF000DC01A05CBF4FEC91EC01CF5BDF4F2881A3
:100C0000E21758F421E02E0F2C93E80FF92FF11D75
:100C1000878D90E0DF91CF9108958FEF9FEFFACF0E
:100C2000CF92DF92EF92FF920F931F93CF93DF93B8
:100C30006C01EB017B01E40EF51E10E000E0CE1527
:100C4000DF0561F06991D601ED91FC910190F08191
:100C5000E02DC6010995080F191FF1CFC801DF91DA
:100C6000CF911F910F91FF90EF90DF90CF9008955B
:100C7000CF93DF93DC01AC59BF4FEC91EC01CD5920
:100C8000DF4F2881E21750F021E030E0FC01338390
:100C9000228390E080E0DF91CF91089521E02E0F34
:100CA0002C93E80FF92FF11DED5BFF4F608381E07E
:100CB00090E0F1CFFC01EF5BFF4F208131979081F5
:100CC000422F491B550BCA0108950F931F93DC0156
:100CD00013961C921E92129708EE13E020E030E06B
:100CE00014960D931D932D933C93179786E191E0F5
:100CF00011969C938E931C966C931C971D964C9307
:100D00001D9782E01E968C931E9784E690E0509685
:100D10009C938E931F9780E2DF968C93DF97FD0163
:100D2000E05CFF4F108231961082319698E09083FC
:100D3000B19680833196108231961082319683E18C
:100D400097E091838083329682E697E09183808357
:100D5000329685E297E09183808332968BE497E028
:100D600091838083329687E397E0918380833296E4
:100D700081E497E09183808370E0FB01E454FD4FB0
:100D8000849162567D4FFB01649157966C935797FF
:100D900090E0880F991FFC01EE54FD4F259134918E
:100DA00052963C932E935197FC01E357FE4F2591A9
:100DB000349154963C932E935397FC01E859FF4F7E
:100DC0008591949156969C938E93559750E0FA0195
:100DD000E454FD4F849142565D4FFA0144915E9672
:100DE0004C935E9790E0880F991FFC01EE54FD4FE5
:100DF0002591349159963C932E935897FC01E357D3
:100E0000FE4F259134915B963C932E935A97FC01AB
:100E1000E859FF4F859194915D969C938E935C97D2
:100E20001F910F910895FC012FB7F894A189B28901
:100E30008C919789909598239C93A389B4898C91E0
:100E40009789892B8C932FBF0895FC012FB7F894B5
:100E5000A08DB18D8C91968D909598239C93A28DA9
:100E6000B38D8C91968D892B8C932FBF0895FC01A7
:100E7000A589B6899C918789982381E009F480E04F
:100E80000895FC01A48DB58D9C91868D982381E0F9
:100E900009F480E00895FC01A28DB38D9C91868DAC
:100EA000809589238C938685968D008CF18DE02D1D
:100EB000823021F48081982B9083089580819095D1
:100EC0009823FACFFC01A389B4899C9187898095E6
:100ED00089238C93868597890188F289E02D823059
:100EE00021F48081982B9083089580819095982398
:100EF000FACF08950F931F93CF93DF93EC0188856A
:100F00009985892BD9F40E946E040C811D812E8154
:100F10003F81DC01CB01801B910BA20BB30B8095B1
:100F20009095A095B0958827B7FD83959927AA2716
:100F3000BB27DF91CF911F910F9108950E94C604A6
:100F4000E4CF0F931F93CF93DF93EC014883598332
:100F50006A837B8381E090E0998788870E94C6043A
:100F6000088119812A813B81DC01CB01800F911F0F
:100F7000A21FB31F8C839D83AE83BF83DF91CF916C
:100F80001F910F91089590E080E0089590E080E037
:100F90000895FC0101900020E9F73197AF01481B4B
:100FA000590BBC018CED92E00C945A028F929F92E7
:100FB000AF92BF920F931F93CF93DF93CDB7DEB75E
:100FC000A1970FB6F894DEBF0FBECDBF19A2423075
:100FD00008F44AE08E010F5D1F4F842E912CB12C36
:100FE000A12CA50194010E942D29E62FB901CA0167
:100FF000EA30F4F4E05DD801EE938D01232B242B2D
:10100000252B79F790E080E0109719F0CD010E9430
:10101000C907A1960FB6F894DEBF0FBECDBFDF9112
:10102000CF911F910F91BF90AF909F908F90089597
:10103000E95CE1CFBC0190E080E04AE00C94D60787
:10104000CF93DF93D0E0C0E0009719F00E94C9076A
:10105000EC0186E491E00E94C9078C0F9D1FDF918F
:10106000CF910895CF93DF93682F70E090E080E0F8
:101070004AE00E94D607EC0186E491E00E94C9078D
:101080008C0F9D1FDF91CF910895009711F00C9464
:10109000C90790E080E00895CF93DF930E94470353
:1010A000EC0186E491E00E94C9078C0F9D1FDF913F
:1010B000CF9108955F926F927F928F929F92AF929D
:1010C000BF92CF92DF92EF92FF920F931F93CF9335
:1010D000DF93CDB7DEB7E2970FB6F894DEBF0FBE51
:1010E000CDBF8091B803882309F488C0FE013196F2
:1010F000CE01C396DF018F011C9211961C921197AD
:1011000012961C92129714961C921E921397159683
:10111000A817B90789F79090B6032AE0291508F4B3
:101120006DC04091B9032091B4033091B503F12C07
:10113000E12C84E6C82ED12CA92CB12C95E0892E67
:10114000E914D8F5D90111966C9011975C9012961C
:101150007C90442371F14436A8F4649EC0011124AC
:10116000B6010E945E29662E459DC0011124B6017C
:101170000E945E29562E479DC0011124B6010E948F
:101180005E29762E618250827282BFEFEB1AFB0AD3
:10119000C701B5010E947229889EB001899E700D19
:1011A0001124600F711F7483638335962B5F3F4F4B
:1011B000C7CF712C512C612CE5CF61E08091B70332
:1011C0000E94CE0360E08091B7030E9482038BEE01
:1011D00090E00197F1F7F8948091B7038B3009F410
:1011E00079C010F5853009F44CC085E294E00E9486
:1011F0004C0878948BEE90E00197F1F7E2960FB6E9
:10120000F894DEBF0FBECDBFDF91CF911F910F913C
:10121000FF90EF90DF90CF90BF90AF909F908F9016
:101220007F906F905F9008958C3009F47CC08D3072
:10123000E1F68091B60390E0F8010197D0F20080CA
:1012400005D0018003D0028001D017C008D007D09C
:1012500006D005D004D003D002D001D008952D9A35
:10126000001C0000000008F02D98000000000000A5
:101270000000000008F42D9808950380F481E02D0B
:10128000DCCF8091B60390E0F801019708F4B1CF6C
:10129000008005D0018003D0028001D017C008D0A3
:1012A00007D006D005D004D003D002D001D00895D5
:1012B0005D9A001C0000000008F05D98000000002E
:1012C00000000000000008F45D9808950380F48198
:1012D000E02DDBCF8091B60390E0F801019708F490
:1012E00088CF008005D0018003D0028001D017C0D4
:1012F00008D007D006D005D004D003D002D001D04A
:1013000008952B9A001C0000000008F02B980000A4
:10131000000000000000000008F42B9808950380EE
:10132000F481E02DDBCF8091B60390E0F8010197C6
:1013300008F45FCF008005D0018003D0028001D087
:1013400017C008D007D006D005D004D003D002D0F3
:1013500001D008952C9A001C0000000008F02C9881
:101360000000000000000000000008F42C98089520
:101370000380F481E02DDBCFBF92CF92DF92EF921A
:10138000FF920F931F93CF93DF931091B6038FEFCC
:10139000810F8A3028F08CEF93E00E944C08FFCF39
:1013A000C12FD0E025E0129FC00111240E94932993
:1013B0007C016C01FC01B12E0D2F10821182128272
:1013C0001482138235962197C1F7F092B503E0920B
:1013D000B40321E030E0E5E0C9016B2D702F0E94DD
:1013E0007229E89FA001E99F500D11244E0D5F1D49
:1013F000D60114965C934E9313972F5F3F4FB5E041
:10140000CB0ED11C8FEF820F811730F381E08093D8
:10141000B8038CED93E00E9447038AEB93E00E94AF
:10142000450886ED93E00E9447036091B60370E0A3
:1014300090E080E04AE00E94D60780ED93E00E94B1
:101440004C088091B803882301F180E095E0209159
:10145000B6038217D0F4899F90011124E091B40360
:10146000F091B503E20FF31F1182E091B403F09104
:10147000B503E20FF31F1082E091B403F091B503BE
:10148000E20FF31F12828F5FE2CFDF91CF911F91A6
:101490000F91FF90EF90DF90CF90BF900C945A087F
:1014A0008F929F92AF92BF92CF92DF92EF92FF9274
:1014B000CF93DF932091AD0321110EC081EB93E018
:1014C000DF91CF91FF90EF90DF90CF90BF90AF90E2
:1014D0009F908F900C944C08411551056105710542
:1014E00009F445C06A017B01EC010E94C6044B016E
:1014F0005C019E0150E040E060E472E48FE090E027
:101500000E942D295695479537952795220F331F11
:10151000220F331FE90125970E94C6046819790933
:101520008A099B096C157D058E059F0588F461E08D
:101530008091AC030E948203CE010197F1F760E035
:101540008091AC030E948203CE010197F1F7E4CFB2
:1015500061E08091AC03DF91CF91FF90EF90DF903D
:10156000CF90BF90AF909F908F900C948203DF91AB
:10157000CF91FF90EF90DF90CF90BF90AF909F9072
:101580008F900895CF93DF932091570430915804A2
:101590002115310531F04091590450915A04452BE1
:1015A00031F48CE593E0DF91CF910C944C08EB0182
:1015B000BC01C9010E942405BE018091590490918B
:1015C0005A04DF91CF910C942405EF92FF920F9370
:1015D0001F93CF93DF93EC010E94C6047E0124E4A5
:1015E000E20EF11CD7010D911D912D913C91601BD4
:1015F000710B820B930BFE01E85BFF4F00811181A1
:1016000022813381061717072807390708F066C0BB
:101610008C81882309F462C0F89488819981DC0167
:10162000ED91FC910190F081E02D6D81099510E024
:1016300000E088819981DC01ED91FC910084F185C5
:10164000E02D09950F5F1F4F892BB1F040E250E06C
:10165000BE016C5E7F4F888199810E9495057894C8
:10166000803278F483E691E0DF91CF911F910F9162
:10167000FF90EF900C944C080F3F1007D1F680E0DC
:10168000EECF8C898CAB8D898DAB8E898EAB8F899B
:101690008FAB888D88AF898D89AF8A8D8AAF8B8D0E
:1016A0008BAF8C8D8CAF8D8D8DAF8E8D8EAF8F8DE2
:1016B0008FAFFE01E05CFF4F88A18083319689A146
:1016C000808331968AA1808331968BA180830E948A
:1016D000C604F7016083718382839383DF91CF9186
:1016E0001F910F91FF90EF900895EF92FF921F933B
:1016F000CF93DF93DC0114961C91112369F1EC0167
:10170000F89488819981DC01ED91FC910190F08140
:10171000E02D6D810995F12CE12C88819981DC0106
:10172000ED91FC910084F185E02D0995BFEFEB1A56
:10173000FB0A892BC1F048E050E0BE01605F7F4F9B
:10174000888199810E9495057894883090F489E386
:1017500091E00E944C0810E0812FDF91CF911F9102
:10176000FF90EF900895BFEFEB16FB06B1F680E017
:10177000EBCF888999899827892798279B8F8A8F0B
:101780008A899B899827892798279D8F8C8F8C8998
:101790009D899827892798279F8F8E8F8E899F896B
:1017A00098278927982799A388A30E94C6046AA32B
:1017B0007BA38CA39DA3D0CF1F93CF93DF9385ED05
:1017C0008093BC008091340290913502A091360242
:1017D000B09137020796A11DB11D23E0B695A795DC
:1017E000979587952A95D1F72091BC0024FD03C0D9
:1017F00010927C0252C040913402509135026091A7
:10180000360270913702452B462B472B69F3009720
:10181000A105B10541F02AE22A95F1F700C0019730
:10182000A109B109E1CF80913302C1E0C093320236
:10183000882399F1D091B8001091BA008091BC0032
:101840008A7B8093BC0060E082E10E94820360E0BA
:1018500083E10E94820310927C02C0937E02109268
:101860007D0261E082E10E94820361E083E10E94E7
:1018700082038091B9008E7F8093B9008091B90076
:101880008D7F8093B90088E48093B80085E48093CD
:10189000BC001093BA00D093B800DF91CF911F9194
:1018A0000895FF920F931F93CF93DF93CDB7DEB7C9
:1018B0002A970FB6F894DEBF0FBECDBF8C01F62E6F
:1018C000FC014785508970E060E021E030E0CE0106
:1018D00001960E94A107F801EB59FF4F108235963F
:1018E0000190F081E02DC8010995F5E0FA95F1F736
:1018F0000000F801EA59FF4F0190F081E02DC80186
:10190000099585E08A95F1F70000FF20B1F0BE014E
:101910006F5F7F4FC8010E94B80C811116C082E032
:1019200090E02A960FB6F894DEBF0FBECDBFDF91D0
:10193000CF911F910F91FF900895F801E459FF4F47
:101940000190F081E02DC8010995E5E0EA95F1F7F5
:101950000000F801E859FF4F0190F081E02DC80127
:101960000995F5E0FA95F1F7000090E080E0D9CF15
:10197000EF92FF920F931F93CF93DF93EC018B01B4
:10198000FC01E459FF4F0190F081E02D09957E01A3
:1019900080E7E80EF11CD701ED91FC91CE0109958D
:1019A000811111C0C8010E947A078823A1F360E069
:1019B000CE010E94510C80E0DF91CF911F910F91D9
:1019C000FF90EF90089581E0F7CF8F929F92AF92B2
:1019D000BF92CF92DF92EF92FF920F931F93CF931C
:1019E000DF93CDB7DEB72A970FB6F894DEBF0FBEF0
:1019F000CDBF8C01E62EDC011F964D915C9170E00D
:101A000060E021E030E0CE0101960E94A10798E05D
:101A1000F92E6801BAE6CB0ED11C5801E6E6AE0EEF
:101A2000B11C4801F8E68F0E911CD601ED91FC9196
:101A3000C8010995D401E7FED501ED91FC91C801DB
:101A40000995B5E0BA95F1F70000BE016F5F7F4FD1
:101A5000C8010E94B80C811117C082E0E82EF12C59
:101A6000C7012A960FB6F894DEBF0FBECDBFDF9137
:101A7000CF911F910F91FF90EF90DF90CF90BF908B
:101A8000AF909F908F900895E5E0EA95F1F7000000
:101A9000EE0CCE0101960E947A07882329F061E0BE
:101AA000C8010E94510CD9CFFA94F110BECFD601D3
:101AB000ED91FC91C8010995F801E859FF4F01909B
:101AC000F081E02DC8010995B5E0BA95F1F7000065
:101AD000BE016F5F7F4FC8010E94B80C882309F4D4
:101AE000BCCFF801E259FF4F0190F081E02DC80111
:101AF000099591E0811101C090E0E92EE5E0EA95B9
:101B0000F1F70000D601ED91FC91C8010995A8CF2D
:101B10001F93CF93DF93EC01162FFC01EA59FF4F7F
:101B20000190F081E02D099585E08A95F1F700009C
:101B3000FE01E659FF4F0190F081E02DCE0109959D
:101B400085E08A95F1F70000612FCE01DF91CF91FA
:101B50001F910C94E50CFF920F931F93CF93DF938B
:101B6000CDB7DEB72A970FB6F894DEBF0FBECDBF54
:101B70008C01F62EFC014785508970E060E021E081
:101B800030E0CE0101960E94A107F801E659FF4F0F
:101B90000190F081E02DC8010995F5E0FA95F1F783
:101BA0000000F801E859FF4F0190F081E02DC801D5
:101BB000099585E08A95F1F70000BE016F5F7F4FC0
:101BC000C8010E94B80C882301F1E5E0EA95F1F71D
:101BD0000000F801EA59FF4F0190F081E02DC801A3
:101BE0000995F5E0FA95F1F700006F2DC8010E9404
:101BF000E50C2A960FB6F894DEBF0FBECDBFDF917D
:101C0000CF911F910F91FF90089582E090E0F1CF66
:101C10002F923F924F925F926F927F928F929F92FC
:101C2000AF92BF92CF92DF92EF92FF920F931F93EA
:101C3000CF93DF93CDB7DEB72F970FB6F894DEBF03
:101C40000FBECDBF8C014B87FC01E05CFF4F1082C3
:101C50006C0181E4C80ED11CD6011C92660F6F5F27
:101C6000B5968081882309F48DC0C8010E94AB0D10
:101C7000892B09F068C07801512C5801BAE6AB0EE7
:101C8000B11C1801E8E62E0E311C3801F0E76F0E8A
:101C9000711CC80182599F4F9D878C87AB85A150CD
:101CA000BB0B4D01F801EA59FF4FFF87EE87FB851B
:101CB0005F1609F448C0D801DF968C91DF9758165B
:101CC00008F041C0F701178E1F964D915C9170E0AE
:101CD00060E021E030E0CE0101960E94A10788E09B
:101CE000482ED7015F968C915F97880F5F968C93F3
:101CF000D501ED91FC91C8010995D101ED91FC91BF
:101D0000C8010995B5E0BA95F1F70000BE016F5F13
:101D10007F4FC8010E94B80C8823A9F0E5E0EA953E
:101D2000F1F70000D301ED91FC91C80109958111F3
:101D30002DC0CE0101960E947A07882399F361E0B5
:101D4000C8010E94510C61E0C8010E94510CD601EB
:101D50008C912F960FB6F894DEBF0FBECDBFDF91EA
:101D6000CF911F910F91FF90EF90DF90CF90BF9098
:101D7000AF909F908F907F906F905F904F903F902B
:101D80002F900895C8010E94880D72CFAC85BD8543
:101D9000ED91FC91C8010995882321F0F701878D09
:101DA0008160878F4A9441109CCFD501ED91FC91C1
:101DB000C8010995C701801B910BAE85BF858816A8
:101DC000990609F4D101ED91FC91C8010995B5E09E
:101DD000BA95F1F70000BE016F5F7F4FC8010E9406
:101DE000B80C882309F4AFCFE5E0EA95F1F70000DD
:101DF000D301ED91FC91C8010995811107C0CE0175
:101E000001960E947A07882399F399CFB5E0BA9595
:101E1000F1F70000D501ED91FC91C8010995F6019B
:101E200080818F5F80835394FFEFEF1AFF0A3FCFCB
:101E3000EF92FF921F93CF93DF93EC01FC01EE5BD7
:101E4000FF4F6081660FB39680818823A9F0CE0191
:101E50000E94AB0D12E08130910519F0029781F4D8
:101E600014E061E0CE010E94510C812FDF91CF91EF
:101E70001F91FF90EF900895CE010E94880DEACF48
:101E800010E07E0184E6E80EF11CF701808118174E
:101E900080F4FE01E10FF11DED5BFF4F6081CE018B
:101EA0000E94E50C8130910531F00297C9F21F5F65
:101EB000ECCF10E0D6CF13E0D4CF0F931F93CF9386
:101EC000DF93162F072FC0ECD3E0AF81B885FD015B
:101ED000EE5BFF4F9C859083B2961082ED91FC9152
:101EE00011970190F081E02D682FCD0109958F8128
:101EF0009885DC01ED91FC910190F081E02D602F3F
:101F000009958F819885DC01ED91FC910190F0811C
:101F1000E02D612F09958F8198850E94180F888385
:101F2000DF91CF911F910F9108950F931F93CF933E
:101F3000DF93EC018F8198852C85FC01EE5BFF4FD0
:101F400020838C599F4FDC011C928F819885DC0186
:101F5000ED91FC910190F081E02D09958F8198859C
:101F60000E94180F888342E06C858F8198850E94BB
:101F7000080E8F819885DC01ED91FC910284F38538
:101F8000E02D099500E0182F8F819885DC01ED91F7
:101F9000FC910284F385E02D0995802B912BDF9134
:101FA000CF911F910F910895CF93DF93EC018F8113
:101FB00098852C85FC01EE5BFF4F20838C599F4F49
:101FC000DC011C928F819885DC01ED91FC910190E0
:101FD000F081E02D09958F8198850E94180F8883E4
:101FE00041E06C858F8198850E94080E8F819885CD
:101FF000DC01ED91FC910284F385E02D0995DF91E0
:10200000CF9108951F93CF93DF93EC01142F8F810D
:1020100098852C85FC01EE5BFF4F20838C599F4FE8
:10202000DC011C928F819885DC01ED91FC9101907F
:10203000F081E02D09958F819885DC01ED91FC916F
:102040000190F081E02D612F09958F8198850E9484
:10205000180F8883DF91CF911F9108950F931F93DD
:10206000CF93DF93EC010E94C6047F8B6E8B63E1FC
:10207000CE010E94D40F8770C9F48B899C89892B6B
:10208000B1F30E94C6042E893F89621B730B8B89B2
:102090009C898617970758F781E08D8B0FEF1FEF0C
:1020A000C801DF91CF911F910F9108956EE1CE018C
:1020B0000E94950F8C0141E06BE0CE010E9402105E
:1020C000EFCFCF92DF92EF92FF920F931F93CF93B8
:1020D000DF93CDB7DEB728970FB6F894DEBF0FBEFB
:1020E000CDBF8C01DC0156968D919C915797FC01D8
:1020F000EE5BFF4F29E220838C599F4FFC01108239
:1021000056968D919C91DC01ED91FC910190F081AE
:10211000E02D64E90995F801868997890E94180FD6
:10212000D80119968C93199748E069E256968D91DB
:102130009C910E94080EFE0131967F016E01F9E02C
:10214000CF0ED11CD80156968D919C91DC01ED915A
:10215000FC910284F385E02D0995F70181937F01BD
:10216000EC15FD0579F789819A81D80151969C93E8
:102170008E9350978B819C811B969C938E931A977C
:102180008D819E811D969C938E931C978F8198853F
:102190001F969C938E931E970E94C604F801628B33
:1021A000738B848B958B28960FB6F894DEBF0FBE89
:1021B000CDBFDF91CF911F910F91FF90EF90DF90F6
:1021C000CF900895CF93DF93EC018E899F89FC0116
:1021D000EE5BFF4F29E220838C599F4FDC011C925C
:1021E0008E899F896068DC01ED91FC910190F081FE
:1021F000E02D09958E899F890E94180F898741E0FB
:1022000069E28E899F890E94080E8E899F89DC0170
:10221000ED91FC910284F385E02D0995DF91CF913A
:1022200008950F931F93CF93DF9300D0CDB7DEB700
:102230008C01606869834A83DC0156968D919C917C
:102240005797FC01EE5BFF4F29E220838C599F4F8B
:10225000FC01108256968D919C91DC01ED91FC91D0
:102260000280F381E02D42E050E0BE016F5F7F4FBE
:102270000995F801868997890E94180FD801199647
:102280008C930F900F90DF91CF911F910F91089534
:10229000CF93DF93EC0160E00E94E210482F4C7F67
:1022A00060E0CE01DF91CF910C94111143E060E02A
:1022B0000C94111141E060E00C9411112F923F92A7
:1022C0004F925F926F927F928F929F92AF92BF9246
:1022D000CF92DF92EF92FF920F931F93CF93DF93F2
:1022E000EC010E945A1163E070E080E090E00E94EF
:1022F0009304CE010E945611CE010E947D05CE01AD
:102300000E946110EA84FB840C851D858E849F8465
:1023100048885988CE010E944811CE010E945A1166
:1023200063E070E080E090E00E949304CE010E94A0
:10233000561161E08C8D0E94CE0360E08C8D0E946E
:102340008203CE010E947D05CE010E946110AA8405
:10235000BB84CC84DD846E847F8428883988CE0158
:102360000E944811EA18FB0821E0E2162AEFF20663
:1023700008F099C0FB86EA860C191D0901308AEF26
:10238000180708F093C01D870C87C40186199709A8
:1023900081302AEF920708F08CC09F878E87421801
:1023A000530881E048168AEF580608F085C0598A1C
:1023B000488A2A853B850C851D85CE84DF84E88884
:1023C000F98821308AEF380710F01B861A86AFEFA4
:1023D000B0E00E944F292881398150E040E00E94FE
:1023E0002D2929013B872A879801AFEFB0E00E9491
:1023F0004F292A813B8150E040E00E942D2989012C
:102400003D872C879601AFEFB0E00E944F292C81C9
:102410003D8150E040E00E942D2969013F872E87D1
:102420009701AFEFB0E00E944F292E813F8150E02D
:1024300040E00E942D29C901398B288B2FEF4216CD
:10244000510429F020F02FEF30E03B872A870F3F1F
:10245000110529F020F02FEF30E03D872C872FEF7A
:10246000C216D10429F020F02FEF30E03F872E87ED
:102470008F3F910529F020F08FEF90E0998B888BAA
:10248000DF91CF911F910F91FF90EF90DF90CF9050
:10249000BF90AF909F908F907F906F905F904F9084
:1024A0003F902F9008951B861A8666CF1D861C8646
:1024B0006CCF1F861E8673CF198A188A7ACF2F9207
:1024C0003F924F925F926F927F928F929F92AF92C4
:1024D000BF92CF92DF92EF92FF920F931F93CF9311
:1024E000DF93CDB7DEB729970FB6F894DEBF0FBEE6
:1024F000CDBF85E10E945C0427E133E1DC010E944D
:102500008629683678488E41910580F564E670E04A
:1025100080E090E00E94930460E08EE00E94CE0391
:1025200060E08FE00E94CE0360E080E10E94CE0375
:1025300060E081E10E94CE0360E088E00E94CE036B
:1025400060E086E00E94CE0360E082E00E94CE035D
:1025500060E083E00E94CE0360E082E10E94CE034F
:1025600060E083E10E94CE030C94000089E394E0D4
:102570009E838D8329E2822E24E0922E03E414E0D0
:102580009A838983E981FA8121913191FA83E983E0
:102590003C832B832115310591F141E060E8C901AD
:1025A0000E94021041E06FEF8B819C810E9402101B
:1025B00040E060E08B819C810E940210AB81BC8175
:1025C00058964C91589761E9CD010E94021041E064
:1025D00060E08B819C810E94021040E06FEF8B8154
:1025E0009C810E94021040E060E88B819C810E94E7
:1025F000021041E060E08B819C810E940210E98121
:10260000FA810E171F0709F0BDCF2DE434E03C839B
:102610002B8347E554E0FF24F39463E070E003E28A
:1026200010E021E030E0AB81BC81ED91FD91BC83F5
:10263000AB833097B1F180A1811133C011A2F0A218
:10264000108E118E128E138E148E158E168E178E7E
:10265000D18098EF9D0D963008F40EC392EF9D0D3A
:10266000963008F4A8C2B7E0BD1508F007C3A485EA
:10267000B5859C918089809589238C93CB010197A6
:10268000F1F7A485B5858C919089892B8C93C8012D
:102690000197F1F7A485B5859C9180898095892360
:1026A0008C93EB81FC814E175F0709F0BCCF0E9431
:1026B0006E046B017C012FE234E03C832B8339876D
:1026C0002887A885B9858D919D91B987A88700979E
:1026D00011F00E945A11E885F985E953F44089F711
:1026E0000E946E046C197D098E099F09643C794033
:1026F00081059105A8F33FE2632E34E0732ED301E8
:102700008D919D913D01009711F00E945611E88531
:10271000F985E615F70599F70E946E046B017C01B7
:102720008091DB0281118BC280916B0490916C04CB
:10273000009709F482C20E94750BF1E0F88780913E
:102740006D0490916E04009709F47CC20E94E50A22
:1027500021E02F830E946E046C197D098E099F0968
:102760006838734181059105A8F30FE214E0D801A0
:102770008D919D918D01009711F00E9461100615B9
:102780001705A9F70FE214E0F801819191918F01EB
:10279000009711F00E94481106151705A9F70E942D
:1027A0006E046B017C010FE214E0D8018D919D91C4
:1027B0008D01009711F00E945A1106151705A9F70F
:1027C0000E946E046C197D098E099F09643C794052
:1027D00081059105A8F393E3E92E94E0F92E29E20F
:1027E000422E24E0522EF20186819781009789F0D3
:1027F0000E945611D20116960D911C9161E0F801CC
:10280000848D0E94CE0360E0D8015C968C910E947A
:102810008203B2E04B0E511CE414F50421F70E9430
:102820006E046B017C018091DB02811116C0E8858A
:10283000E11108C080916B0490916C04009711F035
:102840000E94750BFF81F11108C080916D04909179
:102850006E04009711F00E94E50A0E946E046C1944
:102860007D098E099F096838734181059105A8F398
:1028700022242A94312CD40116960D90BC91A02DBF
:10288000B987A887AB2B09F445C10E94C604E88527
:10289000F9850289138924893589601B710B820BA4
:1028A000930B633471058105910518F0CF010E94E7
:1028B0005E11A885B9851A96AD90BC90F40106808A
:1028C000F781E02DF987E8870E94C604A885B985BD
:1028D00052960D911D912D913C915597601B710B56
:1028E000820B930B633471058105910518F0CD01BE
:1028F0000E945E11E885F985C484D584D4011696BA
:102900000D90BC91A02DB987A8870E94C604E885C8
:10291000F9850289138924893589601B710B820B23
:10292000930B633471058105910518F0CF010E9466
:102930005E11A885B9851E96ED90FC90F401068085
:10294000F781E02DF987E8870E94C604A885B9853C
:1029500052960D911D912D913C915597601B710BD5
:10296000820B930B633471058105910518F0CD013D
:102970000E945E11E885F98500891189D4011696B7
:102980008D919C910E946110F4010680F781E02DE9
:10299000F987E88782859385A81AB90AF1E0AF160E
:1029A000FAEFBF0608F050C1A885B9851B96BC9206
:1029B000AE921A97A885B9851C968D919C91C81ADC
:1029C000D90AB1E0CB16BAEFDB0608F042C1E885C0
:1029D000F985D586C486E885F98586859785E81AC0
:1029E000F90AF1E0EF16FAEFFF0608F039C1A88501
:1029F000B9851F96FC92EE921E97A885B9855096D0
:102A00008D919C91081B190B0130BAEF1B0708F040
:102A10002CC1E885F985118B008BE885F985228525
:102A20003385AFEFB0E00E944F292081318150E023
:102A300040E00E942D296901A885B9851B963C9329
:102A40002E931A971C962D913C91AFEFB0E00E9407
:102A50004F29E885F9852281338150E040E00E94CA
:102A60002D295901A885B9851D963C932E931C9755
:102A70001E962D913C91AFEFB0E00E944F29E88562
:102A8000F9852481358150E040E00E942D2989019B
:102A9000A885B9851F963C932E931E9750962D912D
:102AA0003C91AFEFB0E00E944F29E885F98526817F
:102AB000378150E040E00E942D29C901A885B985E1
:102AC00051963C932E935097BFEFCB16D10429F02B
:102AD00020F0E885F98533862286FFEFAF16B10432
:102AE00039F030F0A885B9851D963C922E921C973E
:102AF0000F3F110529F020F0E885F98537862686F5
:102B00008F3F910539F030F0A885B98551963C92F8
:102B10002E925097B2E08B0E911C8414950409F00C
:102B2000AACEEB81FC8181919191FC83EB8300978C
:102B300011F00E9448112B813C812615370589F739
:102B4000AD81BE81ED91FD91BE83AD83FC83EB83AE
:102B5000309789F0CF010E942E10AB81BC81129674
:102B60009C938E9311970E94C604EB81FC81638332
:102B70007483858396832D813E8189819A8128176C
:102B80003907F1F629960FB6F894DEBF0FBECDBF18
:102B9000DF91CF911F910F91FF90EF90DF90CF9039
:102BA000BF90AF909F908F907F906F905F904F906D
:102BB0003F902F90089581E0E090DA02A4E0AE15F6
:102BC00088F0A1E0AE0DA093DA02AE2DB0E0AA0F1E
:102BD000BB1FA053BD4FED93FC93AD2DB0E0A454AB
:102BE000BD4FEC92E0906800D901082E01C0AA0FF9
:102BF0000A94EAF7AE29A0936800D90101C0AA0F90
:102C00009A95EAF7811107C080916B00A82BA093D9
:102C10006B0083B12CCD813049F480916C00A82BDE
:102C2000A0936C0086B18093BB0221CD80916D0092
:102C3000A82BA0936D0089B11ACD188680CD1F8274
:102C4000188688CD1F8286CDE885F9851386128681
:102C5000B1CEA885B9851D961C921E921C97BBCE3D
:102C6000E885F98517861686C8CEA885B985519658
:102C70001C921E925097D1CE80E09ECF9D2D82E077
:102C80009BCF8F929F92AF92BF92CF92DF92EF92A3
:102C9000FF920F931F93CF93DF93EC018B01690198
:102CA0008D899E89FC01EE5BFF4F2B8920838C5917
:102CB0009F4FDC011C927B014B01840E951E5B0132
:102CC0008D899E89A814B90459F0F50161915F01BD
:102CD000DC01ED91FC910190F081E02D0995F0CFA0
:102CE0000E94180F882321F089E491E00E942008B7
:102CF000C114D10419F14C2D6B898D899E890E94D4
:102D0000080E0C0D1D1D8D899E89DC01ED91FC9135
:102D10000084F185E02D0995892B81F00E151F05A2
:102D200069F08D899E89DC01ED91FC910284F38527
:102D3000E02D0995F70181937F01E5CF90E080E0D8
:102D4000DF91CF911F910F91FF90EF90DF90CF9087
:102D5000BF90AF909F908F900895EF92FF920F9346
:102D60001F93CF93DF93EC0182E790E00E949329B9
:102D70008C01488D6F890E9465061E8B0D8B8AE041
:102D8000E82EF12CF801F08AE78661E0C8010E9484
:102D9000510CED89FE89F08AE786DF01AE5BBF4FFB
:102DA0008B898C93EC59FF4F10828D899E890E94EC
:102DB000180F882351F08CE691E0DF91CF911F919D
:102DC0000F91FF90EF900C942008DF91CF911F910D
:102DD0000F91FF90EF900895AF92BF92CF92DF9244
:102DE000EF92FF920F931F93CF93DF93EC0182E753
:102DF00090E00E9493298C014D8D6C8D0E94650698
:102E00001F8B0E8B8AE0E82EF12CF801F08AE78602
:102E100061E0C8010E94510CEE89FF89F08AE786C3
:102E200062E1CE010E94E2108E01015E1F4F8D34DF
:102E3000E1F08434D1F08031C1F063E070E080E0F3
:102E400090E00E94930462E1CE010E94E2108D3472
:102E500061F0843451F0803141F083E191E00E94CF
:102E60004703C8010E942008FFCF81E0888FFB8CB8
:102E70004F2D61E0CE010E941111FB8EF98CEA8C7E
:102E80004F2D6FE0CE010E941111F98EEA8ECE0116
:102E90000E945A1163E070E080E090E00E94930489
:102EA000CE010E945611CE010E947D058AEE90E06F
:102EB0000E944703C8010E9420082E8D2150330B29
:102EC00049E0429F7001439FF00C112487010C5987
:102ED0001F4F6E01FDE6EF0EF11C5E01C8010E945E
:102EE000F328F50181935F010F5F1F4FE016F10694
:102EF000A9F79E01285F3F4F80E0F60191916F0195
:102F00008927E217F307C9F79885891310C088EC61
:102F100090E00E944C0881E0DF91CF911F910F91CA
:102F2000FF90EF90DF90CF90BF90AF90089580E03A
:102F300092E0998388839B838A839D838C8380E03E
:102F400094E09F838E8382E790E0E3CF1F920F92FD
:102F50000FB60F9211242F933F934F935F936F936C
:102F60007F938F939F93AF93BF93EF93FF938CEDDA
:102F700092E00E94D802FF91EF91BF91AF919F9193
:102F80008F917F916F915F914F913F912F910F9012
:102F90000FBE0F901F9018951F920F920FB60F92B1
:102FA00011242F938F939F93EF93FF93E091EC0263
:102FB000F091ED028081E091F202F091F30282FD46
:102FC0001BC090818091F5028F5F8F732091F60274
:102FD000821741F0E091F502F0E0E452FD4F958F49
:102FE0008093F502FF91EF919F918F912F910F9018
:102FF0000FBE0F901F9018958081F4CF1F920F92F3
:103000000FB60F9211242F933F938F939F93AF93FB
:10301000BF938091A3029091A402A091A502B091C8
:10302000A6023091A20223E0230F2D3758F5019616
:10303000A11DB11D2093A2028093A3029093A4022C
:10304000A093A502B093A6028091A7029091A80236
:10305000A091A902B091AA020196A11DB11D809371
:10306000A7029093A802A093A902B093AA02BF91CD
:10307000AF919F918F913F912F910F900FBE0F9025
:103080001F90189526E8230F0296A11DB11DD2CFDF
:103090001F920F920FB60F9211242F933F934F93CD
:1030A0005F936F937F938F939F93AF93BF93EF93B0
:1030B000FF938091B900887F803609F44AC0F0F50B
:1030C000883209F4A5C018F5803109F499C0B8F424
:1030D000882309F4F5C0883009F492C0FF91EF917C
:1030E000BF91AF919F918F917F916F915F914F9120
:1030F0003F912F910F900FBE0F901F901895883120
:1031000009F486C0803251F780937B0214C080346A
:1031100009F49BC040F48033B9F38833F9F6809307
:103120007B0285ECAEC0803509F483C0883509F494
:1031300094C0883499F60E94DC0BD0CF883909F40A
:103140008AC038F5883729F050F4883611F0803776
:1031500029F683E080937C0210927A0255C0883869
:1031600009F479C0803919F0803809F0B7CF80911F
:103170007A02803208F06FC0E0917A0281E08E0F0F
:1031800080937A028091BB00F0E0E65AFD4F808385
:103190003BC0803B39F0D0F4803A09F477C0883ADC
:1031A00009F09CCF84E080937C0210925902109227
:1031B0005802F0E0E0E009958091580281110FC0BB
:1031C00081E0809358021092380209C0803C09F4D3
:1031D000A8CF883C09F4A5CF883B09F07FCFE091C8
:1031E000590281E08E0F80935902F0E0E85CFD4FB8
:1031F00080818093BB00909159028091580229C030
:103200008091A1028093BB0085EC8093BC0066CFC7
:103210009091A00280919F02981758F5E091A0022A
:1032200081E08E0F8093A002F0E0E158FD4F808195
:10323000E9CFE091A00281E08E0F8093A0028091FF
:10324000BB00F0E0E158FD4F80839091A002809197
:103250009F029817C8F285E8D8CFE091A00281E0DC
:103260008E0F8093A0028091BB00F0E0E158FD4FEB
:10327000808380917E0281115ECF81E080937D0208
:1032800084EA8093BC0010927C0228CF85EC809366
:10329000BC0010927C0280917A02803230F4E0917E
:1032A0007A02F0E0E65AFD4F108260917A0270E0F7
:1032B0008AE592E0F0E0E0E0099510927A020ECF04
:1032C00010927B0238CF1F920F920FB60F921124EB
:1032D0002F933F934F935F936F937F938F939F931E
:1032E000AF93BF93EF93FF93E091BE02F0E0EE0F38
:1032F000FF1FE053FD4F80819181009711F00E94E4
:103300005B05FF91EF91BF91AF919F918F917F915D
:103310006F915F914F913F912F910F900FBE0F9042
:103320001F9018951F920F920FB60F9211242F9392
:103330003F934F935F936F937F938F939F93AF933D
:10334000BF93CF93EF93FF9386B1C091BB02C82781
:103350008093BB02C0FF0DC0E091CA02F0E0EE0F07
:10336000FF1FE053FD4F80819181009711F00E9473
:103370005B05C2FF0DC0E091CC02F0E0EE0FFF1F35
:10338000E053FD4F80819181009711F00E945B0511
:10339000C4FF0DC0E091CE02F0E0EE0FFF1FE0533E
:1033A000FD4F80819181009711F00E945B05FF9194
:1033B000EF91CF91BF91AF919F918F917F916F913D
:1033C0005F914F913F912F910F900FBE0F901F90E3
:1033D00018951F920F920FB60F9211242F933F93BF
:1033E0004F935F936F937F938F939F93AF93BF930D
:1033F000EF93FF93E091C402F0E0EE0FFF1FE05364
:10340000FD4F80819181009711F00E945B05FF9133
:10341000EF91BF91AF919F918F917F916F915F914C
:103420004F913F912F910F900FBE0F901F901895C5
:103430001F920F920FB60F9211242F933F934F9329
:103440005F936F937F938F939F93AF93BF93EF930C
:10345000FF9380912E0281113FC086E08093B100DE
:103460001092B2004091910330E020E08FEF56E0DF
:1034700061E02417C0F4529FF001539FF00D112416
:10348000E758FC4F908196FF0BC09481A281B381D5
:103490007C91972B9C9365839181981708F4818187
:1034A0002F5F3F4FE6CF91E090932E029091B200B4
:1034B000890F8093B300FF91EF91BF91AF919F91DE
:1034C0008F917F916F915F914F913F912F910F90CD
:1034D0000FBE0F901F90189580912E02813059F7E2
:1034E0008091B3008F3F91F15091910390E080E083
:1034F0003FEF46E08517A0F5489FF001499FF00D8A
:103500001124E758FC4F208126FF1EC02581213061
:10351000D9F46091B2002181621740F02481A28128
:10352000B3816C91209526232C931582489FF0013E
:10353000499FF00D1124E758FC4F2581213021F4DB
:103540002181231708F431810196D4CF10922E02E5
:1035500097E09093B1008093B3001092B200ABCF8C
:103560003093B300A8CFCF93DF93EC0161E080EC00
:1035700093E00E94D40F84FB992790F9988383FBF2
:10358000992790F99A8382FB992790F9998386FB72
:10359000992790F99B83881F8827881F8C83DF9148
:1035A000CF9108958F929F92AF92BF92EF92FF9228
:1035B0000F931F93CF93DF937C01EB0160E580ECC9
:1035C00093E00E94D40F8F5F880F90E099838883E7
:1035D00066E480EC93E00E94D40F082F10E00F5FA8
:1035E0001F4F1D830C83A881B0E020E03FE24AE337
:1035F00050E00E941A296C507E4F8F4F9F4F38EE3B
:10360000832E33E0932EA12CB12CA50194010E94AE
:103610002D29D8010E9425296C507E4F8F4F9F4F36
:10362000A50194010E942D292A873B874C875D873D
:1036300061E580EC93E00E94950F8C01112702C098
:10364000000F111F9A95E2F70F5F1F4F1F830E8324
:10365000A881B0E020E03FE24AE350E00E941A294E
:103660006C507E4F8F4F9F4FA50194010E942D29D2
:10367000D8010E941A296C507E4F8F4F9F4FA50191
:1036800094010E942D292E873F87488B598B60E734
:1036900080EC93E00E94D40F8F5F880F90E09B83B3
:1036A0008A8361E780EC93E00E94950F9C01992743
:1036B00002C0880F991F3A95E2F70196998788878B
:1036C000F7012381222331F02E813F81821B930B4E
:1036D00099878887AA81B0E020E03FE24AE350E082
:1036E0000E941A296C507E4F8F4F9F4F28EE822EDA
:1036F00023E0922EA12CB12CA50194010E942D292A
:10370000A885B9850E941A296C507E4F8F4F9F4F14
:10371000A50194010E942D292A8B3B8B4C8B5D8B3C
:10372000DF91CF911F910F91FF90EF90BF90AF90DD
:103730009F908F900895482F416060E080EC93E067
:103740000E9402100E94C6047093D7036093D603B0
:1037500063E180EC93E00E94D40F8770B9F480910C
:10376000D3039091D403892B99F30E94C60420912E
:10377000D6033091D703621B730B8091D3039091D2
:10378000D4038617970720F780E0089541E06BE0A7
:1037900080EC93E00E94021040E060E080EC93E057
:1037A0000E94021081E008950F931F93CF93DF933F
:1037B0001092DF021092DE0288EE93E0A0E0B0E00B
:1037C0008093E0029093E102A093E202B093E302BF
:1037D00088E291E09093DD028093DC0285EC90E03A
:1037E0009093E9028093E80284EC90E09093EB02DE
:1037F0008093EA0280EC90E09093ED028093EC02DB
:1038000081EC90E09093EF028093EE0282EC90E0E6
:103810009093F1028093F00286EC90E09093F30293
:103820008093F2021092F5021092F6021092F702C3
:103830001092F8021092290410922A048CE390E06E
:1038400090932C0480932B0410922E0410922D043C
:103850008AE0EFE2F4E0DF01982F1D929A95E9F7F4
:10386000E9E3F4E0DF01982F1D929A95E9F7E3E48C
:10387000F4E0DF01982F1D929A95E9F7EDE4F4E06A
:10388000DF011D928A95E9F71092580410925704AF
:1038900010925A041092590488E0EBE5F4E0DF013D
:1038A000982F1D929A95E9F7E3E6F4E0DF011D9267
:1038B0008A95E9F710926C0410926B0410926E04D2
:1038C00010926D048CE090E00E949329DC019C0131
:1038D000245F3F4F4FEF56E06DE5E0919103E430F8
:1038E00008F029C171E07E0F70939103EC935E9F05
:1038F000F0011124E758FC4F618313962A173B0708
:1039000061F7909328048093270410921A04DFEF44
:10391000D0931D0402E010E010931C0400931B04DC
:103920008EE080931E048FE080931F0464E971E0B1
:1039300081E294E00E94B82AC1E0C0932004109272
:10394000F503D093F8031093F7030093F60380E197
:103950008093F90381E18093FA036AE971E08CEFC7
:1039600093E00E94B82A82E08093FB031092C20386
:103970001092C1031092C3031092C4031092C503A6
:103980001092C60399E29093CC031092D403109244
:10399000D3031092D5031092C8031092C7038093EB
:1039A000C90383E08093CA0360EA71E08DEC93E081
:1039B0000E94B82AD4E0D093CB031092B5031092A2
:1039C000B403C093B60385E08093B7031092B803A5
:1039D00084E68093B90366EA71E08AEB93E00E9483
:1039E000B82A8BE08093AC031092AD0369EA71E0D2
:1039F0008EEA93E00E94B82A1092A8031092A703BF
:103A00000CE310E01093AA030093A9031092AB03F8
:103A100089E080939F0387E08093A0036CEA71E0C4
:103A200081EA93E00E94B82A61E089E00E94CE0317
:103A300061E08091A0030E94CE0360E080919F032B
:103A40000E94820360E08091A0030E948203109292
:103A5000AB0310929B0310929A0310939D03009363
:103A60009C0310929E038AE080939203D093930369
:103A70006FEA71E084E993E00E94B82A61E08AE08D
:103A80000E94CE0361E0809193030E94CE0360E028
:103A9000809192030E94820360E0809193030E94D0
:103AA0008203C0939E031092720410927104C8E6C0
:103AB000C0938004109281041092730410927404D5
:103AC00010927F0462EB71E085E794E00E94B82ACF
:103AD0008AE391E09093700480936F0410928504C0
:103AE00010928404C093930410929404109286045C
:103AF000109287041092920462EB71E088E894E0DF
:103B00000E94B82A82E491E0909383048093820417
:103B100010929804109297041092990410929A04AB
:103B200088E690E09093960480939504DF91CF917E
:103B30001F910F9108954C93E0CECF93DF93CDB7B3
:103B4000DEB7A1970FB6F894DEBF0FBECDBF789455
:103B500084B5826084BD84B5816084BD85B5826092
:103B600085BD85B5816085BD80916E008160809343
:103B70006E001092810080918100826080938100AC
:103B800080918100816080938100809180008160BC
:103B9000809380008091B10084608093B100809117
:103BA000B00081608093B00080917A00846080933F
:103BB0007A0080917A00826080937A0080917A0006
:103BC000816080937A0080917A00806880937A0087
:103BD0001092C100E091EC02F091ED0282E080834E
:103BE000E091E802F091E9021082E091EA02F0919E
:103BF000EB0280E180831092F402E091F002F091F8
:103C0000F10286E08083E091EE02F091EF02808184
:103C100080618083E091EE02F091EF028081886004
:103C20008083E091EE02F091EF02808180688083D2
:103C3000E091EE02F091EF0280818F7D8083809190
:103C40008100887F856080938100689A709A8AE6F7
:103C500092E00E944C0886E592E00E94470385E1CD
:103C60000E945C0427E133E1DC010E94862928EEF2
:103C700033E040E050E00E942D2969017A014AE0DA
:103C8000C701B6010E94D60782E592E00E944C0867
:103C900021EDC21627E0D206E104F10438F586E0F2
:103CA00092E00E944C08709868EE862E63E0962E93
:103CB000A12CB12C85E10E945C0427E133E1DC01F9
:103CC0000E948629A50194010E942D2969017A018B
:103CD00081EDC81687E0D806E104F10438F464EFFA
:103CE00071E080E090E00E949304E4CF91EDC91A66
:103CF00097E0D90AE108F108ABE4CA16A4E0DA06B5
:103D0000E104F10450F487EF91E00E944C088EEC3E
:103D100091E00E944C087098FFCF8BEA91E00E94DE
:103D20004C0870988FE993E090935804809357045F
:103D300082E993E090935A0480935904EBE5F4E010
:103D400090E080E021913191232B09F074C1880F1C
:103D5000991FFC01E55AFB4F84EB93E0918380832C
:103D60000E94BC09E3E6F4E090E080E0219131910B
:103D7000232B09F066C1880F991FFC01ED59FB4FF9
:103D80008CEA93E09183808361E08091AC030E9490
:103D9000CE0361E08091AC030E94820381E08093B6
:103DA000AD0380E892E00E9447038EEA93E00E9410
:103DB0002008C0900E01D0900F01E0901001F0900B
:103DC00011010091270410912804F80180818430AA
:103DD00008F062C061E08DE00E94CE03F801A0818E
:103DE000F6E0AF9FD0011124A758BC4F8C91807C86
:103DF0008D608C93E9ECF2E0E491F0E0EE0FFF1FB0
:103E0000EE54FD4F8591949113969C938E93129747
:103E1000EBEAF2E0E4911496EC9382E2D801119679
:103E20008C93119786E912968C9388EB91E00E940F
:103E30004508F80181810E9432088EEB91E00E94D2
:103E40004508D80112968C910E94320890E080E0DB
:103E500026E0289FF001299FF00D1124E758FC4F20
:103E6000308136FD0EC001968430910591F7109295
:103E7000B0002093B1001092B20082E087BB809323
:103E80007000D801EC91B6E0EB9FF0011124E758E7
:103E9000FC4F80818064808380ED92E00E94470324
:103EA000C7010E94200864EF71E080E090E00E946A
:103EB0009304A0902704B0902804F501C180D12C70
:103EC000F12CE12C228130E050E040E02C193D093A
:103ED0004E095F09AAE5B0E00E941A2924EB30E000
:103EE00040E050E00E94FB28C20ED31EE41EF51EE7
:103EF00082E093E00E9447034AE0C701B601F7FE63
:103F00000DC06DE28CED92E00E94FA0266277727E1
:103F1000CB016C197D098E099F094AE00E94D607E2
:103F200086E491E00E94C907D501EC91E430D8F411
:103F300011961C911197C11628F012961C91C1166A
:103F400008F41C2D0FB7F894B6E0EB9FF001112494
:103F5000E758FC4F118389EE92E00E944703812FBE
:103F60000E9432080FBFE9E3F4E090E080E0219185
:103F70003191232B09F06BC0880F991FFC01E75C7E
:103F8000FB4F80EC93E0918380838091C7039091F5
:103F9000C803892B01F582E790E00E9493298C01E8
:103FA0004091CA036091C9030E9465061093C8033B
:103FB0000093C70388E290E0F801908B878761E067
:103FC000C8010E94510CE091C703F091C80384E638
:103FD00090E0908B878710E31093CC0360E080EC37
:103FE00093E00E94D40F8091C0038823A1F089E25E
:103FF0008093CC0360E080EC93E00E94D40F80912A
:10400000C003811108C040E36AE880EC93E00E949D
:1040100002101093CC0360EC80EC93E00E94D40F6C
:104020008E3ED9F08AE393E00E9447038DEC93E043
:104030000E942008FFCF01968430910509F082CEBE
:104040008FCE01968430910509F090CE9DCE0196D9
:104050008530910509F08BCF98CF8DE193E00E94D8
:1040600047038DEC93E00E94200869E880EC93E020
:104070000E94D40F482F416069E880EC93E00E94D1
:10408000021040E068E880EC93E00E94021041E0FA
:1040900060E880EC93E00E94021041E06FEF80EC5A
:1040A00093E00E94021040E060E080EC93E00E9408
:1040B000021061E980EC93E00E94D40F8093D80352
:1040C00041E060E080EC93E00E94021040E06FEF7E
:1040D00080EC93E00E94021040E060E880EC93E006
:1040E0000E94021060E680EC93E00E94D40F482FFB
:1040F000426160E680EC93E00E94021060E270E0B2
:1041000084E40E945D0F4FEF61E080EC93E00E9439
:10411000021041E060E880EC93E00E94021041E070
:104120006FEF80EC93E00E94021040E060E080ECD2
:1041300093E00E94021046E06FEF80EC93E00E9453
:10414000021063E880EC93E00E94D40F482F446093
:1041500063E880EC93E00E94021047E06FEF80EC90
:1041600093E00E94021041E061E880EC93E00E943D
:10417000021041E060E880EC93E00E9402104BE600
:1041800064E980EC93E00E94021040E063E880EC78
:1041900093E00E9402100E94C6047093D7036093BC
:1041A000D60363E880EC93E00E94D40F811173C2C0
:1041B0008091D3039091D403892B99F30E94C60474
:1041C0002091D6033091D703621B730B8091D303E8
:1041D0009091D4038617970720F70FE214E0F801B7
:1041E00090E080E021913191232B09F09EC6880F49
:1041F000991FFC01E15DFB4F82E094E09183808395
:1042000082E094E00E94EC1690E080E0D8012D91CD
:104210003D918D01232B09F08EC6880F991FFC015B
:10422000E15DFB4F8DED93E0918380838DED93E015
:104230000E94EC160E94BC0944E650E060E070E089
:104240008BE092E00E94500A62E370E080E090E030
:104250000E94930444E650E060E070E083E992E05D
:104260000E94500A62E370E080E090E00E949304B4
:1042700046E950E060E070E080E193E00E94500A7F
:104280008091B8038823A1F08091B603882381F040
:10429000E091B403F091B5038FEF8183E091B40313
:1042A000F091B5031082E091B403F091B50312824E
:1042B0000E945A0884E10E945C048436910540F40F
:1042C00084EC91E00E9420088DED91E00E9420088E
:1042D000709A82E0282E312CC12CD12C7601D394F7
:1042E0000E945F1262E370E082E390E00E94C20AE3
:1042F0000E94C60400911404109115042091160424
:1043000030911704601B710B820B930B63347105A2
:104310008105910520F082E094E00E945E11809179
:104320000C0490910D049093BA028093B90280918D
:104330000E0490910F049093B8028093B70280917D
:104340001004909111049093B6028093B50280916D
:104350001204909113049093B4028093B30284EFFB
:1043600091E00E9445088091B9029091BA020E94A2
:104370001A0881E092E00E9445088091B70290916E
:10438000B8020E941A0885E092E00E9445088091D8
:10439000B5029091B6020E941A0889E092E00E944C
:1043A00045088091B3029091B4020E941A0886E4F5
:1043B00091E00E94C9070E94C6040091EF0310918A
:1043C000F0032091F1033091F203601B710B820B1B
:1043D000930B633471058105910520F08DED93E019
:1043E0000E945E118091E7039091E8039093B202DE
:1043F0008093B1028091E9039091EA039093B00217
:104400008093AF028091EB039091EC039093AE0206
:104410008093AD028091ED039091EE039093AC02F6
:104420008093AB028DE092E00E9445088091B1023A
:104430009091B2020E941A0881E092E00E94450821
:104440008091AF029091B0020E941A0885E092E03C
:104450000E9445088091AD029091AE020E941A0818
:1044600089E092E00E9445088091AB029091AC02F5
:104470000E941A0886E491E00E94C9070E94C604BF
:104480000091C3031091C4032091C5033091C6036A
:10449000601B710B820B930B6536710581059105CD
:1044A00008F466C041E060E880EC93E00E940210EE
:1044B00041E06FEF80EC93E00E94021040E060E08A
:1044C00080EC93E00E9402104091D80361E980ECF7
:1044D00093E00E94021041E060E080EC93E00E94D3
:1044E000021040E06FEF80EC93E00E94021040E089
:1044F00060E880EC93E00E94021041E060E080EC14
:1045000093E00E9402100E94C6047093D703609348
:10451000D60360E080EC93E00E94D40F80FF11C5C9
:104520008091D3039091D403892B99F30E94C60400
:104530002091D6033091D703621B730B8091D30374
:104540009091D4038617970720F781E08093D503D5
:104550008FEF9FEF9093C2038093C1030E94C60424
:104560006093C3037093C4038093C5039093C60301
:104570000091C1031091C2038AE192E00E944508B4
:10458000C8010E941A0886E292E00E9420080436C0
:10459000110508F0FBC4009157041091580401154F
:1045A000110539F08091590490915A04892B09F032
:1045B000CDC48CE593E00E944C0844E650E060E0F6
:1045C00070E08CED95E00E94500A64E670E080E0B7
:1045D00090E00E94930444E650E060E070E08CEDCF
:1045E00095E00E94500A0E949B284B015C010E94AA
:1045F0009B282B013C010E949B282091B803222379
:1046000031F12091B603222311F10091B4031091EE
:10461000B503A70196010E94FB28F8016183009170
:10462000B4031091B503C301B201A70196010E9422
:10463000FB28D8016C930091B4031091B503C50118
:10464000B401A70196010E94FB28F80162830E9431
:104650005A080E943F28B1010E947229811191C419
:104660006EEC7FEF82E390E00E94C20A0E94C604D3
:104670004B015C01FCE28F0EF1E09F1EA11CB11CFE
:104680000E94C604681579058A059B0508F07EC45A
:104690000E945F12F5CF41E063E880EC93E00E9456
:1046A000021062E980EC93E00E94D40FF82EE894A7
:1046B000F7F8D82EDD1CDD24DD1C40E061E880EC3D
:1046C00093E00E94021046E06FEF80EC93E00E94BE
:1046D000021063E880EC93E00E94D40F482F4B7FD8
:1046E00063E880EC93E00E94021041E06FEF80EC01
:1046F00093E00E94021041E060E080EC93E00E94B1
:10470000021040E06FEF80EC93E00E94021040E066
:1047100060E880EC93E00E9402108091C7039091C2
:10472000C803FC01EE5BFF4F2091CC032083B296BF
:104730001082DC01ED91FC910190F081E02D60EBA5
:1047400009958091C7039091C8030E94180F809328
:10475000C00346E06091CC038091C7039091C803E9
:104760000E94080E8E01095E1F4F580187E0E82E57
:10477000EA94EE2079F08091C7039091C803DC01A0
:10478000ED91FC910284F385E02D0995F50181936B
:104790005F01EECF41E06FEF80EC93E00E940210EA
:1047A00040E06FE480EC93E00E9402104CE26EE483
:1047B00080EC93E00E94021040E06FEF80EC93E009
:1047C0000E94021044EB66EB80EC93E00E94021022
:1047D000BCE0EB2ED11001C0E12C90E080E0E1E0E4
:1047E000F0E0482F46954695469550E09801240FF5
:1047F000351FD9012C91682F67708E1510F09F110D
:1048000038C0400F511FDF0102C0AA0FBB1F6A95BD
:10481000E2F7BD0160952623DA012C938F5F803388
:1048200001F78091C7039091C803FC01EE5BFF4F35
:104830002091CC032083B2961082DC01ED91FC9193
:104840000190F081E02D60EB0995A7E0FA2E8091B0
:10485000C7039091C803FA94FF20A9F0F801619171
:104860008F01DC01ED91FC910190F081E02D099523
:10487000EECF30E002C0359527956A95E2F720FF2C
:10488000CDCF9F5FCBCF0E94180F8093C00341E034
:104890006FEF80EC93E00E94021040E060E080EC5B
:1048A00093E00E94021040E06FEF80EC93E00E94E2
:1048B000021040E069E080EC93E00E94021040E0CA
:1048C00060E180EC93E00E94021040E061E180EC46
:1048D00093E00E94021041E064E280EC93E00E94C9
:1048E00002104FEF65E280EC93E00E94021040E07E
:1048F00065E780EC93E00E94021041E06FEF80ECEE
:1049000093E00E9402104CE26EE480EC93E00E947F
:10491000021040E068E480EC93E00E94021040E264
:1049200060E380EC93E00E94021040E06FEF80ECC7
:1049300093E00E94021049E060E380EC93E00E9463
:10494000021040E064E580EC93E00E94021044E035
:1049500061E380EC93E00E94021043E062E380ECAC
:1049600093E00E94021043E860E480EC93E00E9430
:10497000021045E266E480EC93E00E94021040E001
:1049800060E680EC93E00E94021040E067E280EC79
:1049900093E00E94021046E060E580EC93E00E9404
:1049A000021040E061E580EC93E00E94021046E9CD
:1049B00062E580EC93E00E94021048E066E580EC3E
:1049C00093E00E94021040E367E580EC93E00E94D0
:1049D000021040E061E680EC93E00E94021040E0AB
:1049E00062E680EC93E00E94021040E064E680EC16
:1049F00093E00E94021040E065E680EC93E00E94A4
:104A0000021040EA66E680EC93E00E94021041E06A
:104A10006FEF80EC93E00E94021042E362E280ECD0
:104A200093E00E94021044E167E480EC93E00E946E
:104A300002104FEF69E480EC93E00E94021040E026
:104A40006AE480EC93E00E94021040E06FEF80EC9B
:104A500093E00E9402104AE06AE780EC93E00E9433
:104A6000021040E06BE780EC93E00E94021041E20C
:104A700068E780EC93E00E94021041E06FEF80EC69
:104A800093E00E94021044E363E280EC93E00E9412
:104A9000021040E062E480EC93E00E9402104FEFCD
:104AA00064E480EC93E00E94021046E265E480EC4E
:104AB00093E00E94021045E066E480EC93E00E94DF
:104AC000021040E460E480EC93E00E94021046E0B3
:104AD0006EE080EC93E00E9402104AE160E280EC1C
:104AE00093E00E94021040E463E480EC93E00E94B3
:104AF000021040E06FEF80EC93E00E94021043E070
:104B000064E380EC93E00E94021044E465E380ECEF
:104B100093E00E94021041E06FEF80EC93E00E946E
:104B2000021044E061E380EC93E00E94021049E04F
:104B30006BE480EC93E00E94021045E06CE480ECB2
:104B400093E00E94021044E06DE480EC93E00E9448
:104B5000021040E06FEF80EC93E00E94021040E012
:104B600064E480EC93E00E94021040E265E480EC93
:104B700093E00E94021048E067E480EC93E00E941A
:104B8000021048E268E480EC93E00E94021040E0EA
:104B900067E680EC93E00E94021044E060E780EC5E
:104BA00093E00E94021041E061E780EC93E00E94F4
:104BB00002104EEF62E780EC93E00E94021040E0AA
:104BC00066E780EC93E00E94021040E067E780EC2B
:104BD00093E00E94021041E06FEF80EC93E00E94AE
:104BE000021041E06DE080EC93E00E94021040E092
:104BF0006FEF80EC93E00E94021041E060E880ECEF
:104C000093E00E94021048EF61E080EC93E00E9484
:104C1000021041E06FEF80EC93E00E94021041E04F
:104C20006EE880EC93E00E94021041E060E080ECCE
:104C300093E00E94021040E06FEF80EC93E00E944E
:104C4000021040E060E880EC93E00E94021044E033
:104C50006AE080EC93E00E94021064E880EC93E04C
:104C60000E94D40F482F4F7E64E880EC93E00E94AE
:104C7000021041E06BE080EC93E00E940210CE0154
:104C80004D960E94B31ABE016F5F7F4FCE014D96C5
:104C90000E94D21A8D8D882309F4F5C08B859C85DE
:104CA000AD85BE858C57924FAF4FBF4F2F8D2223BE
:104CB00009F4EEC04B855C856D857E854E545D4F55
:104CC0006F4F7F4F440F551F661F771F840F951F2F
:104CD000A61FB71F28A1222361F04F855889698933
:104CE0007A894C565D4F6F4F7F4F840F951FA61FDB
:104CF000B71F29A1222361F04B895C896D897E89C8
:104D00004A5D5D4F6F4F7F4F840F951FA61FB71FE2
:104D10008093D9039093DA03A093DB03B093DC0371
:104D200048EE61E080EC93E00E940210C090D9034D
:104D3000D090DA03E090DB03F090DC03CE014D96D7
:104D40000E94B31ABE016F5F7F4FCE014D960E9445
:104D5000D21A8D8D882309F4A8C08B859C85AD85DA
:104D6000BE858C57924FAF4FBF4F2F8D222309F432
:104D7000A1C04B855C856D857E854E545D4F6F4F20
:104D80007F4F440F551F661F771F840F951FA61F67
:104D9000B71F18A1112361F04F85588969897A8955
:104DA0004C565D4F6F4F7F4F840F951FA61FB71F47
:104DB00029A1222309F49AC02C013D01E6E24E0EFE
:104DC000E2E05E1E611C711CC414D504E604F70405
:104DD00008F48CC0AB81B0E020E03FE24AE350E051
:104DE0000E941A294B015C01F4EF8F0EF1E09F1E27
:104DF000A11CB11CA70196012419350946095709C0
:104E0000A8EEB3E00E941A292B013C01C501B401B0
:104E100020ED37E040E050E00E942D29420E531E65
:104E2000641E751EC501B40128EE33E040E050E079
:104E30000E942D29C301B2010E942D29112331F0B6
:104E40008F819885280F391F411D511D70E060E04A
:104E50002115310541055105F1F189019A010150F2
:104E600011092109310970E060E0D901C8018827E2
:104E7000892B8A2B8B2B59F13695279517950795FA
:104E80006F5F7F4FF2CF86E39BE0A0E0B0E00ECFF4
:104E90002E8D222309F41ECF4B855C856D857E8582
:104EA0004C565D4F6F4F7F4F11CF86E39BE0A0E0E4
:104EB000B0E05BCF2E8D222309F46BCF4B855C8550
:104EC0006D857E854C565D4F6F4F7F4F5ECF762F41
:104ED0006627602B712B81E70E945D0FC092D9037A
:104EE000D092DA03E092DB03F092DC0341E061E070
:104EF00080EC93E00E94021080E40E949B1B8823B8
:104F000009F46BC942E061E080EC93E00E9402107A
:104F100080E00E949B1B882309F45FC948EE61E092
:104F200080EC93E00E94021058C9019685309105EB
:104F300009F058C965C901968530910509F066C91F
:104F400075C980EC93E00E942E1004CB60E0F8015C
:104F500080810E94820360E0D80111968C910E94AA
:104F600082030091590410915A0460E0F801808195
:104F70000E94820360E0D80111968C910E94820306
:104F80001CCB62E370E08EEC9FEF6ECB6EE170E0C5
:104F900080E090E00E94930480E090E0892B09F487
:104FA0009FC90E94C402882309F49AC90E94000084
:104FB00097C98091AD03882329F061E08091AC030B
:104FC0000E9482038091B4039091B503009711F081
:104FD0000E942F2A8091270490912804009711F0B5
:104FE0000C942F2A08958F929F92AF92BF92CF92E6
:104FF000DF92EF92FF92CF93DF93EC01688179818A
:105000008A819B81611571058105910521F464E216
:1050100079ED8BE597E02DE133EF41E050E00E9420
:10502000FB2849015A019B01AC01A7EAB1E40E94A7
:105030001A296B017C01ACEEB4EFA50194010E942A
:105040002829DC01CB018C0D9D1DAE1DBF1DB7FFB6
:1050500003C00197A109B04888839983AA83BB83C1
:105060009F77DF91CF91FF90EF90DF90CF90BF902F
:10507000AF909F908F9008950E94F327089580E04D
:1050800091E00E94F3270895B0E0A0E08093000132
:1050900090930101A0930201B093030108958F92B0
:1050A0009F92AF92BF92CF92DF92EF92FF92CF93F7
:1050B000DF93EC01688179818A819B81611571059B
:1050C0008105910521F464E279ED8BE597E02DE10E
:1050D00033EF41E050E00E94FB2849015A019B0157
:1050E000AC01A7EAB1E40E941A296B017C01ACEE85
:1050F000B4EFA50194010E942829C60ED71EE81E10
:10510000F91EF7FE06C081E0C81AD108E10880E860
:10511000F80AC882D982EA82FB82C701B6019F776A
:10512000DF91CF91FF90EF90DF90CF90BF90AF9045
:105130009F908F9008958F929F92AF92BF92CF923F
:10514000DF92EF92FF9260910401709105018091CE
:10515000060190910701611571058105910521F402
:1051600064E279ED8BE597E02DE133EF41E050E02B
:105170000E94FB2849015A019B01AC01A7EAB1E456
:105180000E941A296B017C01ACEEB4EFA5019401D9
:105190000E942829C60ED71EE81EF91EF7FE06C07B
:1051A00081E0C81AD108E10880E8F80AC092040139
:1051B000D0920501E0920601F0920701C701B60105
:1051C0009F77FF90EF90DF90CF90BF90AF909F9030
:1051D0008F900895609304017093050180930601F8
:1051E000909307010895F999FECF92BD81BDF89A79
:1051F000992780B50895052E97FB1EF400940E9410
:10520000122957FD07D00E942D2907FC03D04EF428
:105210000C94122950954095309521953F4F4F4F52
:105220005F4F089590958095709561957F4F8F4F52
:105230009F4F08950E944F29A59F900DB49F900DF8
:10524000A49F800D911D11240895B7FF0C941A2975
:105250000E941A29821B930B0895A1E21A2EAA1B01
:10526000BB1BFD010DC0AA1FBB1FEE1FFF1FA21716
:10527000B307E407F50720F0A21BB30BE40BF50B13
:10528000661F771F881F991F1A9469F7609570959C
:10529000809590959B01AC01BD01CF010895A29F1F
:1052A000B001B39FC001A39F700D811D1124911DFA
:1052B000B29F700D811D1124911D0895AA1BBB1B67
:1052C00051E107C0AA1FBB1FA617B70710F0A61B06
:1052D000B70B881F991F5A95A9F780959095BC0127
:1052E000CD01089597FB072E16F4009407D077FDA3
:1052F00009D00E945E2907FC05D03EF49095819567
:105300009F4F0895709561957F4F08950E944F2992
:10531000B7FF0895821B930B0895EE0FFF1F0590B2
:10532000F491E02D09940F931F93CF93DF93823074
:10533000910510F482E090E0E0919D04F0919E04CC
:1053400030E020E0B0E0A0E0309799F4211531057D
:1053500009F44AC0281B390B24303105D8F58A815D
:105360009B816115710589F1FB0193838283FE01A5
:1053700011C0408151810281138148175907E0F023
:105380004817590799F4109761F012960C931297E9
:1053900013961C933296CF01DF91CF911F910F91FD
:1053A000089500939D0410939E04F4CF21153105B8
:1053B00051F04217530738F0A901DB019A01BD01F2
:1053C000DF01F801C1CFEF01F9CF90939E048093E4
:1053D0009D04CDCFFE01E20FF31F819391932250E4
:1053E000310939832883D7CF20919B0430919C04C5
:1053F000232B41F420910A0130910B0130939C043E
:1054000020939B0420910801309109012115310559
:1054100041F42DB73EB740910C0150910D01241B72
:10542000350BE0919B04F0919C04E217F307A0F484
:105430002E1B3F0B2817390778F0AC014E5F5F4FEA
:105440002417350748F04E0F5F1F50939C0440937C
:105450009B04819391939FCFF0E0E0E09CCFCF93AA
:10546000DF930097E9F0FC01329713821282A0913A
:105470009D04B0919E04ED0130E020E01097A1F46E
:1054800020813181820F931F20919B0430919C04D5
:105490002817390709F061C0F0939C04E0939B043E
:1054A000DF91CF910895EA01CE17DF07E8F54A8131
:1054B0005B819E0141155105B1F7E901FB83EA8348
:1054C00049915991C40FD51FEC17FD0761F48081F4
:1054D00091810296840F951FE901998388838281C7
:1054E00093819B838A83F0E0E0E012968D919C91FA
:1054F00013970097B9F52D913C911197CD01029624
:10550000820F931F20919B0430919C042817390728
:1055100039F6309751F510929E0410929D04B09385
:105520009C04A0939B04BCCFD383C2834081518150
:10553000840F951FC817D90761F44E5F5F4F8881AC
:105540009981480F591F518340838A819B8193839E
:1055500082832115310509F0B0CFF0939E04E093CA
:105560009D049ECFFD01DC01C0CF13821282D7CFF4
:10557000FB01DC0101900D920020E1F7089512E09B
:10558000CFE2D2E004C0FE010E948D292196C033F3
:10559000D107C9F7F894FFCF010000000100000017
:1055A00000009F048000010D2A0200000000380660
:1055B0001006C30779075A06F605E3050000000048
:1055C000FA025A0287026203B8029602AA02000097
:1055D0000000F904C60700000000AD1641160D0AD0
:1055E00000536F6674576972652E656E64547261FC
:1055F0006E736D697373696F6E2829206661696CBB
:1056000065642E00424D4931363047656E436C610A
:1056100073733A3A6932635F696E697428293A2074
:10562000493243206661696C65642E004932432D1E
:1056300031004932432D32004932432D3400533476
:10564000005333004D31004D32004932432D3000BC
:105650006D696E3A20006D61783A2000426F746186
:105660006F20617065727461646F206E6F20696E67
:105670006963696F0063616C696272616E646F2057
:1056800073656E736F7265732E2E2E0053656E7385
:105690006F7231202D20523A0020473A0020423AC2
:1056A0000020433A0053656E736F7232202D2052F2
:1056B0003A0044697374616E6369613A2000206D39
:0656C0006D0053310000F3
:107E0000112484B714BE81FFF0D085E080938100F7
:107E100082E08093C00088E18093C10086E0809377
:107E2000C20080E18093C4008EE0C9D0259A86E02C
:107E300020E33CEF91E0309385002093840096BBD3
:107E4000B09BFECF1D9AA8958150A9F7CC24DD24C4
:107E500088248394B5E0AB2EA1E19A2EF3E0BF2EE7
:107E6000A2D0813461F49FD0082FAFD0023811F036
:107E7000013811F484E001C083E08DD089C08234E0
:107E800011F484E103C0853419F485E0A6D080C0E4
:107E9000853579F488D0E82EFF2485D0082F10E0AE
:107EA000102F00270E291F29000F111F8ED06801E7
:107EB0006FC0863521F484E090D080E0DECF843638
:107EC00009F040C070D06FD0082F6DD080E0C81688
:107ED00080E7D80618F4F601B7BEE895C0E0D1E017
:107EE00062D089930C17E1F7F0E0CF16F0E7DF06D8
:107EF00018F0F601B7BEE89568D007B600FCFDCFD4
:107F0000A601A0E0B1E02C9130E011968C91119780
:107F100090E0982F8827822B932B1296FA010C0160
:107F200087BEE89511244E5F5F4FF1E0A038BF0790
:107F300051F7F601A7BEE89507B600FCFDCF97BE46
:107F4000E89526C08437B1F42ED02DD0F82E2BD052
:107F50003CD0F601EF2C8F010F5F1F4F84911BD097
:107F6000EA94F801C1F70894C11CD11CFA94CF0C13
:107F7000D11C0EC0853739F428D08EE10CD085E9AC
:107F80000AD08FE07ACF813511F488E018D01DD067
:107F900080E101D065CF982F8091C00085FFFCCF94
:107FA0009093C60008958091C00087FFFCCF809118
:107FB000C00084FD01C0A8958091C6000895E0E648
:107FC000F0E098E1908380830895EDDF803219F02E
:107FD00088E0F5DFFFCF84E1DECF1F93182FE3DFCA
:107FE0001150E9F7F2DF1F91089580E0E8DFEE27F6
:047FF000FF270994CA
:027FFE00040479
:00000001FF
