:020000040000FA
:100000000C949D000C94C5000C94C5000C94B70F83
:100010000C94600F0C94310F0C94C5000C94C50027
:100020000C94C5000C94C5000C94C5000C94E60F0C
:100030000C94C5000C94C5000C94C5000C94C5002C
:100040000C94BB0D0C94C5000C94890D0C94630D9D
:100050000C94C5000C94C5000C94C5000C94C5000C
:100060000C94050E0C94C5000C94C5000C94C500AE
:100070000C94C5000C94C5000C94C5000C94C500EC
:100080000C94C5000C94C5000C94C5000C94C500DC
:100090000C94C5000C94C5000C94C5000C94C500CC
:1000A0000C94C5000C94C5000C94C5000C94C500BC
:1000B0000C94C5000A0D0E09000302000004050897
:1000C00000000000000000000000000000000053DD
:1000D0006572766F20696E69636961646F206E6115
:1000E00020706F727461200000000000250028005D
:1000F0002B002E0000000000240027002A002D0005
:1001000004040404040404040202020202020303BD
:100110000303030302020305050505010204081099
:100120002040800102040810200102040810204031
:100130008040010204087510F00F11241FBECFEF9C
:10014000D8E0DEBFCDBF12E0A0E0B1E0E4E1FBE229
:1001500002C005900D92A632B107D9F724E0A6E2BD
:10016000B2E001C01D92AD39B207E1F710E0CCE971
:10017000D0E004C02197FE010E943014CB39D10792
:10018000C9F70E9480120C947D150C940000880F12
:100190008093BA0008959B01AC0160E074E284EFA3
:1001A00090E00E94EB132051310941095109569505
:1001B0004795379527952093B8000895882321F017
:1001C00085EC8093BC00089585E8FBCF85ED809396
:1001D000BC008091BC0084FDFCCF10929002089579
:1001E00085EC8093BC0010929002089590E0FC0191
:1001F000E55EFE4F249180509F4FFC01849188233F
:1002000099F090E0880F991FFC01EC50FF4FA591E9
:10021000B491FC01E851FF4F859194918FB7F89408
:10022000EC91E22BEC938FBF0895AF92BF92CF92E7
:10023000DF92EF92FF920F931F93CF93DF936C01A6
:100240007B018B01040F151FEB015E01AE18BF0887
:10025000C017D10759F06991D601ED91FC91019039
:10026000F081E02DC6010995892B79F7C501DF9151
:10027000CF911F910F91FF90EF90DF90CF90BF90A3
:10028000AF900895FC01538D448D252F30E0842FCD
:1002900090E0821B930B541710F0CF9608950197AE
:1002A0000895FC01918D828D981761F0A28DAE0F9B
:1002B000BF2FB11D5D968C91928D9F5F9F73928F22
:1002C00090E008958FEF9FEF0895FC01918D828D4E
:1002D000981731F0828DE80FF11D858D90E008951B
:1002E0008FEF9FEF0895FC01918D228D892F90E073
:1002F000805C9F4F821B91098F739927089582EA32
:1003000092E00E94730121E0892B09F420E0822F02
:100310000895FC01A48DA80FB92FB11DA35ABF4F9A
:100320002C91848D90E001968F739927848FA689F4
:10033000B7892C93A089B1898C91837080648C9348
:10034000938D848D981306C00288F389E02D8081F7
:100350008F7D80830895EF92FF920F931F93CF9329
:10036000DF93EC0181E0888F9B8D8C8D98131AC0F0
:10037000E889F989808185FF15C09FB7F894EE89D7
:10038000FF896083E889F989808183708064808334
:100390009FBF81E090E0DF91CF911F910F91FF907F
:1003A000EF900895F62E0B8D10E00F5F1F4F0F7327
:1003B0001127E02E8C8D8E110CC00FB607FCFACFE2
:1003C000E889F989808185FFF5CFCE010E948901F6
:1003D000F1CFEB8DEC0FFD2FF11DE35AFF4FF082B3
:1003E0009FB7F8940B8FEA89FB8980818062CFCF19
:1003F0000F931F93CF93DF938C01D0E0C0E0F801FF
:10040000EC0FFD1F6491662341F082EA92E00E94A6
:10041000AB01892B11F02196F2CFCE01DF91CF9164
:100420001F910F910895CF93DF93EC01888D88235E
:10043000B9F0AA89BB89E889F9898C9185FD03C047
:10044000808186FD0DC00FB607FCF7CF8C9185FF2C
:10045000F2CF808185FFEDCFCE010E948901E9CFE7
:10046000DF91CF91089580E090E0892B29F00E94E0
:100470007F0181110E94000080E090E0892B49F00B
:1004800080E090E0892B29F00E94000081110C94FB
:1004900000000895282F30E0F901EC54FF4F9491AB
:1004A000F901E55EFE4F849120503F4FF901249100
:1004B000222309F42EC09923D9F092509D30C0F424
:1004C000E92FF0E0EA59FD4F0C943014AC02B00271
:1004D00073028A02780278028E02940298029E02C7
:1004E0007802A202A802909180009F7790938000EA
:1004F000E22FF0E0EE0FFF1FE851FF4FA591B491FE
:100500009FB7F894EC9161112EC080958E238C9347
:100510009FBF0895909180009F7DE8CF9091B0009B
:100520009F779093B000E4CF9091B0009F7DF9CF7A
:10053000909190009F7790939000DACF90919000E7
:100540009F7DF9CF9091A0009F779093A000D0CF8E
:100550009091A0009F7DF9CF94B59F7794BDC8CFAF
:1005600094B59F7DFBCF8E2BD2CF1092900281E06D
:10057000809392021092910261E082E10E944A020D
:1005800061E083E10E944A02E9EBF0E080818E7F26
:10059000808380818D7F808388E48093B80085E4A8
:1005A0008093BC000895ECEBF0E080818A7B80832F
:1005B00060E082E10E944A0260E083E10C944A021A
:1005C0001F93CF93DF93182FEB010E94F600209723
:1005D00039F460E0812FDF91CF911F910C944A0292
:1005E000CF3FD10511F461E0F5CFE12FF0E0EC54FD
:1005F000FF4FE491E250ED3008F072C0F0E0ED5FA3
:10060000FC4F0C943014100318031D0327037003D0
:1006100070033103390341034B0370035603650331
:1006200084B5806884BDC7BDDF91CF911F910895C7
:1006300084B5806284BDC8BDF7CF8091800080689A
:1006400080938000D0938900C0938800EDCF809183
:100650008000806280938000D0938B00C0938A00DA
:10066000E3CF8091B00080688093B000C093B30066
:10067000DBCF8091B00080628093B000C093B40063
:10068000D3CF80919000806880939000D0939900A0
:10069000C0939800C9CF5A9A80919000806280934D
:1006A0009000D0939B00C0939A00BECF8091A00091
:1006B00080688093A0008091A0008F7B8093A00031
:1006C000D093A900C093A800AFCF5A9A8091A00000
:1006D00080628093A000D093AB00C093AA00A4CF07
:1006E000C038D1050CF07FCF74CF835180648093E4
:1006F0007C0080917A00806480937A0080917A00F7
:1007000086FDFCCF80917800909179000895823029
:10071000910538F0880F991F880F991F0597019749
:10072000F1F708953FB7F89480919D0290919E0251
:10073000A0919F02B091A00226B5A89B05C02F3FB3
:1007400019F00196A11DB11D3FBFBA2FA92F982FF7
:100750008827BC01CD01620F711D811D911D42E0F2
:10076000660F771F881F991F4A95D1F708958F92BA
:100770009F92AF92BF92CF92DF92EF92FF926B0166
:100780007C010E9492034B015C01C114D104E1047D
:10079000F104B9F00E949203681979098A099B094A
:1007A000683E73408105910580F321E0C21AD108AB
:1007B000E108F10888EE880E83E0981EA11CB11CA8
:1007C000E4CFFF90EF90DF90CF90BF90AF909F90DD
:1007D0008F9008952FB7F8946091990270919A02C2
:1007E00080919B0290919C022FBF08958F929F92BF
:1007F000AF92BF92CF92DF92EF92FF924B015C01DA
:100800000E94EA036B017C010E94EA036C197D09D6
:100810008E099F09681579058A059B0588F461E0B2
:100820008BE00E944A028DE491E00E94870360E021
:100830008BE00E944A028DE491E00E948703E4CF9E
:1008400061E08BE0FF90EF90DF90CF90BF90AF9092
:100850009F908F900C944A0220916C02260F3327B0
:10086000331F21323105ECF420919002FC0190E01D
:1008700080E0243069F082E00895A0916C0221911B
:10088000AC01445B5D4FA40FB52FB11D2C930196B5
:10089000861798F380916C02680F60936C0280E079
:1008A000089581E008950F93413208F044C090917B
:1008B00090029111FCCF92E09093900200939202EB
:1008C0009FEF90938F027093940260939302109223
:1008D0009602409395021092970290919702880F8A
:1008E000892B8093970280919102813011F51092AB
:1008F0009102809197028093BB008091BC0083FDA0
:10090000F8CF85EC8093BC00222321F080919002E7
:100910008230D1F380918F028F3F79F080918F02E6
:10092000803269F080918F02803359F084E00F911A
:10093000089585EEE7CF81E0FACF80E0F8CF82E03E
:10094000F6CF83E0F4CF4132E0F59091900291111F
:10095000FCCF91E090939002209392022FEF20938E
:100960008F02709394026093930210929602240F68
:10097000209395029093970290919702880F892B6C
:1009800080939702809191028130C9F41092910274
:10099000809197028093BB008091BC0083FDF8CFCB
:1009A00085EC8093BC00809190028130E1F38091CE
:1009B0009602841710F440919602842F089585EED4
:1009C000F0CF40E0FACFE0918104F09182043097BB
:1009D00029F010927E0410927F0409940895DC019E
:1009E0008091830490918404892B19F1909179046A
:1009F00080917A049817E8F090E0292F30E02617CC
:100A000037076CF4FD01E20FF31F4081E09177049A
:100A1000F0917804E20FF31F40839F5FEECF1092B6
:100A2000790460937A04E0918304F0918404CB010B
:100A3000099408950895DC015096EC9150975196D1
:100A40008C915197E81748F41E968D919C91E80F70
:100A5000F92FF11D808190E008958FEF9FEF0895A9
:100A6000FC01908981892FEF3FEF981740F4A6850C
:100A7000B785A90FB11D2C9130E09F5F908BC90104
:100A80000895FC0181899089891B990B0895CF9263
:100A9000DF92EF92FF920F931F93CF93DF938C011E
:100AA000CB017A01D80157962C915797222389F0D0
:100AB000EB016B01C40ED51ECC15DD0579F06991F3
:100AC000D801ED91FC910190F081E02DC8010995CC
:100AD000F3CF9896ED91FC91642F0995C701DF91B2
:100AE000CF911F910F91FF90EF90DF90CF900895DD
:100AF000CF93DF931F92CDB7DEB7FC01698387895F
:100B00008823F9F02689848595852817190654F0DD
:100B100081E090E09383828390E080E00F90DF910A
:100B2000CF9108958981A58923893489A20FB32F94
:100B3000B11D8C9385898F5F858B868B81E090E0DA
:100B4000EDCF00A4F1A5E02D61E0CE01019609955D
:100B5000F5CFCF93DF93EC0119A281E088A3188E23
:100B6000198E1A8E1B8E1C8E1D8E1E8E1F8EE98175
:100B700088EF8E0F863038F182EF8E0F863008F4C2
:100B800066C0E83008F468C0EC85FD8590818889EE
:100B900080958923808382E090E00E948703EC8522
:100BA000FD8580819889892B80838AE090E00E946E
:100BB0008703EC85FD8590818889809589238083D2
:100BC000DF91CF91089540E090912C02953080F410
:100BD00021E0290F20932C02A92FB0E0AA0FBB1F00
:100BE000A25DBD4FCD93DC93F0E0E85CFD4F9083B8
:100BF0009091680021E030E0B901042E01C0660F39
:100C00000A94EAF7962B90936800B90102C0660F28
:100C1000771F8A95E2F7CB01411107C090916B00D5
:100C2000892B80936B0083B1AFCF413049F4909111
:100C30006C00892B80936C0086B180932D02A4CF29
:100C400090916D00892B80936D0089B19DCF41E01B
:100C50008F3F09F499CFB8CF8E2F42E0F9CFCF93D1
:100C6000DF93EC01E989FA8980819F89892349F022
:100C70000E949203688F798F8A8F9B8FDF91CF912B
:100C800008950E9492036C8F7D8F8E8F9F8F81E0DD
:100C900089A318A20E94EA0368A779A78AA79BA73D
:100CA000EDCFFC01838D20E031E0281B31094CE0C1
:100CB000429FC001439F900D112465E070E00E94A7
:100CC0001C146E5F7F4F072E000C880B990B0C9441
:100CD000B7030F931F93CF93DF93EC01888599851A
:100CE000892BD9F40E9492030C811D812E813F81B2
:100CF000DC01CB01801B910BA20BB30B809590956F
:100D0000A095B0958827B7FD83959927AA27BB277B
:100D1000DF91CF911F910F9108950E94EA03E4CFD4
:100D20000F931F93CF93DF93EC01488359836A831A
:100D30007B8381E090E0998788870E94EA0308819D
:100D400019812A813B81DC01CB01800F911FA21FF9
:100D5000B31F8C839D83AE83BF83DF91CF911F919F
:100D60000F91089590E080E00895FF920F931F93F4
:100D7000CF93DF93CDB7DEB72A970FB6F894DEBFD7
:100D80000FBECDBF8C01F62EFC014785508970E067
:100D900060E021E030E0CE0101960E949006F8016B
:100DA000EB59FF4F108235960190F081E02DC8017C
:100DB0000995F5E0FA95F1F70000F801EA59FF4FBF
:100DC0000190F081E02DC801099585E08A95F1F741
:100DD0000000FF20B1F0BE016F5F7F4FC8010E948D
:100DE0001C07811116C082E090E02A960FB6F89495
:100DF000DEBF0FBECDBFDF91CF911F910F91FF904E
:100E00000895F801E459FF4F0190F081E02DC801E9
:100E10000995E5E0EA95F1F70000F801E859FF4F80
:100E20000190F081E02DC8010995F5E0FA95F1F700
:100E3000000090E080E0D9CFEF92FF920F931F93D4
:100E4000CF93DF93EC018B01FC01E459FF4F01903C
:100E5000F081E02D09957E0180E7E80EF11CD701B5
:100E6000ED91FC91CE010995811111C0C8010E943C
:100E700069068823A1F360E0CE010E94B50680E0F8
:100E8000DF91CF911F910F91FF90EF90089581E036
:100E9000F7CF8F929F92AF92BF92CF92DF92EF9255
:100EA000FF920F931F93CF93DF93CDB7DEB72A97AF
:100EB0000FB6F894DEBF0FBECDBF8C01E62EDC016D
:100EC0001F964D915C9170E060E021E030E0CE0132
:100ED00001960E94900698E0F92E6801BAE6CB0EC2
:100EE000D11C5801E6E6AE0EB11C4801F8E68F0EA3
:100EF000911CD601ED91FC91C8010995D401E7FE42
:100F0000D501ED91FC91C8010995B5E0BA95F1F7CD
:100F10000000BE016F5F7F4FC8010E941C07811156
:100F200017C082E0E82EF12CC7012A960FB6F8947C
:100F3000DEBF0FBECDBFDF91CF911F910F91FF900C
:100F4000EF90DF90CF90BF90AF909F908F900895DB
:100F5000E5E0EA95F1F70000EE0CCE0101960E9463
:100F60006906882329F061E0C8010E94B506D9CF3F
:100F7000FA94F110BECFD601ED91FC91C80109950C
:100F8000F801E859FF4F0190F081E02DC801099563
:100F9000B5E0BA95F1F70000BE016F5F7F4FC80161
:100FA0000E941C07882309F4BCCFF801E259FF4FC7
:100FB0000190F081E02DC801099591E0811101C0F7
:100FC00090E0E92EE5E0EA95F1F70000D601ED9119
:100FD000FC91C8010995A8CF1F93CF93DF93EC0133
:100FE000162FFC01EA59FF4F0190F081E02D099581
:100FF00085E08A95F1F70000FE01E659FF4F019068
:10100000F081E02DCE01099585E08A95F1F7000089
:10101000612FCE01DF91CF911F910C944907FF9270
:101020000F931F93CF93DF93CDB7DEB72A970FB6F9
:10103000F894DEBF0FBECDBF8C01F62EFC014785B4
:10104000508970E060E021E030E0CE0101960E941E
:101050009006F801E659FF4F0190F081E02DC8019C
:101060000995F5E0FA95F1F70000F801E859FF4F0E
:101070000190F081E02DC801099585E08A95F1F78E
:101080000000BE016F5F7F4FC8010E941C078823CC
:1010900001F1E5E0EA95F1F70000F801EA59FF4FA8
:1010A0000190F081E02DC8010995F5E0FA95F1F77E
:1010B00000006F2DC8010E9449072A960FB6F894C8
:1010C000DEBF0FBECDBFDF91CF911F910F91FF907B
:1010D000089582E090E0F1CF2F923F924F925F927D
:1010E0006F927F928F929F92AF92BF92CF92DF9238
:1010F000EF92FF920F931F93CF93DF93CDB7DEB79D
:101100002F970FB6F894DEBF0FBECDBF8C014B8773
:10111000FC01E05CFF4F10826C0181E4C80ED11C21
:10112000D6011C92660F6F5FB5968081882309F403
:1011300089C0C8010E940F08892B09F064C078019A
:10114000512C5801BAE6AB0EB11C1801E8E62E0E80
:10115000311C3801F0E76F0E711CC80182599F4F96
:101160009D878C87AB85A150BB0B4D01F801EA59D7
:10117000FF4FFF87EE87D801DF968C91DF975816D7
:1011800008F041C0F701178E1F964D915C9170E0F9
:1011900060E021E030E0CE0101960E94900688E0F8
:1011A000482ED7015F968C915F97880F5F968C933E
:1011B000D501ED91FC91C8010995D101ED91FC910A
:1011C000C8010995B5E0BA95F1F70000BE016F5F5F
:1011D0007F4FC8010E941C078823A9F0E5E0EA952B
:1011E000F1F70000D301ED91FC91C801099581113F
:1011F0002DC0CE0101960E946906882399F361E013
:10120000C8010E94B50661E0C8010E94B506D6017A
:101210008C912F960FB6F894DEBF0FBECDBFDF9135
:10122000CF911F910F91FF90EF90DF90CF90BF90E3
:10123000AF909F908F907F906F905F904F903F9076
:101240002F900895C8010E94EC0776CFAC85BD852C
:10125000ED91FC91C8010995882321F0F701878D54
:101260008160878F4A9441109CCFD501ED91FC910C
:10127000C8010995C701801B910BAE85BF858816F3
:10128000990609F4D101ED91FC91C8010995B5E0E9
:10129000BA95F1F70000BE016F5F7F4FC8010E9451
:1012A0001C07882309F4AFCFE5E0EA95F1F70000C9
:1012B000D301ED91FC91C8010995811107C0CE01C0
:1012C00001960E946906882399F399CFB5E0BA95F3
:1012D000F1F70000D501ED91FC91C8010995F601E7
:1012E00080818F5F80835394FFEFEF1AFF0A8B8515
:1012F000851141CF88CFEF92FF921F93CF93DF9359
:10130000EC01FC01EE5BFF4F6081660FB3968081BC
:101310008823A9F0CE010E940F0812E081309105C8
:1013200019F0029781F414E061E0CE010E94B50645
:10133000812FDF91CF911F91FF90EF900895CE0103
:101340000E94EC07EACF10E07E0184E6E80EF11C73
:10135000F7018081181780F4FE01E10FF11DED5BAC
:10136000FF4F6081CE010E9449078130910531F025
:101370000297C9F21F5FECCF10E0D6CF13E0D4CFB5
:10138000CF92DF92EF92FF920F931F93CF93DF9351
:10139000CDB7DEB728970FB6F894DEBF0FBECDBF2E
:1013A0008C01DC0156968D919C915797FC01EE5B68
:1013B000FF4F29E220838C599F4FFC0110825696E3
:1013C0008D919C91DC01ED91FC910190F081E02DDB
:1013D00064E90995F801868997890E947B09D801FB
:1013E00019968C93199748E069E256968D919C91D5
:1013F0000E946C08FE0131967F016E01F9E0CF0E6C
:10140000D11CD80156968D919C91DC01ED91FC91F7
:101410000284F385E02D0995F70181937F01EC1596
:10142000FD0579F789819A81D80151969C938E9315
:1014300050978B819C811B969C938E931A978D81DC
:101440009E811D969C938E931C978F8198851F96E5
:101450009C938E931E970E94EA03F801628B738B14
:10146000848B958B28960FB6F894DEBF0FBECDBF48
:10147000DF91CF911F910F91FF90EF90DF90CF9070
:1014800008950F931F93CF93DF9300D0CDB7DEB7AE
:101490008C0180E889836A83D80156968D919C914E
:1014A0005797FC01EE5BFF4F29E220838C599F4F39
:1014B000FC01108256968D919C91DC01ED91FC917E
:1014C0000280F381E02D42E050E0BE016F5F7F4F6C
:1014D0000995F801868997890E947B09D801199698
:1014E0008C930F900F90DF91CF911F910F910895E2
:1014F00063E00C94410A61E00C94410ACF93DF93BE
:10150000EC018F8198852C85FC01EE5BFF4F2083D9
:101510008C599F4FDC011C928F819885DC01ED91E5
:10152000FC910190F081E02D09958F8198850E94B2
:101530007B09888341E06C858F8198850E946C08C7
:101540008F819885DC01ED91FC910284F385E02D7B
:101550000995DF91CF9108951F93CF93DF93EC010D
:10156000142F8F8198852C85FC01EE5BFF4F208323
:101570008C599F4FDC011C928F819885DC01ED9185
:10158000FC910190F081E02D09958F819885DC0117
:10159000ED91FC910190F081E02D612F09958F81F3
:1015A00098850E947B098883DF91CF911F910895D0
:1015B0000F931F93CF93DF93EC010E94EA037F8B7D
:1015C0006E8B63E1CE010E947E0A8770C9F48B891D
:1015D0009C89892BB1F30E94EA032E893F89621B03
:1015E000730B8B899C898617970758F781E08D8B41
:1015F0000FEF1FEFC801DF91CF911F910F91089559
:101600008F8198852C85FC01EE5BFF4F20838C59E0
:101610009F4FDC011C928F819885DC01ED91FC913C
:101620000190F081E02D6EE109958F8198850E94EF
:101630007B09888342E06C858F8198850E946C08C5
:101640008F819885DC01ED91FC910284F385E02D7A
:10165000099500E0182F8F819885DC01ED91FC91B0
:101660000284F385E02D0995082B192B41E06BE0EE
:10167000CE010E94AC0ABECF0F931F93CF93DF938E
:10168000EC010E94EA030B811C812D813E81601BCD
:10169000710B820B930B653671058105910508F47A
:1016A0004DC041E060E8CE010E94AC0A41E06FEF1E
:1016B000CE010E94AC0A40E060E0CE010E94AC0A7C
:1016C000488D61E9CE010E94AC0A41E060E0CE01A4
:1016D0000E94AC0A40E06FEFCE010E94AC0A40E0ED
:1016E00060E8CE010E94AC0A41E060E0CE010E94B9
:1016F000AC0A0E94EA037F8B6E8B60E0CE010E94F1
:101700007E0A80FF22C08B899C89892BB1F30E94BD
:10171000EA032E893F89621B730B8B899C8986178C
:10172000970758F781E08D8B8FEF9FEF9A8389831E
:101730000E94EA036B837C838D839E8389819A81D7
:10174000DF91CF911F910F910895CE010E94D80A89
:10175000EDCFCF93DF93EC018E899F89FC01EE5B87
:10176000FF4F29E220838C599F4FDC011C928E8908
:101770009F89DC01ED91FC910190F081E02D60E802
:1017800009958E899F890E947B09898741E069E2DA
:101790008E899F890E946C088E899F89DC01ED915A
:1017A000FC910284F385E02D0995682F6C7FCE01B2
:1017B000DF91CF910C94410A2F923F924F925F920A
:1017C0006F927F928F929F92AF92BF92CF92DF9251
:1017D000EF92FF920F931F93CF93DF93EC010E9440
:1017E0007B0A63E070E080E090E00E94B703CE01E6
:1017F0000E94780ACE010E945106CE010E94C009C3
:10180000EA84FB840C851D858E849F8448885988D2
:10181000CE010E94A90BCE010E947B0A63E070E01A
:1018200080E090E00E94B703CE010E94780A8C8D80
:101830000E94F60060E08C8D0E944A02CE010E9458
:101840005106CE010E94C009AA84BB84CC84DD84E9
:101850006E847F8428883988CE010E94A90BEA18FB
:10186000FB0821E0E2162AEFF20608F099C0FB8699
:10187000EA860C191D0901308AEF180708F093C099
:101880001D870C87C4018619970981302AEF9207BA
:1018900008F08CC09F878E874218530881E0481655
:1018A0008AEF580608F085C0598A488A2A853B8500
:1018B0000C851D85CE84DF84E888F98821308AEF85
:1018C000380710F01B861A86AFEFB0E00E940D14A7
:1018D0002881398150E040E00E94EB1329013B87C9
:1018E0002A879801AFEFB0E00E940D142A813B8156
:1018F00050E040E00E94EB1389013D872C87960160
:10190000AFEFB0E00E940D142C813D8150E040E02B
:101910000E94EB1369013F872E879701AFEFB0E07C
:101920000E940D142E813F8150E040E00E94EB1395
:10193000C901398B288B2FEF4216510429F020F072
:101940002FEF30E03B872A870F3F110529F020F069
:101950002FEF30E03D872C872FEFC216D10429F0FE
:1019600020F02FEF30E03F872E878F3F910529F041
:1019700020F08FEF90E0998B888BDF91CF911F91B2
:101980000F91FF90EF90DF90CF90BF90AF909F901E
:101990008F907F906F905F904F903F902F90089521
:1019A0001B861A8666CF1D861C866CCF1F861E86F8
:1019B00073CF198A188A7ACFFC0101900020E9F7C9
:1019C0003197AF01481B590BBC0182EA92E00C949D
:1019D00015018F929F92AF92BF920F931F93CF9357
:1019E000DF93CDB7DEB7A1970FB6F894DEBF0FBE79
:1019F000CDBF19A2423008F44AE08E010F5D1F4F9F
:101A0000842E912CB12CA12CA50194010E94EB13E2
:101A1000E62FB901CA01EA30F4F4E05DD801EE9393
:101A20008D01232B242B252B79F790E080E0109754
:101A300019F0CD010E94DC0CA1960FB6F894DEBF20
:101A40000FBECDBFDF91CF911F910F91BF90AF908F
:101A50009F908F900895E95CE1CFBC0190E080E019
:101A60004AE00C94E90CCF93DF93D0E0C0E00097FC
:101A700019F00E94DC0CEC018EE291E00E94DC0C7B
:101A80008C0F9D1FDF91CF910895CF93DF930E941C
:101A9000F801EC018EE291E00E94DC0C8C0F9D1F9E
:101AA000DF91CF9108950C94DC0CCF93DF930E94CB
:101AB0002D0DEC018EE291E00E94DC0C8C0F9D1F3D
:101AC000DF91CF9108951F920F920FB60F921124BC
:101AD0002F933F934F935F936F937F938F939F9336
:101AE000AF93BF93EF93FF9382EA92E00E94890144
:101AF000FF91EF91BF91AF919F918F917F916F91E6
:101B00005F914F913F912F910F900FBE0F901F90BB
:101B100018951F920F920FB60F9211242F938F9347
:101B20009F93EF93FF93E091B202F091B302808113
:101B3000E091B802F091B90282FD1BC090818091C2
:101B4000BB028F5F8F732091BC02821741F0E0913E
:101B5000BB02F0E0EE55FD4F958F8093BB02FF91E5
:101B6000EF919F918F912F910F900FBE0F901F902B
:101B700018958081F4CF1F920F920FB60F92112407
:101B80002F933F938F939F93AF93BF93809199022D
:101B900090919A02A0919B02B0919C023091980280
:101BA00023E0230F2D3768F126E8230F0296A11DAD
:101BB000B11D209398028093990290939A02A0936A
:101BC0009B02B0939C0280919D0290919E02A091F5
:101BD0009F02B091A0020196A11DB11D80939D02AC
:101BE00090939E02A0939F02B093A002BF91AF91E9
:101BF0009F918F913F912F910F900FBE0F901F904B
:101C000018950196A11DB11DD4CF1F920F920FB64A
:101C10000F9211242F933F934F935F936F937F9372
:101C20008F939F93AF93BF93EF93FF938091B900EE
:101C3000887F803609F44CC008F03FC0883209F430
:101C4000A8C018F5803109F49CC0B8F4882309F4C1
:101C500005C1883009F495C0FF91EF91BF91AF9114
:101C60009F918F917F916F915F914F913F912F91B4
:101C70000F900FBE0F901F901895883109F489C0FE
:101C8000803251F780938F0215C0803409F4A6C0CA
:101C900048F48033B9F38833F9F680938F020E94B9
:101CA000F000DACF803509F489C0883509F49EC088
:101CB000883491F60E94E600CFCF883909F494C0A9
:101CC00038F5883729F050F4883611F0803721F63E
:101CD00083E08093900210928E0257C0883809F4F6
:101CE00083C0803919F0803809F0B6CF80918E0218
:101CF000803208F079C0E0918E0281E08E0F8093EF
:101D00008E028091BB00F0E0E259FD4F80833DC020
:101D1000803B39F0E0F4803A09F485C0883A09F054
:101D20009BCF84E08093900210926D0210926C021F
:101D3000E0914103F0914203099580916C02811179
:101D40000FC081E080936C0210924C0209C0803C6D
:101D500009F482C0883C09F47FC0883B09F07CCF3D
:101D6000E0916D0281E08E0F80936D02F0E0E45B04
:101D7000FD4F80818093BB0090916D0280916C0239
:101D800031C0809197028093BB0085EC8093BC00AA
:101D900063CF90919602809195029817B8F5809143
:101DA000930290919402E091960221E02E0F2093ED
:101DB0009602E80FF92FF11D8081E5CF2091930263
:101DC00030919402E091960281E08E0F809396020A
:101DD0008091BB00E20FF32FF11D8083909196025A
:101DE00080919502981788F285E8D0CF20919302D0
:101DF00030919402E091960281E08E0F80939602DA
:101E00008091BB00E20FF32FF11D8083809192023D
:101E1000811150CF81E08093910284EA8093BC00CD
:101E20001092900219CF0E94F00080918E028032B1
:101E300030F4E0918E02F0E0E259FD4F10826091A3
:101E40008E0270E0E0913F03F09140038EE692E055
:101E5000099510928E0200CF85ECE0CF10928F0290
:101E600029CF1F920F920FB60F9211242F933F93F9
:101E70004F935F936F937F938F939F93AF93BF9392
:101E8000EF93FF93E0913B02F0E0EE0FFF1FE25D66
:101E9000FD4F80819181009711F00E942F06FF91E4
:101EA000EF91BF91AF919F918F917F916F915F91D2
:101EB0004F913F912F910F900FBE0F901F9018954B
:101EC0001F920F920FB60F9211242F933F934F93AF
:101ED0005F936F937F938F939F93AF93BF93CF93B2
:101EE000EF93FF9386B1C0912D02C82780932D02F6
:101EF000C1FF0DC0E0914702F0E0EE0FFF1FE25D71
:101F0000FD4F80819181009711F00E942F06C3FF41
:101F10000DC0E0914902F0E0EE0FFF1FE25DFD4FC2
:101F200080819181009711F00E942F06C5FF0DC09E
:101F3000E0914B02F0E0EE0FFF1FE25DFD4F80816C
:101F40009181009711F00E942F06FF91EF91CF91A0
:101F5000BF91AF919F918F917F916F915F914F91C1
:101F60003F912F910F900FBE0F901F9018951F92C9
:101F70000F920FB60F9211242F933F934F935F93BD
:101F80006F937F938F939F93AF93BF93EF93FF9341
:101F9000E0914102F0E0EE0FFF1FE25DFD4F808116
:101FA0009181009711F00E942F06FF91EF91BF9150
:101FB000AF919F918F917F916F915F914F913F91E1
:101FC0002F910F900FBE0F901F9018951F920F9298
:101FD0000FB60F9211240F900FBE0F901F901895FF
:101FE0008091500390915103009711F00E94ED14DD
:101FF00080918B03882379F080918A0328EF280F42
:10200000263008F44EC022EF280F263098F1282FF2
:1020100032E0883080F180914104882321F061E032
:102020008BE00E944A028091420490914304009701
:1020300011F00E94ED148091640490916504009762
:1020400011F00E94ED1480E291E090936A04809375
:1020500069048091770490917804009711F00E94B0
:10206000ED1480917C0490917D04009709F43CC0AC
:102070000C94ED1431E081E090E001C0880F2A95C6
:10208000EAF78095313019F590916C00892380939F
:102090006C0080916C008111BECF809168008D7FB3
:1020A00013C030916B0081E090E001C0880F2A9549
:1020B000EAF78095832380936B0080916B008111F8
:1020C000AACF809168008E7F80936800A4CF909102
:1020D0006D00892380936D0080916D0081119BCFED
:1020E000809168008B7FF0CF0895EF92FF920F935D
:1020F0001F93CF93DF931092A5021092A40288EE53
:1021000093E0A0E0B0E08093A6029093A702A09392
:10211000A802B093A9022EE031E03093A3022093ED
:10212000A20225EC30E03093AF022093AE0224EC03
:1021300030E03093B1022093B00220EC30E03093D5
:10214000B3022093B20221EC30E03093B502209329
:10215000B40222EC30E03093B7022093B60226ECB2
:1021600030E03093B9022093B8021092BB02109273
:10217000BC021092BD021092BE0210926C0410922A
:102180006B0480936D0490936E04A0936F04B093DE
:10219000700480E291E090936A048093690480E285
:1021A00090E090937604809375040E94511490936C
:1021B0007804809377041092790410927A04109234
:1021C0007B0480E290E00E94511490937D04809300
:1021D0007C0410927E0410927F041092800485EBA0
:1021E00092E0909386048093850483ED92E090932F
:1021F00088048093870487EC90E090938A0480930E
:1022000089048BEC90E090938C0480938B0483EA98
:1022100094E090938E0480938D0483E594E09093F2
:10222000900480938F048CE294E0909392048093C6
:1022300091048EED90E0909394048093930486EE45
:1022400090E0909396048093950480EF90E09093B3
:102250009804809397048FEE94E0909340038093CA
:102260003F0383EE94E090934203809341031092E6
:102270006504109264041092660410926704109230
:10228000680410924404109245048AE0E6E4F4E005
:10229000DF01982F1D929A95E9F7E0E5F4E0DF0160
:1022A000982F1D929A95E9F7EAE5F4E0DF011D9277
:1022B0008A95E9F78CE090E00E945114FC01AC0192
:1022C000445F5F4F6FEFC8EBDBE020914F0324309A
:1022D00008F014C131E0320F30934F03208330E017
:1022E000D901AA0FBB1FA20FB31FAD5BBC4F129643
:1022F000DC93CE9311973396E417F50731F790935B
:1023000043048093420410924104109234041FEF5E
:1023100010933704C2E0D0E0D0933604C093350464
:102320008EE0809338048FE08093390461E371E09C
:102330008BE394E00E94761501E000933A0410923A
:102340000F0410931204D0931104C093100480E181
:102350008093130481E18093140467E371E086E1C4
:1023600094E00E94761582E0E82EE0921504109227
:10237000EA031093ED03D093EC03C093EB0318E052
:102380001093EE03D6E0D093EF036DE371E081EF9D
:1023900093E00E947615C3E0C093F0031092B70358
:1023A0001092B6031092B8031092B9031092BA03B8
:1023B0001092BB0399E2F92EF092C1031092C90367
:1023C0001092C8031092CA031092BD031092BC036E
:1023D000E092BE03C093BF0363E471E082EC93E03C
:1023E0000E94761584E08093C00388E39AE4A0E01D
:1023F000B0E08093910390939203A0939303B093E2
:10240000940382E18093890383E180938A0369E4E2
:1024100071E08CE893E00E94761510928B03109285
:10242000A9031092AA031092A1031092A203109282
:10243000A3031092A4031092A5031092A603109276
:10244000A7031092A8031092AB031092AC03109252
:10245000AD031092AE0310926E0310926D031092B2
:102460006F03109270031092710310927203F09236
:1024700078031092800310927F03109281031092D0
:1024800074031092730310937503D09376036DE376
:1024900071E089E793E00E947615C093770310926C
:1024A0005103109250031092520310925303109252
:1024B00054030093550384E690E0A0E0B0E08093DD
:1024C000680390936903A0936A03B0936B0310921F
:1024D00061031092600310926303109262031092E2
:1024E0006503109264031092670310926603DF91F4
:1024F000CF911F910F91FF90EF9008956083FBCED5
:10250000789484B5836084BD85B5836085BD8091F2
:102510006E00816080936E0092E0909381008091C4
:102520008100816080938100809180008160809330
:1025300080008091B10084608093B1008091B000F0
:1025400081608093B00080919100836080939100BE
:10255000809190008160809390008091A1008360C1
:102560008093A1008091A00081608093A00087E803
:1025700080937A001092C100E091B202F091B30210
:102580009083E091AE02F091AF021082E091B00230
:10259000F091B10280E180831092BA02E091B6021C
:1025A000F091B70286E08083E091B402F091B50229
:1025B000808188698083E091B402F091B5028081C6
:1025C0008F7D808380918100887F856080938100EA
:1025D00089E00E94F60087E00E94F6008AE00E94EF
:1025E000F60084E00E94F6008EE491E00E94330D34
:1025F00084E691E00E94530D8AE10E94750327E171
:1026000033E1DC010E94361428EE33E040E050E074
:102610000E94EB1369017A014AE0C701B6010E94EA
:10262000E90C88E791E00E94330D21EDC21627E006
:10263000D206E104F10408F0A1C08CE791E00E9409
:10264000330D8AE10E94750327E133E1DC010E942A
:1026500036146834774E8641910538F46DE770E0A2
:1026600080E090E00E94B703ECCF88EC91E00E94FC
:10267000330DC0900601D0900701E0900801F09062
:102680000901C0914204D091430488818430E0F56F
:102690008DE00E94F600E8818E2F90E0FC01EE0FA5
:1026A000FF1FE80FF91FED5BFC4F8081807C8D6080
:1026B000808319821A8290E080E0FC01EE0FFF1FF8
:1026C000E80FF91FED5BFC4F208126FD10C001963D
:1026D0008430910591F71092800082E08093810010
:1026E000109285001092840086BB80936F00E88171
:1026F0008E2F90E0FC01EE0FFF1FE80FF91FED5B3E
:10270000FC4F8081806480838FEC90E00E94F80110
:10271000C7010E94330DC091A102CF5FC093A102F7
:102720006AE070E080E090E00E94B703D0E0809122
:10273000450490914404992309F445C066277727FE
:102740006C1B7D0B811143C077FD2FC089E00E9477
:10275000E00260E087E00E944A02BE01D7FD2CC083
:102760008AE00E94E00260E084E00E944A028091D8
:102770009400909195000E94550DCDCF81EDC81A1F
:1027800087E0D80AE108F1082BE4C21624E0D2065B
:10279000E104F10408F06DCF8BEE91E00E94330D5F
:1027A0008AEF91E00E94330DFFCF61507F4F89E0A7
:1027B0000E94E00261E0CECF61507F4F8AE00E942C
:1027C000E00261E0D1CFBE01882309F4BFCFD195EB
:1027D000C195D109B9CFA1E21A2EAA1BBB1BFD01DD
:1027E0000DC0AA1FBB1FEE1FFF1FA217B307E407F0
:1027F000F50720F0A21BB30BE40BF50B661F771F48
:10280000881F991F1A9469F7609570958095909527
:102810009B01AC01BD01CF010895A29FB001B39F00
:10282000C001A39F700D811D1124911DB29F700DD9
:10283000811D1124911D089597FB072E16F4009415
:1028400007D077FD09D00E943D1407FC05D03EF467
:10285000909581959F4F0895709561957F4F08954C
:10286000EE0FFF1F0590F491E02D09940E940D14C6
:10287000B7FF0895821B930B0895AA1BBB1B51E160
:1028800007C0AA1FBB1FA617B70710F0A61BB70BE0
:10289000881F991F5A95A9F780959095BC01CD0185
:1028A00008950F931F93CF93DF938230910510F417
:1028B00082E090E0E0919B04F0919C0430E020E005
:1028C000B0E0A0E0309799F42115310509F44AC031
:1028D000281B390B24303105D8F58A819B8161157D
:1028E000710589F1FB0193838283FE0111C0408150
:1028F00051810281138148175907E0F048175907A1
:1029000099F4109761F012960C93129713961C93FA
:102910003296CF01DF91CF911F910F9108950093CF
:102920009B0410939C04F4CF2115310551F04217FC
:10293000530738F0A901DB019A01BD01DF01F8015D
:10294000C1CFEF01F9CF90939C0480939B04CDCF2E
:10295000FE01E20FF31F81939193225031093983D5
:102960002883D7CF2091990430919A04232B41F4E6
:10297000209102013091030130939A04209399042D
:1029800020910001309101012115310541F42DB74D
:102990003EB74091040150910501241B350BE09195
:1029A0009904F0919A04E217F307A0F42E1B3F0B51
:1029B0002817390778F0AC014E5F5F4F24173507B1
:1029C00048F04E0F5F1F50939A04409399048193EF
:1029D00091939FCFF0E0E0E09CCFCF93DF930097FF
:1029E000E9F0FC01329713821282A0919B04B0910E
:1029F0009C04ED0130E020E01097A1F420813181AA
:102A0000820F931F2091990430919A042817390757
:102A100009F061C0F0939A04E0939904DF91CF919B
:102A20000895EA01CE17DF07E8F54A815B819E0130
:102A300041155105B1F7E901FB83EA8349915991A9
:102A4000C40FD51FEC17FD0761F4808191810296B8
:102A5000840F951FE90199838883828193819B83E9
:102A60008A83F0E0E0E012968D919C911397009795
:102A7000B9F52D913C911197CD010296820F931FCC
:102A80002091990430919A042817390739F6309724
:102A900051F510929C0410929B04B0939A04A09359
:102AA0009904BCCFD383C28340815181840F951F89
:102AB000C817D90761F44E5F5F4F88819981480F2D
:102AC000591F518340838A819B819383828321157F
:102AD000310509F0B0CFF0939C04E0939B049ECFA6
:102AE000FD01DC01C0CF13821282D7CFFB01DC01D4
:102AF00001900D920020E1F7089510E0CCE9D0E0BC
:102B000004C0FE010E9430142196CD39D107C9F7C7
:102B1000F894FFCF00009D048000010D2302000007
:102B20000000AB011501420113027301510165015F
:102B30000000000078054705B2061A05410530057A
:102B40001B050D0A004932432D31004932432D3215
:102B5000004932432D33004932432D340055532D63
:102B6000350048656C6C6F2C20427269636B205392
:102B7000696D706C6573210054656E73616F2064BC
:102B80006120626174657269613A2000206D5600AF
:102B9000427269636B206C696761646F2061706564
:102BA0006E6173206E61205553422C2070617261FA
:102BB00020656C652066756E63696F6E61722C208E
:102BC0006C696775652061206368617665206C6952
:102BD00067612F6465736C6967612E004272696377
:102BE0006B206C696761646F2C20636F6D65C3A790
:102BF000616E646F206F2063C3B36469676F0042C6
:102C00006174657269612066726163612100436F5E
:102C10006C6F717565206F20627269636B207061E3
:102C200072612063617272656761722065206167FD
:0A2C300075617264652E00533100D7
:107E8000112424B614BE80E079D021FEEBC08EE030
:107E900075D0E0ECF0E0AFE7BFEF4899FECF9096E9
:107EA000489BFDCFB4831197F1F7B2E0B083B8E1FE
:107EB000B18352D0C82F823569F466D0E0E0FEE786
:107EC000A89583E093D091D0E058F109C8F788E7EE
:107ED0003CD0EFCF8D7FD9F44CD0D82FA0E0B1E0CB
:107EE0003BD08D93DA13FCCFA0E0B1E04DD0C111AF
:107EF0000CC0F2BDE1BD8D9180BDFA9AF99A319620
:107F0000F999FECFD150A9F7E2CF48D0E0CFC330E6
:107F100041F42FD0C82F38D0859117D0C150E1F748
:107F2000D6CFC13061F425D0C82F2ED0F2BDE1BD2F
:107F3000F89A80B50AD03196C150C1F7C8CFC13583
:107F400011F488E01BD020D0C2CF9091C00095FFE3
:107F5000FCCF8093C60008952D9A259A8091C00089
:107F600087FFFCCF84FD13C0A8958091C6002D9893
:107F70000895F2DFE82FF0DFF82FEECF98E190932D
:107F80006000809360000895E7DF803219F088E098
:107F9000F5DFFFCF80EAD9CFFB01DC01E07870E8A4
:107FA0007A0F9F01E0388EE7F80728F5309629F41C
:107FB0008FE38D938FEC8C93119790E045915D91B9
:107FC00045139160A713FACFF901A058B10990FFAA
:107FD00012C083E00BD081E00D901D9007D0329647
:107FE000A713FACFF90185E001D081E187BFE895B9
:107FF00017B610FCFDCF112408950319CDCFE7402B
:00000001FF
