:020000040000FA
:100000000C949A000C94C2000C94C2000C94F30D52
:100010000C94840D0C944D0D0C94C2000C942A0E7B
:100020000C94C2000C94C2000C94C2000C94C20048
:100030000C94C2000C94C2000C94C2000C94C20038
:100040000C94E80B0C94C2000C94B60B0C94900B1F
:100050000C94C2000C94C2000C94C2000C94C20018
:100060000C94320C0C94C2002054696D656F757449
:100070003A204461646F7320696E636F6D706C65C4
:10008000746F7320646F204769726F73636F706958
:100090006F0000000000240027002A000000000874
:1000A000000201000003040700000000000000003F
:1000B000536572766F20696E69636961646F206E43
:1000C0006120706F727461200054696D656F757482
:1000D0003A204461646F7320696E636F6D706C6564
:1000E000746F7320646F2053656E736F724C696E0A
:1000F00068610000000000230026002900000000C5
:1001000000250028002B0004040404040404040255
:1001100002020202020303030303030102040810A4
:100120002040800102040810200102040810200071
:10013000C50E4A1711241FBECFEFD8E0DEBFCDBFDA
:1001400012E0A0E0B1E0EAE1F2E302C005900D9216
:10015000A438B107D9F724E0A4E8B2E001C01D92A9
:10016000A438B207E1F710E0C9E9D0E004C0219754
:10017000FE010E94CE17C839D107C9F70E94EC0FC3
:100180000C9400190C940000AF92BF92CF92DF92B2
:10019000EF92FF920F931F93CF93DF936C017B013C
:1001A0008B01040F151FEB015E01AE18BF08C017CD
:1001B000D10759F06991D601ED91FC910190F08140
:1001C000E02DC6010995892B79F7C501DF91CF9103
:1001D0001F910F91FF90EF90DF90CF90BF90AF9065
:1001E0000895FC01538D448D252F30E0842F90E03D
:1001F000821B930B541710F0CF9608950197089522
:10020000FC01918D828D981761F0A28DAE0FBF2FEA
:10021000B11D5D968C91928D9F5F9F73928F90E040
:1002200008958FEF9FEF0895FC01918D828D9817AF
:1002300031F0828DE80FF11D858D90E008958FEFEC
:100240009FEF0895FC01918D228D892F90E0805CB5
:100250009F4F821B91098F739927089584E693E03D
:100260000E94220121E0892B09F420E0822F0895C9
:1002700080E090E0892B29F00E942E0181110C94DE
:1002800000000895FC01A48DA80FB92FB11DA35A39
:10029000BF4F2C91848D90E001968F739927848FA6
:1002A000A689B7892C93A089B1898C9183708064C9
:1002B0008C93938D848D981306C00288F389E02D6A
:1002C00080818F7D80830895EF92FF920F931F931B
:1002D000CF93DF93EC0181E0888F9B8D8C8D9813F9
:1002E0001AC0E889F989808185FF15C09FB7F89405
:1002F000EE89FF896083E889F98980818370806451
:1003000080839FBF81E090E0DF91CF911F910F919B
:10031000FF90EF900895F62E0B8D10E00F5F1F4FAA
:100320000F731127E02E8C8D8E110CC00FB607FCB9
:10033000FACFE889F989808185FFF5CFCE010E9447
:100340004201F1CFEB8DEC0FFD2FF11DE35AFF4F72
:10035000F0829FB7F8940B8FEA89FB8980818062D5
:10036000CFCF0F931F93CF93DF938C01D0E0C0E0EA
:10037000F801EC0FFD1F6491662341F084E693E0E1
:100380000E946401892B11F02196F2CFCE01DF91FA
:10039000CF911F910F910895CF93DF93EC01888D3A
:1003A0008823B9F0AA89BB89E889F9898C9185FDF0
:1003B00003C0808186FD0DC00FB607FCF7CF8C917E
:1003C00085FFF2CF808185FFEDCFCE010E944201F3
:1003D000E9CFDF91CF91089590E0FC01E456FF4F03
:1003E0002491FC01E55EFE4F3491FC01E95FFE4F74
:1003F000E491EE23C9F0222339F0233001F1A8F46F
:10040000213019F1223029F1F0E0EE0FFF1FE35007
:10041000FF4FA591B4918FB7F894EC91611126C06C
:1004200030953E233C938FBF08952730A9F02830A4
:10043000C9F0243049F7809180008F7D03C08091FE
:1004400080008F7780938000DFCF84B58F7784BD65
:10045000DBCF84B58F7DFBCF8091B0008F77809309
:10046000B000D2CF8091B0008F7DF9CF3E2BDACF94
:10047000CF93DF9390E0FC01E55EFE4F2491895F0E
:100480009E4FFC0184918823D1F090E0880F991F42
:10049000FC01EE56FF4FA591B491FC01E350FF4FD4
:1004A000C591D49161110EC09FB7F8948C91E22F41
:1004B000E0958E238C932881E223E8839FBFDF9110
:1004C000CF9108958FB7F894EC91E22BEC938FBF06
:1004D000F6CF8E50806480937C0080917A00806497
:1004E00080937A0080917A0086FDFCCF809178001D
:1004F0009091790008953FB7F89480913B039091D3
:100500003C03A0913D03B0913E0326B5A89B05C0D6
:100510002F3F19F00196A11DB11D3FBFBA2FA92F82
:10052000982F8827BC01CD01620F711D811D911D7F
:1005300042E0660F771F881F991F4A95D1F70895EB
:100540008F929F92AF92BF92CF92DF92EF92FF92E3
:100550006B017C010E947B024B015C01C114D10440
:10056000E104F104B9F00E947B02681979098A0953
:100570009B09683E73408105910580F321E0C21A12
:10058000D108E108F10888EE880E83E0981EA11CCE
:10059000B11CE4CFFF90EF90DF90CF90BF90AF9071
:1005A0009F908F9008952FB7F894609137037091C2
:1005B00038038091390390913A032FBF0895209119
:1005C000EC02260F3327331F21323105ECF4209142
:1005D0001003FC0190E080E0243069F082E008958F
:1005E000A091EC022191AC0144535D4FA40FB52FB3
:1005F000B11D2C930196861798F38091EC02680F39
:100600006093EC0280E0089581E0089508958FEFF3
:100610009FEF08958FEF9FEF08958091C50290E0BE
:100620009195819591090895CF93DF93CB01EA01CC
:10063000642F0E94DF02CE01DF91CF910895CF9306
:10064000DF931F92CDB7DEB7698361E0CE010196DB
:100650000E94DF0281E090E00F90DF91CF9108953A
:10066000E0914103F0914203309709F44DC0A78512
:10067000B089968581A581FF04C08C91892329F4D6
:1006800008958C91892309F03FC0A489B5899C9174
:100690008689809589238C9381A192A10197F1F796
:1006A00063A174A1A785B089568538E020E0CB010D
:1006B0000197F1F7822F90E095958795282F4C911F
:1006C000452309F02068315091F781A581FD2095DF
:1006D0008091400390E001968F73992730913F03FA
:1006E000381799F0A0914003B0E0AB57BD4F2C9361
:1006F0008093400385A196A10197F1F7A489B5895C
:100700008C919689892B8C93089581A5816081A70E
:10071000F1CF20914103309142032817390771F43A
:1007200090913F0380914003981741F0E0913F037F
:10073000F0E0EB57FD4F808190E008958FEF9FEF41
:1007400008950895EF92FF920F931F93CF93DF9335
:10075000DC019796ED90FC909897E114F10479F400
:1007600081E090E013969C938E93129790E080E046
:10077000DF91CF911F910F91FF90EF9008955296C6
:10078000ED91FC91539751968C915197982F90959C
:100790000FB799962C919997122F127021FD6095A1
:1007A000F8942081112319F1282B2083E701219748
:1007B000F1F728E0462F50E0308160FF1AC0382B57
:1007C0003083E7012197F1F7BA01759567952150BC
:1007D00089F7112381F08081892380830FBF979649
:1007E0008D919C910197F1F781E090E0C1CF292391
:1007F000DCCF3923E5CF9081892BEFCF20914103C6
:10080000309142032817390761F480914003209109
:100810003F0390E0805C9F4F821B91098F73992763
:10082000089590E080E008952091410330914203C3
:1008300028173907B9F490913F0380914003981726
:1008400089F0E0913F03F0E0EB57FD4F808120916C
:100850003F0330E02F5F3F4F2F73332720933F0339
:1008600090E008958FEF9FEF0895CF93DF93EC0111
:10087000E989FA8980819F89892349F00E947B0256
:10088000688F798F8A8F9B8FDF91CF9108950E9417
:100890007B026C8F7D8F8E8F9F8F81E089A318A242
:1008A0000E94D30268A779A78AA79BA7EDCFFC0176
:1008B000838D20E031E0281B31094CE0429FC001CC
:1008C000439F900D112465E070E00E949F176E5FBA
:1008D0007F4F072E000C880B990B0C94A0020F93EE
:1008E0001F93CF93DF93FC016FB7A685B78555851E
:1008F00090E080E02C91252349F00196238D348DE2
:1009000028173907B8F78FEF9FEF1EC083899489A6
:100910000197F1F70589168988E090E0E8012197B1
:10092000F1F7292F30E035952795922F4C914523EB
:1009300009F09068815091F70788F08DE02D31978C
:10094000F1F76FBF892F90E0DF91CF911F910F9149
:1009500008950F931F93CF93DF93EC0188859985BA
:10096000892BD9F40E947B020C811D812E813F814D
:10097000DC01CB01801B910BA20BB30B80959095F2
:10098000A095B0958827B7FD83959927AA27BB27FF
:10099000DF91CF911F910F9108950E94D302E4CF70
:1009A0000F931F93CF93DF93EC01488359836A839E
:1009B0007B8381E090E0998788870E94D302088139
:1009C00019812A813B81DC01CB01800F911FA21F7D
:1009D000B31F8C839D83AE83BF83DF91CF911F9123
:1009E0000F91089590E080E008951F93CF93DF93D7
:1009F00085ED8093BC008091C8029091C902A091BE
:100A0000CA02B091CB020796A11DB11D23E0B69595
:100A1000A795979587952A95D1F72091BC0024FD3D
:100A200003C01092100352C04091C8025091C902F5
:100A30006091CA027091CB02452B462B472B69F37C
:100A40000097A105B10541F02AE22A95F1F700C00F
:100A50000197A109B109E1CF8091C702C1E0C0931C
:100A6000C602882399F1D091B8001091BA00809104
:100A7000BC008A7B8093BC0060E082E10E94EC01B4
:100A800060E083E10E94EC0110921003C093120316
:100A90001092110361E082E10E94EC0161E083E1C8
:100AA0000E94EC018091B9008E7F8093B900809103
:100AB000B9008D7F8093B90088E48093B80085E405
:100AC0008093BC001093BA00D093B800DF91CF910F
:100AD0001F910895FF920F931F93CF93DF93CDB78C
:100AE000DEB72A970FB6F894DEBF0FBECDBF8C01DC
:100AF000F62EFC014785508970E060E021E030E08F
:100B0000CE0101960E94D004F801EB59FF4F1082EC
:100B100035960190F081E02DC8010995F5E0FA9530
:100B2000F1F70000F801EA59FF4F0190F081E02D44
:100B3000C801099585E08A95F1F70000FF20B1F022
:100B4000BE016F5F7F4FC8010E94D105811116C0A1
:100B500082E090E02A960FB6F894DEBF0FBECDBFBC
:100B6000DF91CF911F910F91FF900895F801E45903
:100B7000FF4F0190F081E02DC8010995E5E0EA956D
:100B8000F1F70000F801E859FF4F0190F081E02DE6
:100B9000C8010995F5E0FA95F1F7000090E080E0D2
:100BA000D9CFEF92FF920F931F93CF93DF93EC0176
:100BB0008B01FC01E459FF4F0190F081E02D099574
:100BC0007E0180E7E80EF11CD701ED91FC91CE018A
:100BD0000995811111C0C8010E94A9048823A1F3BD
:100BE00060E0CE010E946A0580E0DF91CF911F9105
:100BF0000F91FF90EF90089581E0F7CF8F929F9231
:100C0000AF92BF92CF92DF92EF92FF920F931F931A
:100C1000CF93DF93CDB7DEB72A970FB6F894DEBF38
:100C20000FBECDBF8C01E62EDC011F964D915C916D
:100C300070E060E021E030E0CE0101960E94D00437
:100C400098E0F92E6801BAE6CB0ED11C5801E6E611
:100C5000AE0EB11C4801F8E68F0E911CD601ED9145
:100C6000FC91C8010995D401E7FED501ED91FC91F5
:100C7000C8010995B5E0BA95F1F70000BE016F5FB4
:100C80007F4FC8010E94D105811117C082E0E82E74
:100C9000F12CC7012A960FB6F894DEBF0FBECDBF68
:100CA000DF91CF911F910F91FF90EF90DF90CF9048
:100CB000BF90AF909F908F900895E5E0EA95F1F78F
:100CC0000000EE0CCE0101960E94A904882329F0B1
:100CD00061E0C8010E946A05D9CFFA94F110BECF35
:100CE000D601ED91FC91C8010995F801E859FF4F33
:100CF0000190F081E02DC8010995B5E0BA95F1F7B2
:100D00000000BE016F5F7F4FC8010E94D10588239C
:100D100009F4BCCFF801E259FF4F0190F081E02DBA
:100D2000C801099591E0811101C090E0E92EE5E04C
:100D3000EA95F1F70000D601ED91FC91C801099503
:100D4000A8CF1F93CF93DF93EC01162FFC01EA5934
:100D5000FF4F0190F081E02D099585E08A95F1F72C
:100D60000000FE01E659FF4F0190F081E02DCE0119
:100D7000099585E08A95F1F70000612FCE01DF919A
:100D8000CF911F910C94FE05FF920F931F93CF9369
:100D9000DF93CDB7DEB72A970FB6F894DEBF0FBE4C
:100DA000CDBF8C01F62EFC014785508970E060E0D4
:100DB00021E030E0CE0101960E94D004F801E6590E
:100DC000FF4F0190F081E02DC8010995F5E0FA95FB
:100DD000F1F70000F801E859FF4F0190F081E02D94
:100DE000C801099585E08A95F1F70000BE016F5FA3
:100DF0007F4FC8010E94D105882301F1E5E0EA9503
:100E0000F1F70000F801EA59FF4F0190F081E02D61
:100E1000C8010995F5E0FA95F1F700006F2DC801BA
:100E20000E94FE052A960FB6F894DEBF0FBECDBF16
:100E3000DF91CF911F910F91FF90089582E090E094
:100E4000F1CF2F923F924F925F926F927F928F924B
:100E50009F92AF92BF92CF92DF92EF92FF920F9349
:100E60001F93CF93DF93CDB7DEB72F970FB6F894CC
:100E7000DEBF0FBECDBF8C014B87FC01E05CFF4F96
:100E800010826C0181E4C80ED11CD6011C92660F41
:100E90006F5FB5968081882309F489C0C8010E94DC
:100EA000C406892B09F064C07801512C5801BAE6B8
:100EB000AB0EB11C1801E8E62E0E311C3801F0E72C
:100EC0006F0E711CC80182599F4F9D878C87AB851F
:100ED000A150BB0B4D01F801EA59FF4FFF87EE8788
:100EE000D801DF968C91DF97581608F041C0F701C2
:100EF000178E1F964D915C9170E060E021E030E02C
:100F0000CE0101960E94D00488E0482ED7015F965A
:100F10008C915F97880F5F968C93D501ED91FC9132
:100F2000C8010995D101ED91FC91C8010995B5E081
:100F3000BA95F1F70000BE016F5F7F4FC8010E94B4
:100F4000D1058823A9F0E5E0EA95F1F70000D30187
:100F5000ED91FC91C801099581112DC0CE0101963A
:100F60000E94A904882399F361E0C8010E946A05E0
:100F700061E0C8010E946A05D6018C912F960FB6D8
:100F8000F894DEBF0FBECDBFDF91CF911F910F91BF
:100F9000FF90EF90DF90CF90BF90AF909F908F9099
:100FA0007F906F905F904F903F902F900895C80171
:100FB0000E94A10676CFAC85BD85ED91FC91C8015C
:100FC0000995882321F0F701878D8160878F4A94E6
:100FD00041109CCFD501ED91FC91C8010995C70145
:100FE000801B910BAE85BF858816990609F4D10147
:100FF000ED91FC91C8010995B5E0BA95F1F70000B3
:10100000BE016F5F7F4FC8010E94D105882309F49C
:10101000AFCFE5E0EA95F1F70000D301ED91FC9147
:10102000C8010995811107C0CE0101960E94A9044B
:10103000882399F399CFB5E0BA95F1F70000D5016F
:10104000ED91FC91C8010995F60180818F5F808345
:101050005394FFEFEF1AFF0A8B85851141CF88CF9C
:10106000EF92FF921F93CF93DF93EC01FC01EE5BB5
:10107000FF4F6081660FB39680818823A9F0CE016F
:101080000E94C40612E08130910519F0029781F4A4
:1010900014E061E0CE010E946A05812FDF91CF91BB
:1010A0001F91FF90EF900895CE010E94A106EACF14
:1010B00010E07E0184E6E80EF11CF701808118172C
:1010C00080F4FE01E10FF11DED5BFF4F6081CE0169
:1010D0000E94FE058130910531F00297C9F21F5F31
:1010E000ECCF10E0D6CF13E0D4CFCF92DF92EF92C7
:1010F000FF920F931F93CF93DF93CDB7DEB728975F
:101100000FB6F894DEBF0FBECDBF8C01DC01569642
:101110008D919C915797FC01EE5BFF4F29E2208354
:101120008C599F4FFC01108256968D919C91DC0149
:10113000ED91FC910190F081E02D64E90995F801B1
:10114000868997890E943008D80119968C9319973F
:1011500048E069E256968D919C910E942107FE011C
:1011600031967F016E01F9E0CF0ED11CD801569661
:101170008D919C91DC01ED91FC910284F385E02D31
:101180000995F70181937F01EC15FD0579F78981B8
:101190009A81D80151969C938E9350978B819C8114
:1011A0001B969C938E931A978D819E811D969C937E
:1011B0008E931C978F8198851F969C938E931E9774
:1011C0000E94D302F801628B738B848B958B2896D7
:1011D0000FB6F894DEBF0FBECDBFDF91CF911F9148
:1011E0000F91FF90EF90DF90CF9008950F931F9392
:1011F000CF93DF9300D0CDB7DEB78C0180E8898331
:101200006A83D80156968D919C915797FC01EE5BAD
:10121000FF4F29E220838C599F4FFC011082569684
:101220008D919C91DC01ED91FC910280F381E02D88
:1012300042E050E0BE016F5F7F4F0995F80186895B
:1012400097890E943008D80119968C930F900F90BF
:10125000DF91CF911F910F91089563E00C94F608F0
:1012600061E00C94F6081F93CF93DF93EC01142FE9
:101270008F8198852C85FC01EE5BFF4F20838C5974
:101280009F4FDC011C928F819885DC01ED91FC91D0
:101290000190F081E02D09958F819885DC01ED9119
:1012A000FC910190F081E02D612F09958F81988547
:1012B0000E9430088883DF91CF911F910895CF93CA
:1012C000DF93EC018E899F89FC01EE5BFF4F29E2E1
:1012D00020838C599F4FDC011C928E899F89DC01F1
:1012E000ED91FC910190F081E02D60E809958E89E7
:1012F0009F890E943008898741E069E28E899F8931
:101300000E9421078E899F89DC01ED91FC91028466
:10131000F385E02D0995682F6C7FCE01DF91CF9189
:101320000C94F6082F923F924F925F926F927F92A9
:101330008F929F92AF92BF92CF92DF92EF92FF92E5
:101340000F931F93CF93DF93EC010E94300963E06A
:1013500070E080E090E00E94A002CE010E942D0982
:10136000CE010E945704CE010E947508EA84FB84D6
:101370000C851D858E849F8448885988CE010E94E3
:101380005F09CE010E94300963E070E080E090E0E8
:101390000E94A002CE010E942D0961E08C8D0E9466
:1013A000380260E08C8D0E94EC01CE010E9457044F
:1013B000CE010E947508AA84BB84CC84DD846E842F
:1013C0007F8428883988CE010E945F09EA18FB08CB
:1013D00021E0E2162AEFF20608F099C0FB86EA86C1
:1013E0000C191D0901308AEF180708F093C01D87FA
:1013F0000C87C4018619970981302AEF920708F0FB
:101400008CC09F878E874218530881E048168AEF68
:10141000580608F085C0598A488A2A853B850C857C
:101420001D85CE84DF84E888F98821308AEF38076B
:1014300010F01B861A86AFEFB0E00E94901728814B
:10144000398150E040E00E946E1729013B872A87CE
:101450009801AFEFB0E00E9490172A813B8150E0E5
:1014600040E00E946E1789013D872C879601AFEFFF
:10147000B0E00E9490172C813D8150E040E00E9436
:101480006E1769013F872E879701AFEFB0E00E948A
:1014900090172E813F8150E040E00E946E17C901F5
:1014A000398B288B2FEF4216510429F020F02FEFB3
:1014B00030E03B872A870F3F110529F020F02FEFFE
:1014C00030E03D872C872FEFC216D10429F020F0A1
:1014D0002FEF30E03F872E878F3F910529F020F0D6
:1014E0008FEF90E0998B888BDF91CF911F910F91B7
:1014F000FF90EF90DF90CF90BF90AF909F908F9034
:101500007F906F905F904F903F902F9008951B8633
:101510001A8666CF1D861C866CCF1F861E8673CFEB
:10152000198A188A7ACFFB0101900020E9F73197D8
:10153000AF01461B570BDC01ED91FC910280F3815A
:10154000E02D0994CF93DF930E94B101EC016EE28C
:1015500071E084E693E00E94930A8C0F9D1FDF9157
:10156000CF910895AF92BF92CF92DF92FF920F93E7
:101570001F93CF93DF93DC011496FC90FF20C1F101
:10158000EC01F89488819981DC01ED91FC91019046
:10159000F081E02D6D81099510E000E0888199814E
:1015A000DC01ED91FC910084F185E02D09950F5F40
:1015B0001F4F892B41F1A880B9806E01B0E1CB0E9D
:1015C000D11C10E000E0C5010E946F0497FD08C027
:1015D0000F5F1F4FF60181936F010830110599F7D6
:1015E00078940830A9F088E690E00E94A20AF12CD5
:1015F0008F2DDF91CF911F910F91FF90DF90CF90B2
:10160000BF90AF9008950F3F100741F600E0E8CF7C
:10161000888999899827892798279B8F8A8F8A8913
:101620009B899827892798279D8F8C8F8C899D89E6
:101630009827892798279F8F8E8F8E899F89982733
:101640008927982799A388A30E94D3026AA37BA322
:101650008CA39DA3CDCF8F929F92AF92BF92EF921A
:10166000FF920F931F93CF93DF93CDB7DEB7A19770
:101670000FB6F894DEBF0FBECDBF7C01FA01CB01DF
:1016800019A2223008F42AE08E010F5D1F4F822E2E
:10169000912CB12CA12CBF01A50194010E946E17C1
:1016A000F901CA016A300CF5605DD8016E938D01B5
:1016B000232B242B252B79F790E080E0109721F045
:1016C000BD01C7010E94930AA1960FB6F894DEBF30
:1016D0000FBECDBFDF91CF911F910F91FF90EF9083
:1016E000BF90AF909F908F900895695CDECF0F936D
:1016F0001F93CF93DF938C01D0E0C0E0611571059B
:1017000019F00E94930AEC016EE271E0C8010E9498
:10171000930A8C0F9D1FDF91CF911F910F91089518
:101720001F920F920FB60F9211242F933F934F9356
:101730005F936F937F938F939F93AF93BF93EF9339
:10174000FF9384E693E00E944201FF91EF91BF91E5
:10175000AF919F918F917F916F915F914F913F9149
:101760002F910F900FBE0F901F9018951F920F9200
:101770000FB60F9211242F938F939F93EF93FF93A4
:10178000E0917403F09175038081E0917A03F09108
:101790007B0382FD1BC0908180917D038F5F8F73DF
:1017A00020917E03821741F0E0917D03F0E0EC5937
:1017B000FC4F958F80937D03FF91EF919F918F91C7
:1017C0002F910F900FBE0F901F9018958081F4CF2E
:1017D0001F920F920FB60F9211242F933F938F9366
:1017E0009F93AF93BF938091370390913803A0915B
:1017F0003903B0913A033091360323E0230F2D379C
:1018000058F50196A11DB11D20933603809337032F
:1018100090933803A0933903B0933A0380913B032C
:1018200090913C03A0913D03B0913E030196A11D10
:10183000B11D80933B0390933C03A0933D03B09371
:101840003E03BF91AF919F918F913F912F910F9048
:101850000FBE0F901F90189526E8230F0296A11D2A
:10186000B11DD2CF1F920F920FB60F9211242F935A
:101870003F934F935F936F937F938F939F93AF9318
:10188000BF93EF93FF938091B900887F803609F46E
:101890004AC0F0F5883209F4A5C018F5803109F482
:1018A00099C0B8F4882309F4F5C0883009F492C0CF
:1018B000FF91EF91BF91AF919F918F917F916F9128
:1018C0005F914F913F912F910F900FBE0F901F90FE
:1018D0001895883109F486C0803251F780930F0340
:1018E00014C0803409F49BC040F48033B9F38833CA
:1018F000F9F680930F0385ECAEC0803509F483C000
:10190000883509F494C0883499F60E94F504D0CF44
:10191000883909F48AC038F5883729F050F48836B8
:1019200011F0803729F683E08093100310920E03A4
:1019300055C0883809F479C0803919F0803809F029
:10194000B7CF80910E03803208F06FC0E0910E0394
:1019500081E08E0F80930E038091BB00F0E0E25196
:10196000FD4F80833BC0803B39F0D0F4803A09F4CE
:1019700077C0883A09F09CCF84E0809310031092DE
:10198000ED021092EC02F0E0E0E009958091EC02AB
:1019900081110FC081E08093EC021092CC0209C04B
:1019A000803C09F4A8CF883C09F4A5CF883B09F016
:1019B0007FCFE091ED0281E08E0F8093ED02F0E0A9
:1019C000E453FD4F80818093BB009091ED028091A4
:1019D000EC0229C0809135038093BB0085EC809395
:1019E000BC0066CF9091340380913303981758F56B
:1019F000E091340381E08E0F80933403F0E0ED5EDC
:101A0000FC4F8081E9CFE091340381E08E0F809319
:101A100034038091BB00F0E0ED5EFC4F8083909139
:101A20003403809133039817C8F285E8D8CFE0914A
:101A3000340381E08E0F809334038091BB00F0E08B
:101A4000ED5EFC4F80838091120381115ECF81E0B7
:101A50008093110384EA8093BC001092100328CF76
:101A600085EC8093BC001092100380910E038032AD
:101A700030F4E0910E03F0E0E251FD4F10826091EE
:101A80000E0370E08EEE92E0F0E0E0E00995109237
:101A90000E030ECF10920F0338CF1F920F920FB686
:101AA0000F9211242F933F934F935F936F937F93E4
:101AB0008F939F93AF93BF93EF93FF93E091460370
:101AC000F0E0EE0FFF1FE85AFC4F808191810097F4
:101AD00011F00E9435048091410390914203892BBB
:101AE00011F00E943003FF91EF91BF91AF919F9150
:101AF0008F917F916F915F914F913F912F910F90B7
:101B00000FBE0F901F9018951F920F920FB60F9255
:101B100011242F933F934F935F936F937F938F93F2
:101B20009F93AF93BF93CF93EF93FF9386B1C091F1
:101B30004303C82780934303C0FF15C0E0915203BD
:101B4000F0E0EE0FFF1FE85AFC4F80819181009773
:101B500011F00E9435048091410390914203892B3A
:101B600011F00E943003C2FF15C0E0915403F0E071
:101B7000EE0FFF1FE85AFC4F80819181009711F012
:101B80000E9435048091410390914203892B11F00A
:101B90000E943003C4FF15C0E0915603F0E0EE0F41
:101BA000FF1FE85AFC4F80819181009711F00E943D
:101BB00035048091410390914203892B11F00E94DA
:101BC0003003FF91EF91CF91BF91AF919F918F9192
:101BD0007F916F915F914F913F912F910F900FBE29
:101BE0000F901F9018951F920F920FB60F9211240D
:101BF0002F933F934F935F936F937F938F939F9315
:101C0000AF93BF93EF93FF93E0914C03F0E0EE0F9F
:101C1000FF1FE85AFC4F80819181009711F00E94CC
:101C200035048091410390914203892B11F00E9469
:101C30003003FF91EF91BF91AF919F918F917F9171
:101C40006F915F914F913F912F910F900FBE0F9029
:101C50001F9018951F920F920FB60F9211242F9379
:101C60003F934F935F936F937F938F939F93AF9324
:101C7000BF93EF93FF938091840281113FC086E070
:101C80008093B1001092B2004091190430E020E03E
:101C90008FEF56E061E02417C0F4529FF001539F8C
:101CA000F00D1124EF5FFB4F908196FF0BC09481E4
:101CB000A281B3817C91972B9C9365839181981726
:101CC00008F481812F5F3F4FE6CF91E0909384022B
:101CD0009091B200890F8093B300FF91EF91BF9173
:101CE000AF919F918F917F916F915F914F913F91B4
:101CF0002F910F900FBE0F901F9018958091840226
:101D0000813059F78091B3008F3F91F150911904C0
:101D100090E080E03FEF46E08517A0F5489FF00196
:101D2000499FF00D1124EF5FFB4F208126FF1EC05D
:101D300025812130D9F46091B2002181621740F0F1
:101D40002481A281B3816C91209526232C93158246
:101D5000489FF001499FF00D1124EF5FFB4F258153
:101D6000213021F42181231708F431810196D4CF49
:101D70001092840297E09093B1008093B300109288
:101D8000B200ABCF3093B300A8CFCF93DF931092C4
:101D900067031092660388EE93E0A0E0B0E08093C2
:101DA000680390936903A0936A03B0936B038EE07A
:101DB00091E0909365038093640385EC90E09093A9
:101DC00071038093700384EC90E09093730380938D
:101DD000720380EC90E0909375038093740381EC20
:101DE00090E0909377038093760382EC90E0909359
:101DF00079038093780386EC90E090937B03809343
:101E00007A0310927D0310927E0310927F0310924A
:101E1000800310924604109247048CE390E0909364
:101E20004904809348048AE0EAE4F4E0DF01982F53
:101E30001D929A95E9F7E4E5F4E0DF01982F1D92F1
:101E40009A95E9F7EEE5F4E0DF011D928A95E9F74E
:101E5000109269041092680410926B0410926A0444
:101E600088E0ECE6F4E0DF01982F1D929A95E9F7FF
:101E7000E4E7F4E0DF011D928A95E9F710927D0412
:101E800010927C0410927F0410927E048CE090E00B
:101E90000E94D417DC019C01245F3F4F4FEF56E0B6
:101EA0006DE5E0911904E43008F094C071E07E0F14
:101EB00070931904EC935E9FF0011124EF5FFB4FC8
:101EC00061831396A217B30761F79093450480933B
:101ED000440410921D0410921C0488EE93E0A0E0CC
:101EE000B0E080931E0490931F04A0932004B0934D
:101EF000210480E291E090931B0480931A041092D5
:101F00003C0410923B0410923E0410923D04109247
:101F1000400410923F0410924204109241048091B8
:101F200043048E7F8D7F8093430488E08093260452
:101F300086E08093270461E371E081E394E00E94EE
:101F4000F918609143046695617081E0682786E026
:101F50000E94EC0161E086E00E943802E1E2F1E0DB
:101F6000E491E0932B04EDE0F1E0E491F0E0EE0F7A
:101F7000FF1FE350FF4F8591949190932D04809320
:101F80002C04C091260460E08C2F0E9438028091BE
:101F9000430481FD04C061E08C2F0E94EC01C093DA
:101FA0002604D0E0FE01E55EFE4FE491E0932804B4
:101FB000FE01E95FFE4FE491F0E0EE0FFF1FED50F0
:101FC000FF4F8591949190932A0480932904DF9187
:101FD000CF9108954C9375CFCF93DF93CDB7DEB7F4
:101FE0002C970FB6F894DEBF0FBECDBF789484B5A2
:101FF000826084BD84B5816084BD85B5826085BD05
:1020000085B5816085BD80916E00816080936E0092
:102010001092810080918100826080938100809184
:102020008100816080938100809180008160809335
:1020300080008091B10084608093B1008091B000F5
:1020400081608093B00080917A00846080937A00F0
:1020500080917A00826080937A0080917A0081601A
:1020600080937A0080917A00806880937A00109241
:10207000C100E0917403F091750382E08083E091E8
:102080007003F09171031082E0917203F091730379
:1020900080E1808310927C03E0917803F0917903D2
:1020A00086E08083E0917603F09177038081806100
:1020B0008083E0917603F09177038081886080834C
:1020C000E0917603F0917703808180688083E091CE
:1020D0007603F091770380818F7D808380918100EA
:1020E000887F85608093810067E371E084E693E0F8
:1020F0000E94770B6DE471E084E693E00E94930AFE
:1021000085E10E94690227E133E1DC010E94B317F7
:1021100028EE33E040E050E00E946E1769017A013A
:102120002AE0BA01A60184E693E00E942B0B61E647
:1021300071E084E693E00E94770B21EDC21627E060
:10214000D206E104F10440F565E671E084E693E02F
:102150000E94770B08EE802E03E0902EA12CB12C6C
:1021600085E10E94690227E133E1DC010E94B31797
:10217000A50194010E946E1769017A0131EDC31621
:1021800037E0D306E104F10438F46DE770E080E055
:1021900090E00E94A002E4CF81EDC81A87E0D80A3F
:1021A000E108F1089BE4C91694E0D906E104F104C2
:1021B00068F461EB71E084E693E00E94770B60ECD9
:1021C00071E084E693E00E94770BFFCF69EE71E047
:1021D00084E693E00E94770B1092400410923F0433
:1021E00010923E0410923D0410923C0410923B0465
:1021F0008DE991E0909342048093410490912604EC
:10220000963108F047C02DEB30E030933C0420932A
:102210003B042BE931E030933E0420933D042CE253
:1022200031E03093400420933F042091680084E023
:10223000983048F031E09E3008F430E081E001C091
:10224000880F3A95EAF7822B809368002DE630E0FC
:10225000983050F02BE630E09E3030F02CE630E045
:10226000963110F030E020E030932F0420932E04BC
:10227000292F30E0983008F006C581E001C0880FB2
:102280009A95EAF78093300480914104909142043A
:102290000197F1F780913F0490914004892B49F117
:1022A000E0914103F0914203A4E0EA31FA0709F119
:1022B000309739F0A489B5899C91868980958923C6
:1022C0008C93809143048E7F80934304109240034B
:1022D00010923F038AE194E090934203809341037C
:1022E000E0912E04F0912F04808190913004892B8D
:1022F0008083C0900601D0900701E0900801F09023
:102300000901E0914404F0914504FA83E983868150
:10231000843008F084C061E08BE00E943802E981DB
:10232000FA81A681F6E0AF9FD0011124AF5FBB4FC9
:102330008C91807C8B608C93E2E1F1E0E491F0E0A1
:10234000EE0FFF1FE350FF4F8591949113969C93DE
:102350008E931297E6E2F1E0E4911496EC9382E218
:10236000A981BA8117968C93179786E918968C9352
:102370006CE072E084E693E00E94930AE981FA81BE
:10238000478150E070E060E02AE084E693E00E943C
:102390002B0B6EE271E084E693E00E94930A62E107
:1023A00072E084E693E00E94930AA981BA811896AC
:1023B0004C9150E070E060E02AE084E693E00E94F7
:1023C0002B0B6EE271E084E693E00E94930A90E0AA
:1023D00080E026E0289FF001299FF00D1124EF5F97
:1023E000FB4F308136FD0EC001968430910591F788
:1023F0001092B0002093B1001092B20082E087BB2F
:1024000080937000A981BA811696EC91B6E0EB9F9B
:10241000F0011124EF5FFB4F80818064808380EBAB
:1024200090E00E94B101B70184E693E00E94770B2F
:1024300060ED77E080E090E00E94A00284E10E94DD
:1024400069028436910560F468E172E084E693E005
:102450000E94770B61E372E084E693E00E94770BC1
:1024600066246A94712C85E10E94690227E133E1B8
:10247000DC010E94B317683678488E41910580F5DB
:1024800064E670E080E090E00E94A00260E08EE0F0
:102490000E94380260E08FE00E94380260E080E134
:1024A0000E94380260E081E10E94380260E088E02A
:1024B0000E94380260E086E00E94380260E082E01C
:1024C0000E94380260E083E00E94380260E082E10E
:1024D0000E94380260E083E10E9438020C94000000
:1024E00024E534E03E832D8366E4262E64E0362E18
:1024F0003A832983A981BA81ED91FD91BA83A98399
:10250000FC83EB83309791F141E060E8CF010E94BA
:10251000330941E06FEF8B819C810E94330940E0D9
:1025200060E08B819C810E943309AB81BC8158960D
:102530004C91589761E9CD010E94330941E060E078
:102540008B819C810E94330940E06FEF8B819C81DD
:102550000E94330940E060E88B819C810E9433092E
:1025600041E060E08B819C810E943309EEE5F4E05C
:1025700029813A81E217F30709F0BCCFFC83EB8392
:1025800021E0AB81BC81ED91FD91BC83AB833097A1
:10259000B9F180A1811134C011A220A3108E118E37
:1025A000128E138E148E158E168E178E418198EF13
:1025B000940F963008F469C492EF940F963008F4A3
:1025C0006FC3483008F463C4A485B5859C918089A5
:1025D000809589238C9383E090E00197F1F7A4859F
:1025E000B5858C919089892B8C9383E290E001973B
:1025F000F1F7A485B5858C919089909589238C936A
:10260000EB81FC81E856F44009F0BBCF0E947B02CD
:102610004B015C018AE494E09C838B837C01D701AD
:102620008D919D917D01009711F00E943009B4E5D4
:10263000EB16B4E0FB0699F7E0917E04F0917F047D
:10264000FC87EB87EF2B09F466C00E94D3024B8412
:102650005C84F4E44F0E511CD2010D911D912D911B
:102660003C91AB01BC01401B510B620B730BEB8522
:10267000FC85E85BFF4F00811181228133810417C3
:1026800015072607370708F046C0EB85FC858481CF
:10269000882309F440C0F89480819181DC01ED9198
:1026A000FC910190F081E02DAB85BC8515966C9175
:1026B000099510E000E0EB85FC8580819181DC01CB
:1026C000ED91FC910084F185E02D09950F5F1F4F7E
:1026D000892B09F428C3EB85FC85C080D1807496D2
:1026E000F887EF8310E000E0C6010E946F0497FDB9
:1026F0000AC00F5F1F4FAF81B8858D93B887AF8336
:102700000032110589F77894003209F412C389EC7C
:1027100090E00E94A20A0E947B02681979098A0946
:102720009B09643C794081059105A8F39AE4492E00
:1027300094E0592ED2018D919D912D01009711F0B9
:102740000E942D09E414F504A9F780916303811117
:102750002AC380917C0490917D04009709F427C3DB
:102760000E94B20AB1E0BF838BE893E30197F1F7CF
:102770000AE414E0F801819191918F01009711F022
:102780000E94750804151505A9F70AE414E0D8019C
:102790008D919D918D01009711F00E945F090415A4
:1027A0001505A9F70E947B026B017C010AE414E085
:1027B000F801819191918F01009711F00E943009E9
:1027C00004151505A9F70E947B026C197D098E0975
:1027D0009F09643C794081059105A8F386E4882E21
:1027E00084E0982ED40114968D919C91009781F0ED
:1027F0000E942D09F4010481158161E0D8015C96E5
:102800008C910E94380260E0F801848D0E94EC01F6
:10281000F2E08F0E911C20E5821624E0920611F75B
:102820003F813111C6C2809163038111C2C2809180
:102830007C0490917D04009709F0C0C28BE893E37B
:102840000197F1F7D10114960D90BC91A02DB88796
:10285000AF83AB2B09F445C10E94D302EF81F88509
:102860000289138924893589601B710B820B930BB4
:10287000633471058105910518F0CF010E9492091A
:10288000AF81B8851A96AD90BC90F1010480F581B6
:10289000E02DF887EF830E94D302AF81B88552966E
:1028A0000D911D912D913C915597601B710B820BE1
:1028B000930B633471058105910518F0CD010E94D9
:1028C0009209EF81F885C484D584D10114960D90C6
:1028D000BC91A02DB887AF830E94D302EF81F88509
:1028E0000289138924893589601B710B820B930B34
:1028F000633471058105910518F0CF010E9492099A
:10290000AF81B8851E96ED90FC90F1010480F581B1
:10291000E02DF887EF830E94D302AF81B8855296ED
:102920000D911D912D913C915597601B710B820B60
:10293000930B633471058105910518F0CD010E9458
:102940009209EF81F88500891189D10114968D9142
:102950009C910E947508F1010480F581E02DF887B3
:10296000EF8382859385A81AB90AF1E0AF16FAEFD2
:10297000BF0608F026C2AF81B8851B96BC92AE9206
:102980001A97AF81B8851C968D919C91C81AD90A67
:10299000B1E0CB16BAEFDB0608F018C2EF81F8857C
:1029A000D586C486EF81F88586859785E81AF90A69
:1029B000F1E0EF16FAEFFF0608F00FC2AF81B8851D
:1029C0001F96FC92EE921E97AF81B88550968D911E
:1029D0009C91081B190B0130BAEF1B0708F002C2CB
:1029E000EF81F885118B008BEF81F8852285338587
:1029F000AFEFB0E00E9490172081318150E040E0BD
:102A00000E946E175901AF81B8851B963C932E9397
:102A10001A971C962D913C91AFEFB0E00E94901751
:102A2000EF81F8852281338150E040E00E946E17EB
:102A30007901AF81B8851D963C932E931C971E9605
:102A40002D913C91AFEFB0E00E949017EF81F88597
:102A50002481358150E040E00E946E178901AF81EA
:102A6000B8851F963C932E931E9750962D913C91BE
:102A7000AFEFB0E00E949017EF81F8852681378193
:102A800050E040E00E946E17C901AF81B8855196B1
:102A90003C932E935097BFEFAB16B10429F020F072
:102AA000EF81F88573866286FFEFEF16F10439F047
:102AB00030F0AF81B8851D967C926E921C970F3FC7
:102AC000110529F020F0EF81F885778666868F3F23
:102AD000910539F030F0AF81B88551967C926E92B5
:102AE0005097B2E02B0E311C8214930409F0AACE49
:102AF000EB81FC8181919191FC83EB83009711F034
:102B00000E945F092B813C812415350589F7AD8131
:102B1000BE81ED91FD91BE83AD83FC83EB83EF2BF2
:102B200009F46EC00E94D302AB81BC8157967C939E
:102B30006E935697EB81FC81878190852485FC01FB
:102B4000EE5BFF4F20838C599F4FDC011C92EB8181
:102B5000FC8187819085DC01ED91FC910190F081F1
:102B6000E02D63E10995EB81FC81878190850E94CE
:102B70003008AB81BC818C9341E01C966C911C9712
:102B800017968D919C910E942107EB81FC81878192
:102B90009085DC01ED91FC910284F385E02D09958F
:102BA0008770EB81FC81811124C183899489892BF1
:102BB00009F4C0CF0E94D302AB81BC8156962D91FF
:102BC0003C915797AB01421B530B53968D919C91AF
:102BD00054978417950708F0ADCF81E055968C93F4
:102BE0000FEF1FEFEB81FC81128301830E94D30260
:102BF000AB81BC8113966D937D938D939C931697B7
:102C0000ED81FE8129813A81E217F30709F07FCF38
:102C100068E472E084E693E00E94770B68E572E076
:102C20008AE194E00E94770B68EE73E080E090E028
:102C30000E94A0028AE194E00E94FE03892BB1F079
:102C40008AE194E00E941404898368E672E084E6D5
:102C500093E00E94930A698184E693E00E946401F4
:102C60006EE271E084E693E00E94930A80E090E0D7
:102C7000892B09F4F8CB0E942E01882309F4F3CBA9
:102C80000E940000F0CB9E3040F42850310981E0D2
:102C900001C0880F2A95EAF7F5CA2E503109F7CFFF
:102CA00081E030916203353088F451E0530F509346
:102CB0006203A32FB0E0AA0FBB1FA85ABC4FED932D
:102CC000FC93A42FB0E0AC5BBC4F3C933091680008
:102CD00041E050E0082E01C0440F0A94EAF7432B6C
:102CE0004093680041E050E001C0440F9A95EAF734
:102CF000811107C080916B00482B40936B0083B11A
:102D000063CC813049F480916C00482B40936C0077
:102D100086B18093430358CC80916D00482B40933B
:102D20006D0089B151CC0F3F100709F0C4CC00E011
:102D3000EACCEB85FC85848984AB858985AB868963
:102D400086AB878987AB808D80AF818D81AF828D87
:102D500082AF838D83AF848D84AF858D85AF868D63
:102D600086AF878D87AFE05CFF4FAB85BC859096C3
:102D70008C9190978083FD01EF5BFF4F91968C9132
:102D800091978083319692968C9192978083319619
:102D900093968C9180830E94D302F20160837183A9
:102DA00082839383B8CC8BE09EE00197F1F71F827A
:102DB000DBCC8BE09EE00197F1F740CD0E94B20A98
:102DC0003DCDEF81F88513861286DBCDAF81B885C6
:102DD0001D961C921E921C97E5CDEF81F8851786F3
:102DE0001686F2CDAF81B88551961C921E925097EF
:102DF000FBCD878190852485FC01EE5BFF4F20830E
:102E00008C599F4FDC011C92EB81FC81878190855E
:102E1000DC01ED91FC910190F081E02D6EE10995CE
:102E2000EB81FC81878190850E943008AB81BC8159
:102E30008C9342E01C966C911C9717968D919C91F7
:102E40000E942107EB81FC8187819085DC01ED9157
:102E5000FC910284F385E02D09958A871986EB8120
:102E6000FC8187819085DC01ED91FC910284F385E2
:102E7000E02D099509851A85082B192B41E06BE097
:102E80008B819C810E943309ADCE80E00ACF942FC4
:102E900082E007CF80E291E090931B0480931A04B4
:102EA00080914103909142038A51944071F4E091E2
:102EB0002E04F0912F049081809130048095892315
:102EC00080831092420310924103809144049091B8
:102ED0004504009711F00C9470180895A1E21A2E81
:102EE000AA1BBB1BFD010DC0AA1FBB1FEE1FFF1FAE
:102EF000A217B307E407F50720F0A21BB30BE40BFE
:102F0000F50B661F771F881F991F1A9469F7609544
:102F10007095809590959B01AC01BD01CF010895FE
:102F2000A29FB001B39FC001A39F700D811D11240A
:102F3000911DB29F700D811D1124911D089597FB65
:102F4000072E16F4009407D077FD09D00E94BA1717
:102F500007FC05D03EF4909581959F4F089570959C
:102F600061957F4F08950E949017B7FF0895821BC7
:102F7000930B0895AA1BBB1B51E107C0AA1FBB1FDF
:102F8000A617B70710F0A61BB70B881F991F5A95F5
:102F9000A9F780959095BC01CD010895EE0FFF1F14
:102FA0000590F491E02D09940F931F93CF93DF9335
:102FB0008230910510F482E090E0E0918204F0917B
:102FC000830430E020E0B0E0A0E0309799F42115D0
:102FD000310509F44AC0281B390B24303105D8F5D6
:102FE0008A819B816115710589F1FB01938382833D
:102FF000FE0111C040815181028113814817590798
:10300000E0F04817590799F4109761F012960C9365
:10301000129713961C933296CF01DF91CF911F9197
:103020000F9108950093820410938304F4CF211527
:10303000310551F04217530738F0A901DB019A011D
:10304000BD01DF01F801C1CFEF01F9CF90938304F7
:1030500080938204CDCFFE01E20FF31F8193919301
:103060002250310939832883D7CF209180043091B1
:103070008104232B41F4209102013091030130930C
:1030800081042093800420910001309101012115D9
:10309000310541F42DB73EB740910401509105012F
:1030A000241B350BE0918004F0918104E217F307B3
:1030B000A0F42E1B3F0B2817390778F0AC014E5FA8
:1030C0005F4F2417350748F04E0F5F1F5093810460
:1030D00040938004819391939FCFF0E0E0E09CCFF8
:1030E000CF93DF930097E9F0FC01329713821282AD
:1030F000A0918204B0918304ED0130E020E01097AC
:10310000A1F420813181820F931F2091800430919E
:1031100081042817390709F061C0F0938104E09316
:103120008004DF91CF910895EA01CE17DF07E8F51B
:103130004A815B819E0141155105B1F7E901FB838D
:10314000EA8349915991C40FD51FEC17FD0761F42B
:10315000808191810296840F951FE901998388836C
:10316000828193819B838A83F0E0E0E012968D91C7
:103170009C9113970097B9F52D913C911197CD0132
:103180000296820F931F20918004309181042817AA
:10319000390739F6309751F5109283041092820462
:1031A000B0938104A0938004BCCFD383C2834081B9
:1031B0005181840F951FC817D90761F44E5F5F4F87
:1031C00088819981480F591F518340838A819B814F
:1031D000938382832115310509F0B0CFF0938304E6
:1031E000E09382049ECFFD01DC01C0CF13821282E6
:1031F000D7CFFB01DC0101900D920020E1F708958B
:1032000010E0C9E9D0E004C0FE010E94CE1721966B
:10321000CA39D107C9F7F894FFCF000084048000B1
:10322000030B8102000000006401C400F100CC0126
:1032300022010001140100000000A203C400F204F6
:10324000A103FE03140489030D0A005345522D33D4
:103250000048656C6C6F2C20427269636B20536967
:103260006D706C6573210054656E73616F206461CD
:1032700020626174657269613A2000206D560042D7
:103280007269636B206C696761646F206170656E41
:103290006173206E61205553422C20706172612051
:1032A000656C652066756E63696F6E61722C206C4B
:1032B000696775652061206368617665206C696760
:1032C000612F6465736C6967612E00426174657279
:1032D00069612066726163612100436F6C6F717573
:1032E00065206F20627269636B2070617261206378
:1032F00061727265676172206520616775617264D1
:10330000652E00427269636B206C696761646F2C83
:1033100020636F6D65C3A7616E646F206F2063C308
:10332000B36469676F006D696E3A20006D61783A29
:103330002000426F74616F20617065727461646F08
:10334000206E6F20696E6963696F0063616C6962EA
:1033500072616E646F2073656E736F7265732E2E6B
:103360002E00746573746520626C7565746F6F747C
:103370006800546573746520426C7565746F6F7472
:103380006800526563656269646F207669612042F6
:0E3390006C7565746F6F74683A2000533300DB
:107E0000112484B714BE81FFF0D085E080938100F7
:107E100082E08093C00088E18093C10086E0809377
:107E2000C20080E18093C4008EE0C9D0259A86E02C
:107E300020E33CEF91E0309385002093840096BBD3
:107E4000B09BFECF1D9AA8958150A9F7CC24DD24C4
:107E500088248394B5E0AB2EA1E19A2EF3E0BF2EE7
:107E6000A2D0813461F49FD0082FAFD0023811F036
:107E7000013811F484E001C083E08DD089C08234E0
:107E800011F484E103C0853419F485E0A6D080C0E4
:107E9000853579F488D0E82EFF2485D0082F10E0AE
:107EA000102F00270E291F29000F111F8ED06801E7
:107EB0006FC0863521F484E090D080E0DECF843638
:107EC00009F040C070D06FD0082F6DD080E0C81688
:107ED00080E7D80618F4F601B7BEE895C0E0D1E017
:107EE00062D089930C17E1F7F0E0CF16F0E7DF06D8
:107EF00018F0F601B7BEE89568D007B600FCFDCFD4
:107F0000A601A0E0B1E02C9130E011968C91119780
:107F100090E0982F8827822B932B1296FA010C0160
:107F200087BEE89511244E5F5F4FF1E0A038BF0790
:107F300051F7F601A7BEE89507B600FCFDCF97BE46
:107F4000E89526C08437B1F42ED02DD0F82E2BD052
:107F50003CD0F601EF2C8F010F5F1F4F84911BD097
:107F6000EA94F801C1F70894C11CD11CFA94CF0C13
:107F7000D11C0EC0853739F428D08EE10CD085E9AC
:107F80000AD08FE07ACF813511F488E018D01DD067
:107F900080E101D065CF982F8091C00085FFFCCF94
:107FA0009093C60008958091C00087FFFCCF809118
:107FB000C00084FD01C0A8958091C6000895E0E648
:107FC000F0E098E1908380830895EDDF803219F02E
:107FD00088E0F5DFFFCF84E1DECF1F93182FE3DFCA
:107FE0001150E9F7F2DF1F91089580E0E8DFEE27F6
:047FF000FF270994CA
:027FFE00040479
:00000001FF
