:100000000C946B000C9493000C9493000C94F10DE1
:100010000C949A0D0C946B0D0C9493000C9493001B
:100020000C9493000C9493000C9493000C94930004
:100030000C9493000C9493000C9493000C949300F4
:100040000C94060C0C9493000C94D40B0C94AE0BF3
:100050000C9493000C9493000C9493000C949300D4
:100060000C94500C0C949300000000080002010056
:1000700000030407000000000000000053657276D2
:100080006F20696E69636961646F206E6120706FB3
:10009000727461200000000000250028002B000081
:1000A000000000240027002A0004040404040404BF
:1000B0000402020202020203030303030301020417
:1000C00008102040800102040810200102040810DA
:1000D00020002A0E3B1111241FBECFEFD8E0DEBF57
:1000E000CDBF12E0A0E0B1E0EEE8F6E202C005907C
:1000F0000D92A431B107D9F724E0A4E1B2E001C028
:100100001D92A637B207E1F710E0CAE6D0E004C0BE
:100110002197FE010E940812C936D107C9F70E9433
:10012000BB0F0C943A130C94000090E0FC01E354D4
:10013000FF4F249187559F4FFC018491882399F0AC
:1001400090E0880F991FFC01E156FF4FA591B491F3
:10015000FC01EB56FF4F859194918FB7F894EC9189
:10016000E22BEC938FBF0895AF92BF92CF92DF92B4
:10017000EF92FF920F931F93CF93DF936C017B015C
:100180008B01040F151FEB015E01AE18BF08C017ED
:10019000D10759F06991D601ED91FC910190F08160
:1001A000E02DC6010995892B79F7C501DF91CF9123
:1001B0001F910F91FF90EF90DF90CF90BF90AF9085
:1001C0000895FC01538D448D252F30E0842F90E05D
:1001D000821B930B541710F0CF9608950197089542
:1001E000FC01918D828D981761F0A28DAE0FBF2F0B
:1001F000B11D5D968C91928D9F5F9F73928F90E061
:1002000008958FEF9FEF0895FC01918D828D9817CF
:1002100031F0828DE80FF11D858D90E008958FEF0C
:100220009FEF0895FC01918D228D892F90E0805CD5
:100230009F4F821B91098F73992708958FEA92E04F
:100240000E94120121E0892B09F420E0822F0895F9
:1002500080E090E0892B29F00E941E0181110C940E
:1002600000000895FC01A48DA80FB92FB11DA35A59
:10027000BF4F2C91848D90E001968F739927848FC6
:10028000A689B7892C93A089B1898C9183708064E9
:100290008C93938D848D981306C00288F389E02D8A
:1002A00080818F7D80830895EF92FF920F931F933B
:1002B000CF93DF93EC0181E0888F9B8D8C8D981319
:1002C0001AC0E889F989808185FF15C09FB7F89425
:1002D000EE89FF896083E889F98980818370806471
:1002E00080839FBF81E090E0DF91CF911F910F91BC
:1002F000FF90EF900895F62E0B8D10E00F5F1F4FCB
:100300000F731127E02E8C8D8E110CC00FB607FCD9
:10031000FACFE889F989808185FFF5CFCE010E9467
:100320003201F1CFEB8DEC0FFD2FF11DE35AFF4FA2
:10033000F0829FB7F8940B8FEA89FB8980818062F5
:10034000CFCF0F931F93CF93DF938C01D0E0C0E00A
:10035000F801EC0FFD1F6491662341F08FEA92E0F3
:100360000E945401892B11F02196F2CFCE01DF912A
:10037000CF911F910F910895CF93DF93EC01888D5A
:100380008823B9F0AA89BB89E889F9898C9185FD10
:1003900003C0808186FD0DC00FB607FCF7CF8C919E
:1003A00085FFF2CF808185FFEDCFCE010E94320123
:1003B000E9CFDF91CF91089590E0FC01E859FF4F1C
:1003C0002491FC01E354FF4F3491FC01E755FF4FAA
:1003D000E491EE23C9F0222339F0233001F1A8F48F
:1003E000213019F1223029F1F0E0EE0FFF1FEB561A
:1003F000FF4FA591B4918FB7F894EC91611126C08D
:1004000030953E233C938FBF08952730A9F02830C4
:10041000C9F0243049F7809180008F7D03C080911E
:1004200080008F7780938000DFCF84B58F7784BD85
:10043000DBCF84B58F7DFBCF8091B0008F77809329
:10044000B000D2CF8091B0008F7DF9CF3E2BDACFB4
:100450001F93CF93DF93182FEB010E9495002097F5
:1004600039F460E0812FDF91CF911F910C94DC0172
:10047000CF3FD10511F461E0F5CFE12FF0E0E8596D
:10048000FF4FE491E33031F140F4E130B1F0E2307C
:10049000E1F0C038D1057CF7E4CFE73029F1E8304E
:1004A00059F1E430B1F78091800080628093800040
:1004B000D0938B00C0938A0004C084B5806884BD4B
:1004C000C7BDDF91CF911F91089584B5806284BD2F
:1004D000C8BDF7CF80918000806880938000D09362
:1004E0008900C0938800EDCF8091B0008068809330
:1004F000B000C093B300E5CF8091B00080628093DC
:10050000B000C093B400DDCF8E50806480937C0037
:1005100080917A00806480937A0080917A0086FDD1
:10052000FCCF809178009091790008953FB7F894BE
:100530008091AA029091AB02A091AC02B091AD0261
:1005400026B5A89B05C02F3F19F00196A11DB11D2E
:100550003FBFBA2FA92F982F8827BC01CD01620F6A
:10056000711D811D911D42E0660F771F881F991F25
:100570004A95D1F708958F929F92AF92BF92CF92F2
:10058000DF92EF92FF926B017C010E9496024B0179
:100590005C01C114D104E104F104B9F00E94960297
:1005A000681979098A099B09683E7340810591059C
:1005B00080F321E0C21AD108E108F10888EE880E24
:1005C00083E0981EA11CB11CE4CFFF90EF90DF9058
:1005D000CF90BF90AF909F908F9008952FB7F894D1
:1005E0006091A6027091A7028091A8029091A90241
:1005F0002FBF08958F929F92AF92BF92CF92DF92BA
:10060000EF92FF92CF93DF934B015C010E94EE02C9
:100610006B017C01CFE2D5E00E94EE026C197D09EE
:100620008E099F09681579058A059B0578F461E0B4
:100630008BE00E94DC01CE010197F1F760E08BE0D6
:100640000E94DC01CE010197F1F7E6CF61E08BE07B
:10065000DF91CF91FF90EF90DF90CF90BF90AF9060
:100660009F908F900C94DC0120915B02260F332722
:10067000331F21323105ECF420917F02FC0190E020
:1006800080E0243069F082E00895A0915B0221911E
:10069000AC01455C5D4FA40FB52FB11D2C930196A5
:1006A000861798F380915B02680F60935B0280E08D
:1006B000089581E0089508958FEF9FEF08958FEFDB
:1006C0009FEF08958091340290E091958195910972
:1006D0000895CF93DF93CB01EA01642F0E94340386
:1006E000CE01DF91CF910895CF93DF931F92CDB7C5
:1006F000DEB7698361E0CE0101960E94340381E098
:1007000090E00F90DF91CF910895CF93DF93FC019C
:1007100011A281E080A3108E118E128E138E148E82
:10072000158E168E178EA18138EF3A0F363008F4E9
:1007300067C032EF3A0F363010F1A83008F462C0CB
:10074000A485B5859C918089809589238C9383E0CD
:1007500090E00197F1F7A485B5858C919089892B5C
:100760008C9383E290E00197F1F7A485B5859C9185
:100770008089809589238C93DF91CF91089521E022
:1007800080911402853080F491E0980F90931402C8
:10079000C82FD0E0CC0FDD1FCA5EDD4FF983E883A0
:1007A000B0E0A05EBD4F8C934091680081E090E086
:1007B000BC01022E01C0660F0A94EAF7462B409353
:1007C000680001C0880F3A95EAF7211107C090919F
:1007D0006B00892B80936B0083B1B2CF213049F439
:1007E00090916C00892B80936C0086B180931502E8
:1007F000A7CF90916D00892B80936D0089B1A0CF18
:1008000020E0BECF3A2F22E0BBCFCF93DF93EC01A5
:10081000E989FA8980819F89892349F00E9496029B
:10082000688F798F8A8F9B8FDF91CF9108950E9477
:1008300096026C8F7D8F8E8F9F8F81E089A318A287
:100840000E94EE0268A779A78AA79BA7EDCFFC01BB
:10085000838D20E031E0281B31094CE0429FC0012C
:10086000439F900D112465E070E00E94D9116E5FE6
:100870007F4F072E000C880B990B0C94BB020F9333
:100880001F93CF93DF93EC0188859985892BD9F449
:100890000E9496020C811D812E813F81DC01CB01DB
:1008A000801B910BA20BB30B80959095A095B095F2
:1008B0008827B7FD83959927AA27BB27DF91CF917A
:1008C0001F910F9108950E94EE02E4CF0F931F93A2
:1008D000CF93DF93EC01488359836A837B8381E064
:1008E00090E0998788870E94EE02088119812A8109
:1008F0003B81DC01CB01800F911FA21FB31F8C83B2
:100900009D83AE83BF83DF91CF911F910F91089597
:1009100090E080E008951F93CF93DF9385ED80935F
:10092000BC008091370290913802A0913902B091B9
:100930003A020796A11DB11D23E0B695A79597959C
:1009400087952A95D1F72091BC0024FD03C0109211
:100950007F0252C0409137025091380260913902B3
:1009600070913A02452B462B472B69F30097A1055E
:10097000B10541F02AE22A95F1F700C00197A109DB
:10098000B109E1CF80913602C1E0C09335028823DE
:1009900099F1D091B8001091BA008091BC008A7B87
:1009A0008093BC0060E082E10E94DC0160E083E1B2
:1009B0000E94DC0110927F02C0938102109280029B
:1009C00061E082E10E94DC0161E083E10E94DC01E0
:1009D0008091B9008E7F8093B9008091B9008D7F9E
:1009E0008093B90088E48093B80085E48093BC00CC
:1009F0001093BA00D093B800DF91CF911F91089562
:100A0000FF920F931F93CF93DF93CDB7DEB72A9753
:100A10000FB6F894DEBF0FBECDBF8C01F62EFC01E1
:100A20004785508970E060E021E030E0CE0101961A
:100A30000E946604F801EB59FF4F10823596019031
:100A4000F081E02DC8010995F5E0FA95F1F7000075
:100A5000F801EA59FF4F0190F081E02DC801099596
:100A600085E08A95F1F70000FF20B1F0BE016F5FCD
:100A70007F4FC8010E946705811116C082E090E097
:100A80002A960FB6F894DEBF0FBECDBFDF91CF918F
:100A90001F910F91FF900895F801E459FF4F0190C5
:100AA000F081E02DC8010995E5E0EA95F1F7000035
:100AB000F801E859FF4F0190F081E02DC801099538
:100AC000F5E0FA95F1F7000090E080E0D9CFEF92E1
:100AD000FF920F931F93CF93DF93EC018B01FC01E7
:100AE000E459FF4F0190F081E02D09957E0180E7E8
:100AF000E80EF11CD701ED91FC91CE010995811111
:100B000011C0C8010E943F048823A1F360E0CE0118
:100B10000E94000580E0DF91CF911F910F91FF901F
:100B2000EF90089581E0F7CF8F929F92AF92BF929E
:100B3000CF92DF92EF92FF920F931F93CF93DF93A9
:100B4000CDB7DEB72A970FB6F894DEBF0FBECDBF84
:100B50008C01E62EDC011F964D915C9170E060E007
:100B600021E030E0CE0101960E94660498E0F92E63
:100B70006801BAE6CB0ED11C5801E6E6AE0EB11CF8
:100B80004801F8E68F0E911CD601ED91FC91C80149
:100B90000995D401E7FED501ED91FC91C8010995B5
:100BA000B5E0BA95F1F70000BE016F5F7F4FC80155
:100BB0000E946705811117C082E0E82EF12CC70161
:100BC0002A960FB6F894DEBF0FBECDBFDF91CF914E
:100BD0001F910F91FF90EF90DF90CF90BF90AF905B
:100BE0009F908F900895E5E0EA95F1F70000EE0CF4
:100BF000CE0101960E943F04882329F061E0C801DC
:100C00000E940005D9CFFA94F110BECFD601ED9124
:100C1000FC91C8010995F801E859FF4F0190F08156
:100C2000E02DC8010995B5E0BA95F1F70000BE01C5
:100C30006F5F7F4FC8010E946705882309F4BCCF0E
:100C4000F801E259FF4F0190F081E02DC8010995AC
:100C500091E0811101C090E0E92EE5E0EA95F1F71D
:100C60000000D601ED91FC91C8010995A8CF1F9312
:100C7000CF93DF93EC01162FFC01EA59FF4F01904F
:100C8000F081E02D099585E08A95F1F70000FE01DD
:100C9000E659FF4F0190F081E02DCE01099585E0E6
:100CA0008A95F1F70000612FCE01DF91CF911F915E
:100CB0000C949405FF920F931F93CF93DF93CDB7BE
:100CC000DEB72A970FB6F894DEBF0FBECDBF8C01FA
:100CD000F62EFC014785508970E060E021E030E0AD
:100CE000CE0101960E946604F801E659FF4F01907B
:100CF000F081E02DC8010995F5E0FA95F1F70000C3
:100D0000F801E859FF4F0190F081E02DC8010995E5
:100D100085E08A95F1F70000BE016F5F7F4FC80143
:100D20000E946705882301F1E5E0EA95F1F70000EC
:100D3000F801EA59FF4F0190F081E02DC8010995B3
:100D4000F5E0FA95F1F700006F2DC8010E949405B7
:100D50002A960FB6F894DEBF0FBECDBFDF91CF91BC
:100D60001F910F91FF90089582E090E0F1CF2F92B4
:100D70003F924F925F926F927F928F929F92AF922B
:100D8000BF92CF92DF92EF92FF920F931F93CF9378
:100D9000DF93CDB7DEB72F970FB6F894DEBF0FBE47
:100DA000CDBF8C014B87FC01E05CFF4F10826C01D2
:100DB00081E4C80ED11CD6011C92660F6F5FB596F8
:100DC0008081882309F489C0C8010E945A06892BB2
:100DD00009F064C07801512C5801BAE6AB0EB11C81
:100DE0001801E8E62E0E311C3801F0E76F0E711C79
:100DF000C80182599F4F9D878C87AB85A150BB0B43
:100E00004D01F801EA59FF4FFF87EE87D801DF96C1
:100E10008C91DF97581608F041C0F701178E1F9686
:100E20004D915C9170E060E021E030E0CE010196F0
:100E30000E94660488E0482ED7015F968C915F97E8
:100E4000880F5F968C93D501ED91FC91C8010995AF
:100E5000D101ED91FC91C8010995B5E0BA95F1F782
:100E60000000BE016F5F7F4FC8010E9467058823A5
:100E7000A9F0E5E0EA95F1F70000D301ED91FC91CE
:100E8000C801099581112DC0CE0101960E943F0431
:100E9000882399F361E0C8010E94000561E0C80160
:100EA0000E940005D6018C912F960FB6F894DEBFF4
:100EB0000FBECDBFDF91CF911F910F91FF90EF90AB
:100EC000DF90CF90BF90AF909F908F907F906F906A
:100ED0005F904F903F902F900895C8010E94370671
:100EE00076CFAC85BD85ED91FC91C801099588232D
:100EF00021F0F701878D8160878F4A9441109CCF44
:100F0000D501ED91FC91C8010995C701801B910B9A
:100F1000AE85BF858816990609F4D101ED91FC9143
:100F2000C8010995B5E0BA95F1F70000BE016F5F01
:100F30007F4FC8010E946705882309F4AFCFE5E021
:100F4000EA95F1F70000D301ED91FC91C8010995F4
:100F5000811107C0CE0101960E943F04882399F3B6
:100F600099CFB5E0BA95F1F70000D501ED91FC916C
:100F7000C8010995F60180818F5F80835394FFEF4C
:100F8000EF1AFF0A8B85851141CF88CFEF92FF9230
:100F90001F93CF93DF93EC01FC01EE5BFF4F608169
:100FA000660FB39680818823A9F0CE010E945A066D
:100FB00012E08130910519F0029781F414E061E0AC
:100FC000CE010E940005812FDF91CF911F91FF90EC
:100FD000EF900895CE010E943706EACF10E07E011F
:100FE00084E6E80EF11CF7018081181780F4FE01F9
:100FF000E10FF11DED5BFF4F6081CE010E94940572
:101000008130910531F00297C9F21F5FECCF10E0FB
:10101000D6CF13E0D4CFCF92DF92EF92FF920F930F
:101020001F93CF93DF93CDB7DEB728970FB6F89411
:10103000DEBF0FBECDBF8C01DC0156968D919C9119
:101040005797FC01EE5BFF4F29E220838C599F4F9D
:10105000FC01108256968D919C91DC01ED91FC91E2
:101060000190F081E02D64E90995F801868997895E
:101070000E94C607D80119968C93199748E069E237
:1010800056968D919C910E94B706FE0131967F0184
:101090006E01F9E0CF0ED11CD80156968D919C912E
:1010A000DC01ED91FC910284F385E02D0995F701B7
:1010B00081937F01EC15FD0579F789819A81D8012B
:1010C00051969C938E9350978B819C811B969C93F9
:1010D0008E931A978D819E811D969C938E931C975B
:1010E0008F8198851F969C938E931E970E94EE0287
:1010F000F801628B738B848B958B28960FB6F894CE
:10110000DEBF0FBECDBFDF91CF911F910F91FF903A
:10111000EF90DF90CF9008950F931F93CF93DF93BD
:1011200000D0CDB7DEB78C0180E889836A83D8010F
:1011300056968D919C915797FC01EE5BFF4F29E2EB
:1011400020838C599F4FFC01108256968D919C9163
:10115000DC01ED91FC910280F381E02D42E050E052
:10116000BE016F5F7F4F0995F801868997890E94BC
:10117000C607D80119968C930F900F90DF91CF91ED
:101180001F910F91089563E00C948C0861E00C941A
:101190008C08CF93DF93EC018F8198852C85FC011F
:1011A000EE5BFF4F20838C599F4FDC011C928F8197
:1011B0009885DC01ED91FC910190F081E02D09957D
:1011C0008F8198850E94C607888341E06C858F8156
:1011D00098850E94B7068F819885DC01ED91FC917E
:1011E0000284F385E02D0995DF91CF9108951F9337
:1011F000CF93DF93EC01142F8F8198852C85FC0110
:10120000EE5BFF4F20838C599F4FDC011C928F8136
:101210009885DC01ED91FC910190F081E02D09951C
:101220008F819885DC01ED91FC910190F081E02D9A
:10123000612F09958F8198850E94C6078883DF9169
:10124000CF911F9108950F931F93CF93DF93EC01DC
:101250000E94EE027F8B6E8B63E1CE010E94C90873
:101260008770C9F48B899C89892BB1F30E94EE02A7
:101270002E893F89621B730B8B899C898617970780
:1012800058F781E08D8B0FEF1FEFC801DF91CF91F1
:101290001F910F9108958F8198852C85FC01EE5B3D
:1012A000FF4F20838C599F4FDC011C928F819885C2
:1012B000DC01ED91FC910190F081E02D6EE109954A
:1012C0008F8198850E94C607888342E06C858F8154
:1012D00098850E94B7068F819885DC01ED91FC917D
:1012E0000284F385E02D099500E0182F8F81988501
:1012F000DC01ED91FC910284F385E02D0995082B2A
:10130000192B41E06BE0CE010E94F708BECF0F938E
:101310001F93CF93DF93EC010E94EE020B811C819F
:101320002D813E81601B710B820B930B653671051D
:101330008105910508F44DC041E060E8CE010E94AE
:10134000F70841E06FEFCE010E94F70840E060E04F
:10135000CE010E94F708488D61E9CE010E94F7088E
:1013600041E060E0CE010E94F70840E06FEFCE015F
:101370000E94F70840E060E8CE010E94F70841E0D3
:1013800060E0CE010E94F7080E94EE027F8B6E8B18
:1013900060E0CE010E94C90880FF22C08B899C8931
:1013A000892BB1F30E94EE022E893F89621B730BD9
:1013B0008B899C898617970758F781E08D8B8FEF73
:1013C0009FEF9A8389830E94EE026B837C838D83D7
:1013D0009E8389819A81DF91CF911F910F9108950A
:1013E000CE010E942309EDCFCF93DF93EC018E89CC
:1013F0009F89FC01EE5BFF4F29E220838C599F4FB0
:10140000DC011C928E899F89DC01ED91FC91019099
:10141000F081E02D60E809958E899F890E94C607BA
:10142000898741E069E28E899F890E94B7068E898B
:101430009F89DC01ED91FC910284F385E02D0995F3
:10144000682F6C7FCE01DF91CF910C948C082F9286
:101450003F924F925F926F927F928F929F92AF9244
:10146000BF92CF92DF92EF92FF920F931F93CF9391
:10147000DF93EC010E94C60863E070E080E090E03A
:101480000E94BB02CE010E94C308CE010E94270425
:10149000CE010E940B08EA84FB840C851D858E8496
:1014A0009F8448885988CE010E94F409CE010E9489
:1014B000C60863E070E080E090E00E94BB02CE01CD
:1014C0000E94C3088C8D0E94950060E08C8D0E9464
:1014D000DC01CE010E942704CE010E940B08AA84E1
:1014E000BB84CC84DD846E847F8428883988CE01D7
:1014F0000E94F409EA18FB0821E0E2162AEFF2063E
:1015000008F099C0FB86EA860C191D0901308AEFA4
:10151000180708F093C01D870C87C4018619970926
:1015200081302AEF920708F08CC09F878E8742187F
:10153000530881E048168AEF580608F085C0598A9A
:10154000488A2A853B850C851D85CE84DF84E88802
:10155000F98821308AEF380710F01B861A86AFEF22
:10156000B0E00E94CA112881398150E040E00E9419
:10157000A81129013B872A879801AFEFB0E00E94AC
:10158000CA112A813B8150E040E00E94A8118901E4
:101590003D872C879601AFEFB0E00E94CA112C81E5
:1015A0003D8150E040E00E94A81169013F872E87ED
:1015B0009701AFEFB0E00E94CA112E813F8150E049
:1015C00040E00E94A811C901398B288B2FEF4216E9
:1015D000510429F020F02FEF30E03B872A870F3F9E
:1015E000110529F020F02FEF30E03D872C872FEFF9
:1015F000C216D10429F020F02FEF30E03F872E876C
:101600008F3F910529F020F08FEF90E0998B888B28
:10161000DF91CF911F910F91FF90EF90DF90CF90CE
:10162000BF90AF909F908F907F906F905F904F9002
:101630003F902F9008951B861A8666CF1D861C86C4
:101640006CCF1F861E8673CF198A188A7ACFFC0149
:1016500001900020E9F73197AF01481B590BBC01FD
:101660008FEA92E00C94B4008F929F92AF92BF9257
:101670000F931F93CF93DF93CDB7DEB7A1970FB62C
:10168000F894DEBF0FBECDBF19A2423008F44AE085
:101690008E010F5D1F4F842E912CB12CA12CA50122
:1016A00094010E94A811E62FB901CA01EA30F4F4AE
:1016B000E05DD801EE938D01232B242B252B79F7A8
:1016C00090E080E0109719F0CD010E94270BA196C1
:1016D0000FB6F894DEBF0FBECDBFDF91CF911F9143
:1016E0000F91BF90AF909F908F900895E95CE1CFEC
:1016F000BC0190E080E04AE00C94340BCF93DF9380
:101700000E94780BEC018CE191E00E94270B8C0F7A
:101710009D1FDF91CF910895CF93DF93D0E0C0E07C
:10172000009719F00E94270BEC018CE191E00E94D8
:10173000270B8C0F9D1FDF91CF910895CF93DF93DF
:101740000E94A101EC018CE191E00E94270B8C0F1B
:101750009D1FDF91CF9108950C94270B1F920F923C
:101760000FB60F9211242F933F934F935F936F9374
:101770007F938F939F93AF93BF93EF93FF938FEAE2
:1017800092E00E943201FF91EF91BF91AF919F9142
:101790008F917F916F915F914F913F912F910F901A
:1017A0000FBE0F901F9018951F920F920FB60F92B9
:1017B00011242F938F939F93EF93FF93E091BF0298
:1017C000F091C0028081E091C502F091C60282FDD5
:1017D0001BC090818091C8028F5F8F732091C902D6
:1017E000821741F0E091C802F0E0E155FD4F958F7E
:1017F0008093C802FF91EF919F918F912F910F904D
:101800000FBE0F901F9018958081F4CF1F920F92FA
:101810000FB60F9211242F933F938F939F93AF9303
:10182000BF938091A6029091A702A091A802B091C7
:10183000A9023091A50223E0230F2D3758F5019618
:10184000A11DB11D2093A5028093A6029093A7022B
:10185000A093A802B093A9028091AA029091AB0232
:10186000A091AC02B091AD020196A11DB11D809373
:10187000AA029093AB02A093AC02B093AD02BF91C9
:10188000AF919F918F913F912F910F900FBE0F902D
:101890001F90189526E8230F0296A11DB11DD2CFE7
:1018A0001F920F920FB60F9211242F933F934F93D5
:1018B0005F936F937F938F939F93AF93BF93EF93B8
:1018C000FF938091B900887F803609F44AC0F0F513
:1018D000883209F4A5C018F5803109F499C0B8F42C
:1018E000882309F4F5C0883009F492C0FF91EF9184
:1018F000BF91AF919F918F917F916F915F914F9128
:101900003F912F910F900FBE0F901F901895883127
:1019100009F486C0803251F780937E0214C080346F
:1019200009F49BC040F48033B9F38833F9F680930F
:101930007E0285ECAEC0803509F483C0883509F499
:1019400094C0883499F60E948B04D0CF883909F46A
:101950008AC038F5883729F050F4883611F080377E
:1019600029F683E080937F0210927D0255C088386B
:1019700009F479C0803919F0803809F0B7CF809127
:101980007D02803208F06FC0E0917D0281E08E0F11
:1019900080937D028091BB00F0E0E35AFD4F80838D
:1019A0003BC0803B39F0D0F4803A09F477C0883AE4
:1019B00009F09CCF84E080937F0210925C02109229
:1019C0005B02F0E0E0E0099580915B0281110FC0BD
:1019D00081E080935B0210923B0209C0803C09F4D5
:1019E000A8CF883C09F4A5CF883B09F07FCFE091D0
:1019F0005C0281E08E0F80935C02F0E0E55CFD4FBD
:101A000080818093BB0090915C0280915B0229C031
:101A10008091A4028093BB0085EC8093BC0066CFCC
:101A20009091A3028091A202981758F5E091A30229
:101A300081E08E0F8093A302F0E0EE57FD4F80818E
:101A4000E9CFE091A30281E08E0F8093A302809101
:101A5000BB00F0E0EE57FD4F80839091A302809190
:101A6000A2029817C8F285E8D8CFE091A30281E0DE
:101A70008E0F8093A3028091BB00F0E0EE57FD4FE4
:101A800080838091810281115ECF81E0809380020A
:101A900084EA8093BC0010927F0228CF85EC80936B
:101AA000BC0010927F0280917D02803230F4E09180
:101AB0007D02F0E0E35AFD4F108260917D0270E0FC
:101AC0008DE592E0F0E0E0E0099510927D020ECF06
:101AD00010927E0238CF1F920F920FB60F921124F0
:101AE0002F933F934F935F936F937F938F939F9326
:101AF000AF93BF93EF93FF93E0912302F0E0EE0FDB
:101B0000FF1FEA5EFD4F80819181009711F00E94D6
:101B10000504FF91EF91BF91AF919F918F917F91BC
:101B20006F915F914F913F912F910F900FBE0F904A
:101B30001F9018951F920F920FB60F9211242F939A
:101B40003F934F935F936F937F938F939F93AF9345
:101B5000BF93CF93EF93FF9386B1C0911502C8272F
:101B600080931502C1FF0DC0E0912F02F0E0EE0F4F
:101B7000FF1FEA5EFD4F80819181009711F00E9466
:101B80000504C3FF0DC0E0913102F0E0EE0FFF1F2E
:101B9000EA5EFD4F80819181009711F00E9405045B
:101BA000C5FF0DC0E0913302F0E0EE0FFF1FEA5ECB
:101BB000FD4F80819181009711F00E940504FF91F3
:101BC000EF91CF91BF91AF919F918F917F916F9145
:101BD0005F914F913F912F910F900FBE0F901F90EB
:101BE00018951F920F920FB60F9211242F933F93C7
:101BF0004F935F936F937F938F939F93AF93BF9315
:101C0000EF93FF93E0912902F0E0EE0FFF1FEA5EF1
:101C1000FD4F80819181009711F00E940504FF9192
:101C2000EF91BF91AF919F918F917F916F915F9154
:101C30004F913F912F910F900FBE0F901F901895CD
:101C40001F920F920FB60F9211240F900FBE0F909C
:101C50001F901895EF92FF920F931F93CF93DF93EE
:101C60001092B2021092B10288EE93E0A0E0B0E0D0
:101C70008093B3029093B402A093B502B093B602DE
:101C80008EE091E09093B0028093AF0285EC90E0FB
:101C90009093BC028093BB0284EC90E09093BE02D0
:101CA0008093BD0280EC90E09093C0028093BF02CD
:101CB00081EC90E09093C2028093C10282EC90E0AC
:101CC0009093C4028093C30286EC90E09093C60286
:101CD0008093C5021092C8021092C9021092CA02E3
:101CE0001092CB0210926E0410926D0410926F0449
:101CF000109270041092710410924D0410924E04D0
:101D00008AE0EFE4F4E0DF01982F1D929A95E9F75D
:101D1000E9E5F4E0DF01982F1D929A95E9F7E3E6F3
:101D2000F4E0DF011D928A95E9F78CE090E00E94D3
:101D30000E12FC01AC01445F5F4F6FEFC8EBDBE0BC
:101D400020915803243008F014C131E0320F309351
:101D50005803208330E0D901AA0FBB1FA20FB31F85
:101D6000A45BBC4F1296DC93CE9311973396E41785
:101D7000F50731F790934C0480934B0410924A047A
:101D800010923D041FEF10934004C2E0D0E0D093C6
:101D90003F04C0933E048EE0809341048FE0809323
:101DA00042046FE171E084E494E00E94331301E0A7
:101DB000009343041092180410931B04D0931A0448
:101DC000C093190480E180931C0481E180931D0479
:101DD00065E271E08FE194E00E94331382E0E82E27
:101DE000E0921E041092F3031093F603D093F503D0
:101DF000C093F40318E01093F703D6E0D093F803F0
:101E00006BE271E08AEF93E00E943313C3E0C0936A
:101E1000F9031092C0031092BF031092C1031092F5
:101E2000C2031092C3031092C40399E2F92EF092F8
:101E3000CA031092D2031092D1031092D3031092CE
:101E4000C6031092C503E092C703C093C80361E3C1
:101E500071E08BEC93E00E94331384E08093C9031C
:101E600088E39AE4A0E0B0E080939A0390939B0308
:101E7000A0939C03B0939D0382E18093920383E13E
:101E80008093930367E371E085E993E00E94331345
:101E9000109294031092B2031092B3031092AA030B
:101EA0001092AB031092AC031092AD031092AE03EC
:101EB0001092AF031092B0031092B1031092B403CA
:101EC0001092B5031092B6031092B70310927703E5
:101ED00010927603109278031092790310927A038D
:101EE00010927B03F0928103109289031092880371
:101EF00010928A0310927D0310927C0310937E034C
:101F0000D0937F036BE271E082E893E00E94331389
:101F1000C093800310925A031092590310925B03EE
:101F200010925C0310925D0300935E0384E690E0E0
:101F3000A0E0B0E08093710390937203A0937303C9
:101F4000B093740310926A031092690310926C03A9
:101F500010926B0310926E0310926D031092700337
:101F600010926F03DF91CF911F910F91FF90EF902F
:101F700008956083FBCE789484B5826084BD84B577
:101F8000816084BD85B5826085BD85B5816085BD74
:101F900080916E00816080936E001092810080912C
:101FA00081008260809381008091810081608093B4
:101FB0008100809180008160809380008091B100D9
:101FC00084608093B1008091B00081608093B00004
:101FD00080917A00846080937A0080917A00826098
:101FE00080937A0080917A00816080937A0080915A
:101FF0007A00806880937A001092C100E091BF025D
:10200000F091C00282E08083E091BB02F091BC02BB
:102010001082E091BD02F091BE0280E180831092B7
:10202000C702E091C302F091C40286E08083E09190
:10203000C102F091C202808180618083E091C1027F
:10204000F091C202808188608083E091C102F091AA
:10205000C202808180688083E091C102F091C20257
:1020600080818F7D808380918100887F85608093CF
:10207000810089E00E94950087E00E9495008AE037
:102080000E94950084E00E9495008CE391E00E94FC
:102090008C0B82E591E00E94AC0B85E10E948402EA
:1020A00027E133E1DC010E94ED1128EE33E040E04E
:1020B00050E00E94A81169017A014AE0C701B60107
:1020C0000E94340B86E691E00E948C0B21EDC21633
:1020D00027E0D206E104F10408F09FC08AE691E00F
:1020E0000E948C0B85E10E94840227E133E1DC0130
:1020F0000E94ED116834774E8641910538F46DE702
:1021000070E080E090E00E94BB02ECCF86EB91E0B3
:102110000E948C0BC0900601D0900701E09008014E
:10212000F0900901C0914B04D0914C048881843017
:10213000D0F58DE00E949500E8818E2F90E0FC01A3
:10214000EE0FFF1FE80FF91FE45BFC4F8081807CDE
:102150008D60808319821A8290E080E0FC01EE0F8E
:10216000FF1FE80FF91FE45BFC4F208126FD0EC026
:1021700001968430910591F71092900082E080934F
:102180009100109295001092940088BBE8818E2FE8
:1021900090E0FC01EE0FFF1FE80FF91FE45BFC4F1E
:1021A0008081806480838CE790E00E94A101C70158
:1021B0000E948C0BC091AE02CF5FC093AE026AE06A
:1021C00070E080E090E00E94BB02D0E080914E047D
:1021D00090914D04992309F446C0662777276C1B1C
:1021E0007D0B811144C077FD2FC089E00E94280239
:1021F00060E087E00E94DC01D7FD2DC0BE018AE0CF
:102200000E94280260E084E00E94DC01809194003A
:10221000909195000E947E0BCDCF81EDC81A87E08A
:10222000D80AE108F1082BE4C21624E0D206E10442
:10223000F10408F06FCF89ED91E00E948C0B88EEDD
:1022400091E00E948C0BFFCF61507F4F89E00E948C
:10225000280261E0CECFBE0161507F4F8AE00E942C
:10226000280261E0D0CFBE01882309F4BECFD1950A
:10227000C195D109B8CF8091590390915A03009725
:1022800011F00E94AA1280919403882371F080912A
:10229000930328EF280F2630B8F122EF280F2630BD
:1022A000E0F0282F32E08830C8F080914A0488237B
:1022B00021F061E08BE00E94DC0180914B04909161
:1022C0004C04009711F00E94AA1280916D04909125
:1022D0006E040097E1F10C94AA1231E081E090E0E5
:1022E00001C0880F2A95EAF78095313019F5909151
:1022F0006C00892380936C0080916C008111D5CF94
:10230000809168008D7F13C030916B0081E090E078
:1023100001C0880F2A95EAF78095832380936B008C
:1023200080916B008111C1CF809168008E7F809376
:102330006800BBCF90916D00892380936D008091E0
:102340006D008111B2CF809168008B7FF0CF08952E
:10235000A1E21A2EAA1BBB1BFD010DC0AA1FBB1FA9
:10236000EE1FFF1FA217B307E407F50720F0A21B1B
:10237000B30BE40BF50B661F771F881F991F1A9488
:1023800069F760957095809590959B01AC01BD01B2
:10239000CF010895A29FB001B39FC001A39F700D0C
:1023A000811D1124911DB29F700D811D1124911D5D
:1023B000089597FB072E16F4009407D077FD09D0F7
:1023C0000E94F41107FC05D03EF4909581959F4F33
:1023D0000895709561957F4F08950E94CA11B7FFC7
:1023E0000895821B930B0895AA1BBB1B51E107C0E4
:1023F000AA1FBB1FA617B70710F0A61BB70B881F95
:10240000991F5A95A9F780959095BC01CD01089523
:10241000EE0FFF1F0590F491E02D09940F931F9389
:10242000CF93DF938230910510F482E090E0E09149
:102430007404F091750430E020E0B0E0A0E0309743
:1024400099F42115310509F44AC0281B390B2430B1
:102450003105D8F58A819B816115710589F1FB01F0
:1024600093838283FE0111C04081518102811381D7
:1024700048175907E0F04817590799F4109761F089
:1024800012960C93129713961C933296CF01DF91FC
:10249000CF911F910F9108950093740410937504C8
:1024A000F4CF2115310551F04217530738F0A90137
:1024B000DB019A01BD01DF01F801C1CFEF01F9CFC6
:1024C0009093750480937404CDCFFE01E20FF31F47
:1024D000819391932250310939832883D7CF20915A
:1024E000720430917304232B41F420910201309146
:1024F0000301309373042093720420910001309102
:1025000001012115310541F42DB73EB74091040179
:1025100050910501241B350BE0917204F091730476
:10252000E217F307A0F42E1B3F0B2817390778F0AA
:10253000AC014E5F5F4F2417350748F04E0F5F1F09
:102540005093730440937204819391939FCFF0E072
:10255000E0E09CCFCF93DF930097E9F0FC01329746
:1025600013821282A0917404B0917504ED0130E0E1
:1025700020E01097A1F420813181820F931F2091D8
:102580007204309173042817390709F061C0F09381
:102590007304E0937204DF91CF910895EA01CE179E
:1025A000DF07E8F54A815B819E0141155105B1F7CE
:1025B000E901FB83EA8349915991C40FD51FEC17B8
:1025C000FD0761F4808191810296840F951FE901D6
:1025D00099838883828193819B838A83F0E0E0E002
:1025E00012968D919C9113970097B9F52D913C917E
:1025F0001197CD010296820F931F209172043091A2
:1026000073042817390739F6309751F5109275047D
:1026100010927404B0937304A0937204BCCFD3835C
:10262000C28340815181840F951FC817D90761F477
:102630004E5F5F4F88819981480F591F51834083B6
:102640008A819B81938382832115310509F0B0CF64
:10265000F0937504E09374049ECFFD01DC01C0CFBC
:1026600013821282D7CFFB01DC0101900D92002072
:10267000E1F7089510E0CAE6D0E004C0FE010E9430
:0E26800008122196CB36D107C9F7F894FFCF88
:10268E00000076048000010D1102000000005401CC
:10269E00B400E100BC011201F00004010D0A004972
:1026AE0032432D31004932432D32004932432D330E
:1026BE00004932432D340055532D350048656C6C5E
:1026CE006F2C20427269636B2053696D706C657359
:1026DE00210054656E73616F2064612062617465C0
:1026EE007269613A2000206D5600427269636B2058
:1026FE006C696761646F206170656E6173206E61D5
:10270E00205553422C207061726120656C652066E5
:10271E00756E63696F6E61722C206C6967756520CA
:10272E0061206368617665206C6967612F646573EB
:10273E006C6967612E00427269636B206C69676118
:10274E00646F2C20636F6D65C3A7616E646F206F1D
:10275E002063C3B36469676F004261746572696117
:10276E002066726163612100436F6C6F7175652025
:10277E006F20627269636B20706172612063617297
:10278E007265676172206520616775617264652E7E
:04279E0000533100B3
:00000001FF
