:100000000C944A010C9472010C9472010C941D0F13
:100010000C941D0F0C941D0F0C9472010C94720122
:100020000C9472010C9472010C9472010C944210A5
:100030000C9472010C9472010C9472010C94720174
:100040000C94D30E0C9472010C94A10E0C947B0EA4
:100050000C9472010C9472010C9472010C94720154
:100060000C94270F0C94720100000000230026005E
:1000700029004E656E68756D612063616C696272FE
:1000800061C3A7C3A36F2076C3A16C6964612065B7
:100090006E636F6E7472616461206E6120454550BD
:1000A000524F4D2C2063616C69627265206F207322
:1000B000656E736F722E0043616C69627261C3A7D3
:1000C000C3A36F20636172726567616461206461BC
:1000D00020454550524F4D2E005443533334373250
:1000E000352064657465637461646F20636F6D208F
:1000F0007375636573736F206E6120706F727461C6
:1001000020004572726F20616F20646574656374AE
:100110006172206F205443533334373235206E617F
:1001200020706F727461200053656E736F72206E61
:10013000C3A36F20696E696369616C697A61646FDA
:100140002E204EC3A36F20C3A920706F7373C3AD5D
:1001500076656C2063616C69627261722E00436126
:100160006C69627261C3A7C3A36F2073616C76610F
:10017000206E6120454550524F4D2E000000000872
:10018000000201000003040700000000000000005E
:1001900042757A7A657220696E696369616C697A01
:1001A00061646F206E6120504F5254415F5345523D
:1001B000564F5F33202870696E6F20313129202D12
:1001C000204C6F6769636120696E7665727469643B
:1001D0006100204C4544730020636F6D2000466928
:1001E0007461204C454420696E696369616C697A69
:1001F000616461206E6120706F72746120004572CD
:10020000726F3A2042757A7A6572206E616F20694A
:100210006E696369616C697A61646F21004572720D
:100220006F3A2050696E6F204C454420696E7661AC
:100230006C69646F212055736520504F5254415FA3
:100240004C45445F31206120504F5254415F4C4532
:10025000445F340000000000250028002B0000004F
:100260000000240027002A000404040404040404F9
:100270000202020202020303030303030102040851
:100280001020408001020408102001020408102000
:10029000F410841411241FBECFEFD8E0DEBFCDBF11
:1002A00012E0A0E0B1E0E4E5FCE202C005900D92AE
:1002B000A437B107D9F724E0A4E7B2E001C01D924A
:1002C000A030B207E1F711E0C9E4D1E004C0219702
:1002D000FE010E94EB14C834D107C9F70E94101226
:1002E0000C941D160C940000CF93DF93FC01248521
:1002F00030E0F901E859FD4F849124583D4FF90150
:10030000249190E0880F991FFC01EC5AFD4FC59194
:10031000D491FC01E25AFD4FA591B4919FB7F89496
:100320003881822F809583238883EC91E22BEC9394
:100330009FBFDF91CF910895CF93DF93FC01448558
:1003400050E0FA01E859FD4F249144585D4FFA01FD
:10035000449130E0220F331FF901EC5AFD4FA59173
:10036000B491F901E25AFD4FC591D4912881342FFF
:10037000309523232883FC018685823031F4EC916B
:10038000E42BEC93DF91CF9108958C9183238C9390
:10039000F9CFCF93DF93FC01258530E0F901E859CF
:1003A000FD4F849124583D4FF901249190E0880F2E
:1003B000991FFC01EC5AFD4FC591D491FC01E25A02
:1003C000FD4FA591B4919FB7F8943881822F809505
:1003D00083238883EC91E22BEC939FBFDF91CF9135
:1003E0000895CF93DF93FC01458550E0FA01E85969
:1003F000FD4F249144585D4FFA01449130E0220FA3
:10040000331FF901EC5AFD4FA591B491F901E25A5D
:10041000FD4FC591D4912881342F30952323288313
:10042000FC018685823031F4EC91E42BEC93DF9172
:10043000CF9108958C9183238C93F9CFFC0124856F
:1004400030E0F901E859FD4F849124583D4FF901FE
:100450002491E82FF0E0EE0FFF1FE859FF4FA59120
:10046000B491EC91E22381E009F480E00895FC016D
:10047000258530E0F901E859FD4F849124583D4F1E
:10048000F9012491E82FF0E0EE0FFF1FE859FF4F2C
:10049000A591B491EC91E22381E009F480E0089504
:1004A00090E0FC01E458FD4F249188599D4FFC01D8
:1004B0008491882399F090E0880F991FFC01E25AFB
:1004C000FD4FA591B491FC01EC5AFD4F859194919B
:1004D0008FB7F894EC91E22BEC938FBF08958230A4
:1004E000910538F0880F991F880F991F059701977C
:1004F000F1F70895AF92BF92CF92DF92EF92FF9201
:100500000F931F93CF93DF936C017B018B01040F3B
:10051000151FEB015E01AE18BF08C017D10759F0D7
:100520006991D601ED91FC910190F081E02DC60119
:100530000995892B79F7C501DF91CF911F910F9113
:10054000FF90EF90DF90CF90BF90AF900895FC01A7
:10055000538D448D252F30E0842F90E0821B930B28
:10056000541710F0CF96089501970895FC01918DCE
:10057000828D981761F0A28DAE0FBF2FB11D5D96D1
:100580008C91928D9F5F9F73928F90E008958FEF73
:100590009FEF0895FC01918D828D981731F0828D27
:1005A000E80FF11D858D90E008958FEF9FEF08957E
:1005B000FC01918D228D892F90E0805C9F4F821BE2
:1005C00091098F739927089582E093E00E94D802E1
:1005D00021E0892B09F420E0822F089580E090E04B
:1005E000892B29F00E94E40281110C9400000895E7
:1005F000FC01A48DA80FB92FB11DA35ABF4F2C9198
:10060000848D90E001968F739927848FA689B7898E
:100610002C93A089B1898C91837080648C93938D85
:10062000848D981306C00288F389E02D80818F7D28
:1006300080830895EF92FF920F931F93CF93DF93E0
:10064000EC0181E0888F9B8D8C8D98131AC0E8890E
:10065000F989808185FF15C09FB7F894EE89FF89DD
:100660006083E889F98980818370806480839FBF7B
:1006700081E090E0DF91CF911F910F91FF90EF907B
:100680000895F62E0B8D10E00F5F1F4F0F7311278B
:10069000E02E8C8D8E110CC00FB607FCFACFE889C6
:1006A000F989808185FFF5CFCE010E94F802F1CF54
:1006B000EB8DEC0FFD2FF11DE35AFF4FF0829FB73A
:1006C000F8940B8FEA89FB8980818062CFCF0F93EA
:1006D0001F93CF93DF938C01D0E0C0E0F801EC0FC3
:1006E000FD1F6491662341F082E093E00E941A03AB
:1006F000892B11F02196F2CFCE01DF91CF911F917E
:100700000F910895CF93DF93EC01888D8823B9F082
:10071000AA89BB89E889F9898C9185FD03C080810C
:1007200086FD0DC00FB607FCF7CF8C9185FFF2CF89
:10073000808185FFEDCFCE010E94F802E9CFDF91E5
:10074000CF91089590E0FC01E458FE4F2491FC0104
:10075000E458FD4F3491FC01E859FD4FE491EE233C
:10076000C9F0222339F0233001F1A8F4213019F126
:10077000223029F1F0E0EE0FFF1FEC5AFD4FA5915A
:10078000B4918FB7F894EC91611126C030953E2357
:100790003C938FBF08952730A9F02830C9F024304A
:1007A00049F7809180008F7D03C0809180008F7712
:1007B00080938000DFCF84B58F7784BDDBCF84B595
:1007C0008F7DFBCF8091B0008F778093B000D2CF28
:1007D0008091B0008F7DF9CF3E2BDACF8E508064B0
:1007E00080937C0080917A00806480937A0080916D
:1007F0007A0086FDFCCF8091780090917900089571
:100800003FB7F8948091ED029091EE02A091EF0233
:10081000B091F00226B5A89B05C02F3F19F00196B4
:10082000A11DB11D3FBFBA2FA92F982F8827BC014A
:10083000CD01620F711D811D911D42E0660F771F72
:10084000881F991F4A95D1F708958F929F92AF9272
:10085000BF92CF92DF92EF92FF924B015C010E9418
:1008600000046B017C010E9400046C197D098E0953
:100870009F09683E734081059105A8F321E0821A23
:100880009108A108B10888EEC80E83E0D81EE11CCB
:10089000F11C81149104A104B10429F7FF90EF9099
:1008A000DF90CF90BF90AF909F908F9008952FB71B
:1008B000F8946091E9027091EA028091EB029091C4
:1008C000EC022FBF08958F929F92AF92BF92CF926A
:1008D000DF92EF92FF924B015C010E9457046B0183
:1008E0007C010E9457046C197D098E099F096815C7
:1008F00079058A059B0588F461E08BE00E94A203DC
:100900008DE491E00E946F0260E08BE00E94A20300
:100910008DE491E00E946F02E4CF61E08BE0FF90F4
:10092000EF90DF90CF90BF90AF909F908F900C94FE
:10093000A20320919C02260F3327331F2132310559
:10094000ECF42091C002FC0190E080E0243069F0DA
:1009500082E00895A0919C022191AC0144585D4F22
:10096000A40FB52FB11D2C930196861798F3809193
:100970009C02680F60939C0280E0089581E00895D6
:1009800008958FEF9FEF08958FEF9FEF0895809167
:10099000750290E09195819591090895CF93DF9329
:1009A000CB01EA01642F0E949904CE01DF91CF911F
:1009B0000895CF93DF931F92CDB7DEB7698361E0CF
:1009C000CE0101960E94990481E090E00F90DF91A2
:1009D000CF910895DC01D396EC91D397D4962C91C6
:1009E000E21730F4E80FF92FF11D828990E00895A5
:1009F0008FEF9FEF0895DC01D396EC91D397D496B7
:100A00008C91D497E81758F481E08E0FD3968C938D
:100A1000D397EA0FFB2FF11D828990E008958FEFA5
:100A20009FEF0895CF92DF92EF92FF920F931F9363
:100A3000CF93DF936C01EB017B01E40EF51E10E018
:100A400000E0CE15DF0561F06991D601ED91FC91D2
:100A50000190F081E02DC6010995080F191FF1CF13
:100A6000C801DF91CF911F910F91FF90EF90DF9020
:100A7000CF900895CF93DF93DC01A95ABF4FEC913B
:100A8000EC01CA5ADF4F2881E21750F021E030E034
:100A9000FC013383228390E080E0DF91CF910895C1
:100AA00021E02E0F2C93E80FF92FF11D66AB81E0AA
:100AB00090E0F3CFFC0184A993A9891B990B0895B9
:100AC00008950F931F93CF93DF93EC018885998549
:100AD000892BD9F40E9400040C811D812E813F8155
:100AE000DC01CB01801B910BA20BB30B8095909581
:100AF000A095B0958827B7FD83959927AA27BB278E
:100B0000DF91CF911F910F9108950E945704E4CF78
:100B10000F931F93CF93DF93EC01488359836A832C
:100B20007B8381E090E0998788870E945704088141
:100B300019812A813B81DC01CB01800F911FA21F0B
:100B4000B31F8C839D83AE83BF83DF91CF911F91B1
:100B50000F910895FF920F931F93CF93DF93CDB71B
:100B6000DEB72A970FB6F894DEBF0FBECDBF8C015B
:100B7000F62EFC014089518970E060E021E030E010
:100B8000CE0101960E948805F801E85AFF4F1082B5
:100B900035960190F081E02DC8010995F80187850F
:100BA00090E00E946F02F801E75AFF4F0190F08138
:100BB000E02DC8010995F801878590E00E946F0239
:100BC000FF20B1F0BE016F5F7F4FC8010E94150684
:100BD000811116C082E090E02A960FB6F894DEBF2D
:100BE0000FBECDBFDF91CF911F910F91FF90089560
:100BF000F801E15AFF4F0190F081E02DC8010995FD
:100C0000F801878590E00E946F02F801E55AFF4FD6
:100C10000190F081E02DC8010995F801878590E0E9
:100C20000E946F0290E080E0D7CFEF92FF920F9387
:100C30001F93CF93DF93EC018B01FC01E15AFF4F2F
:100C40000190F081E02D09957E0183E6E80EF11C0C
:100C5000D701ED91FC91CE010995811111C0C80118
:100C60000E9461058823A1F360E0CE010E94AA05DD
:100C700080E0DF91CF911F910F91FF90EF90089549
:100C800081E0F7CF8F929F92AF92BF92CF92DF9287
:100C9000EF92FF920F931F93CF93DF93CDB7DEB701
:100CA0002A970FB6F894DEBF0FBECDBF8C01E62E9B
:100CB000DC0150964D915C9170E060E021E030E005
:100CC000CE0101960E94880598E0F92E6801BDE5E5
:100CD000CB0ED11C5801E9E5AE0EB11C4801FBE575
:100CE0008F0E911CD601ED91FC91C8010995D4019C
:100CF000E7FED501ED91FC91C8010995F8018785C2
:100D000090E00E946F02BE016F5F7F4FC8010E949A
:100D10001506811117C082E0E82EF12CC7012A9632
:100D20000FB6F894DEBF0FBECDBFDF91CF911F91FC
:100D30000F91FF90EF90DF90CF90BF90AF909F907A
:100D40008F900895D8011F968C9190E00E946F02B9
:100D5000EE0CCE0101960E946105882329F061E026
:100D6000C8010E94AA05D7CFFA94F110BBCFD601D3
:100D7000ED91FC91C8010995F801E55AFF4F0190EA
:100D8000F081E02DC8010995F801878590E00E9467
:100D90006F02BE016F5F7F4FC8010E941506882356
:100DA00009F4B9CFF801EF59FF4F0190F081E02D20
:100DB000C801099591E0811101C090E0E92ED801A8
:100DC0001F968C9190E00E946F02D601ED91FC91EC
:100DD000C8010995A3CF1F93CF93DF93EC01162F82
:100DE000FC01E75AFF4F0190F081E02D09958F85B6
:100DF00090E00E946F02FE01E35AFF4F0190F081E4
:100E0000E02DCE0109958F8590E00E946F02612F41
:100E1000CE01DF91CF911F910C944206FF920F9368
:100E20001F93CF93DF93CDB7DEB72A970FB6F89411
:100E3000DEBF0FBECDBF8C01F62EFC01408951896B
:100E400070E060E021E030E0CE0101960E9488056C
:100E5000F801E35AFF4F0190F081E02DC801099598
:100E6000F801878590E00E946F02F801E55AFF4F74
:100E70000190F081E02DC8010995F801878590E087
:100E80000E946F02BE016F5F7F4FC8010E9415066E
:100E9000882311F1F801878590E00E946F02F80124
:100EA000E75AFF4F0190F081E02DC8010995F80144
:100EB000878590E00E946F026F2DC8010E94420654
:100EC0002A960FB6F894DEBF0FBECDBFDF91CF914B
:100ED0001F910F91FF90089582E090E0F1CFEF9283
:100EE000FF921F93CF93DF93EC016DA9660FFC0176
:100EF000E85AFF4F8081882379F0CE010E940E07C7
:100F00008130910521F1029759F484E0DF91CF916E
:100F10001F91FF90EF900895CE010E94EB06F0CF55
:100F200010E07E0187E5E80EF11CF70180811817BB
:100F300080F4FE01E10FF11D66A9CE010E94420678
:100F40008130910541F0029701F31F5FEECF82E0FF
:100F5000DDCF80E0DBCF83E0D9CFDF92EF92FF924D
:100F60000F931F93CF93DF9300D0CDB7DEB78C01E3
:100F7000606869834A83DC011A96ED91FC911B97A6
:100F800089E285ABE95AFF4F10821A968D919C91A8
:100F9000DC01ED91FC910280F381E02D42E050E014
:100FA000BE016F5F7F4F0995F801E284F384C701AA
:100FB0000E946F07D82E61E0C7010E94AA05D801E0
:100FC0001996DC920F900F90DF91CF911F910F91A6
:100FD000FF90EF90DF900895CF93DF93EC0141E015
:100FE00060E00E94AD0763E070E080E090E00E9466
:100FF000250443E060E0CE010E94AD0764E070E0AC
:1010000080E090E0DF91CF910C9425042F923F92E5
:101010004F925F926F927F928F929F92AF92BF9208
:10102000CF92DF92EF92FF920F931F93CF93DF93B4
:10103000CDB7DEB72C970FB6F894DEBF0FBECDBF8D
:101040008C01262EDC01D3961C92D397D4961C9249
:10105000FC01E85AFF4F808163E5882309F489C0C9
:10106000C8010E940E07892B09F063C07801D12CBA
:10107000C12C5801BDE5AB0EB11C3801EBE56E0E7D
:10108000711C4801F3E68F0E911CC8018F599F4FC8
:101090009C878B87280199E5490E511CD801D2966F
:1010A0008C91D297C81608F044C0F701128A509666
:1010B0004D915C9170E060E021E030E0CE0101965E
:1010C0000E94880588E0382ED70152968C9152975D
:1010D000880F52968C93D501ED91FC91C80109952A
:1010E000D301ED91FC91C8010995F801878590E045
:1010F0000E946F02BE016F5F7F4FC8010E941506FC
:101100008823B9F0D8011F968C9190E00E946F025D
:10111000D401ED91FC91C801099581112EC0CE0139
:1011200001960E946105882399F361E0C8010E943D
:10113000AA0561E0C8010E94AA05D801D4968C9145
:101140002C960FB6F894DEBF0FBECDBFDF91CF91C6
:101150001F910F91FF90EF90DF90CF90BF90AF90D5
:101160009F908F907F906F905F904F903F902F90C7
:101170000895C8010E94EB0676CFAB85BC85ED9142
:10118000FC91C8010995882321F0F70182898160CB
:10119000828B3A94311098CFD501ED91FC91C80122
:1011A0000995B1E090E080E02B1611F081E090E02D
:1011B000D201C816D90609F4D301ED91FC91C801FA
:1011C0000995F801878590E00E946F02BE016F5F6C
:1011D0007F4FC8010E941506882309F4AACFD801C1
:1011E0001F968C9190E00E946F02D401ED91FC91CA
:1011F000C8010995811107C0CE0101960E946105C1
:10120000882399F392CFF801878590E00E946F02BE
:10121000D501ED91FC91C8010995F80184A98F5F72
:1012200084ABFFEFCF1ADF0A8FEFE81AF80AC21477
:1012300008F434CF7ECFFF920F931F93CF93DF93A9
:10124000EC01EA85FB8589E285ABE95AFF4F108204
:101250008A859B856068DC01ED91FC910190F081AD
:10126000E02D09950A851B85C8010E946F07F82E9D
:1012700061E0C8010E94AA05F98662E08A859B8523
:101280000E9406088A859B85DC01ED91FC91028411
:10129000F385E02D0995182F8A859B85DC01ED915A
:1012A000FC910284F385E02D099520E0382FC901D7
:1012B000812BDF91CF911F910F91FF900895AF92F5
:1012C000BF92CF92DF92EF92FF920F931F93CF9333
:1012D000DF93EC015B016A01790164E10E941B0963
:1012E000F8019183808366E1CE010E941B09F5011C
:1012F0009183808368E1CE010E941B09F6019183EE
:1013000080836AE1CE010E941B09F70191838083EB
:10131000DF91CF911F910F91FF90EF90DF90CF90D1
:10132000BF90AF900895FF920F931F93CF93DF93D9
:10133000EC01EA85FB8589E285ABE95AFF4F108213
:101340008A859B856068DC01ED91FC910190F081BC
:10135000E02D09950A851B85C8010E946F07F82EAC
:1013600061E0C8010E94AA05F98661E08A859B8533
:101370000E9406088A859B85DC01ED91FC91028420
:10138000F385E02D0995DF91CF911F910F91FF908B
:101390000895CF93DF93EC0160E00E949309482FFA
:1013A0004C7F60E0CE01DF91CF910C94AD076F923E
:1013B0007F928F929F92AF92BF92CF92DF92EF92E5
:1013C000FF920F931F93CF93DF93CDB7DEB7609754
:1013D0000FB6F894DEBF0FBECDBF7C013B014A01C2
:1013E000590168010E94EC078E01095F1F4F9E01A1
:1013F0002B5F3F4FAE014D5F5F4FBE016F5F7F4F71
:10140000C7010E945F09C7010E94C90941E060E06D
:10141000C7010E94AD0763E070E080E090E00E94A9
:10142000250443E060E0C7010E94AD07F701808911
:101430000E94500260E0F70180890E94A20364E0EC
:1014400070E080E090E00E942504085F1F4F9E013D
:10145000235F3F4FAE01455F5F4FBE01675F7F4F28
:10146000C7010E945F09C7010E94C90989819A8149
:1014700029853A85821B930B8130FAEF9F0708F08C
:101480003FC0F301918380838B819C812B853C85B8
:10149000821B930B8130FAEF9F07B0F5F401918323
:1014A00080838D819E812D853E85821B930B8130AB
:1014B000FAEF9F0768F5F501918380838F81988506
:1014C0002F853889821B930B8130FAEF9F0720F517
:1014D000F6019183808360960FB6F894DEBF0FBE4D
:1014E000CDBFDF91CF911F910F91FF90EF90DF90D3
:1014F000CF90BF90AF909F908F907F906F90089506
:10150000F30111821082C0CFF40111821082C9CF81
:10151000F50111821082D2CFF60111821082DBCF49
:10152000CF92DF92EF92FF920F931F93CF93DF93AF
:10153000CDB7DEB728970FB6F894DEBF0FBECDBF8C
:101540006C017B018E010F5F1F4F9E012D5F3F4F8E
:10155000AE014B5F5F4FBE01695F7F4F0E94D709AD
:10156000809100039091010381309A4F20F01092F6
:101570000103109200038091FE029091FF028130DE
:101580009A4F20F01092FF021092FE028091FC020E
:101590009091FD0281309A4F20F01092FD0210923E
:1015A000FC02F7018081918181309A4F18F0F70198
:1015B000118210822F813885AFEFB0E00E94D514E0
:1015C000F6012081318150E040E00E94B314309355
:1015D0000103209300032D813E81AFEFB0E00E9414
:1015E000D514F6012281338150E040E00E94B3140B
:1015F0003093FF022093FE022B813C81AFEFB0E0DD
:101600000E94D514F6012481358150E040E00E940B
:10161000B3143093FD022093FC0229813A81AFEF8D
:10162000B0E00E94D514F6012681378150E040E0F9
:101630000E94B314F70131832083809100039091BD
:1016400001038F3F910539F030F08FEF90E09093D8
:101650000103809300038091FE029091FF028F3F6F
:10166000910539F030F08FEF90E09093FF02809376
:10167000FE028091FC029091FD028F3F910539F0AE
:1016800030F08FEF90E09093FD028093FC02F70121
:10169000808191818F3F910529F020F08FEF90E0BC
:1016A0009183808328960FB6F894DEBF0FBECDBF1E
:1016B000DF91CF911F910F91FF90EF90DF90CF902E
:1016C000089590E080E00895FC0101900020E9F782
:1016D0003197AF01481B590BBC0182E093E00C9499
:1016E0007A02CF93DF930E946703EC018AE291E0D4
:1016F0000E94640B8C0F9D1FDF91CF910895809104
:10170000FA030E94500260E08091FA030E94A20353
:101710008BEE90E00197F1F7F8948091FA038B300B
:1017200009F46AC068F48A3009F43AC08DE192E0A5
:101730000E94710B78948BEE90E00197F1F7089579
:101740008C3009F485C08D3089F7E091F703F09172
:10175000F8038091F90390E0019760F3008005D0D1
:10176000018003D0028001D017C008D007D006D076
:1017700005D004D003D002D001D008952D9A001CCA
:101780000000000008F02D9800000000000000009C
:10179000000008F42D9808950380F481E02DDCCF3B
:1017A000E091F703F091F8038091F90390E001973D
:1017B00008F4C0CF008005D0018003D0028001D0A2
:1017C00017C008D007D006D005D004D003D002D06F
:1017D00001D008952A9A001C0000000008F02A9801
:1017E0000000000000000000000008F42A9808959E
:1017F0000380F481E02DDBCFE091F703F091F80353
:101800008091F90390E0019708F494CF008005D00F
:10181000018003D0028001D017C008D007D006D0C5
:1018200005D004D003D002D001D008952B9A001C1B
:101830000000000008F02B980000000000000000ED
:10184000000008F42B9808950380F481E02DDBCF8D
:10185000E091F703F091F8038091F90390E001978C
:1018600008F468CF008005D0018003D0028001D049
:1018700017C008D007D006D005D004D003D002D0BE
:1018800001D008952C9A001C0000000008F02C984C
:101890000000000000000000000008F42C980895EB
:1018A0000380F481E02DDBCF8F929F92AF92BF92A5
:1018B0000F931F93CF93DF93CDB7DEB7A1970FB6EA
:1018C000F894DEBF0FBECDBF19A2423008F44AE043
:1018D0008E010F5D1F4F842E912CB12CA12CA501E0
:1018E00094010E94B314E62FB901CA01EA30F4F45E
:1018F000E05DD801EE938D01232B242B252B79F766
:1019000090E080E0109719F0CD010E94640BA19641
:101910000FB6F894DEBF0FBECDBFDF91CF911F9100
:101920000F91BF90AF909F908F900895E95CE1CFA9
:10193000BC0190E080E04AE00C94540CCF93DF931C
:10194000D0E0C0E0009719F00E94640BEC018AE23D
:1019500091E00E94640B8C0F9D1FDF91CF91089541
:10196000009711F00C94640B90E080E008951F93B1
:10197000CF93DF9385ED8093BC00809178029091A6
:101980007902A0917A02B0917B020796A11DB11D48
:1019900023E0B695A795979587952A95D1F720913D
:1019A000BC0024FD03C01092C00252C040917802D6
:1019B0005091790260917A0270917B02452B462BFF
:1019C000472B69F30097A105B10541F02AE22A955A
:1019D000F1F700C00197A109B109E1CF8091770229
:1019E000C1E0C0937602882399F1D091B80010919C
:1019F000BA008091BC008A7B8093BC0060E082E1E9
:101A00000E94A20360E083E10E94A2031092C00240
:101A1000C093C2021092C10261E082E10E94A2035F
:101A200061E083E10E94A2038091B9008E7F8093E0
:101A3000B9008091B9008D7F8093B90088E48093CC
:101A4000B80085E48093BC001093BA00D093B8002E
:101A5000DF91CF911F910895BF92CF92DF92EF92C5
:101A6000FF920F931F93CF93DF93CDB7DEB72997E4
:101A70000FB6F894DEBF0FBECDBF7C01FC0184859C
:101A8000811114C088E291E00E94710B29960FB673
:101A9000F894DEBF0FBECDBFDF91CF911F910F91A4
:101AA000FF90EF90DF90CF90BF9008958E01095F77
:101AB0001F4F9E012B5F3F4FAE014D5F5F4FBE0139
:101AC0006F5F7F4FC7010E94D70919860650110921
:101AD0009E01275F3F4FF80191918985892789876A
:101AE000E217F307C9F7F70122892150330B49E0C8
:101AF000429F6001439FD00C11247601F4E6EF0E63
:101B0000F11C8DE6C80ED11CF801B1908F01C70100
:101B10000E949D14B81621F06B2DC7010E94A514D8
:101B2000FFEFEF1AFF0ACE14DF0471F78EE591E0A4
:101B3000ABCFAF92BF92CF92DF92EF92FF920F9313
:101B40001F93CF93DF93EC0185E690E00E94F114A0
:101B5000FC01898998891382128248EE53E060E083
:101B600070E044835583668377832CE131E03183D1
:101B700020839487858782E08687878780E282AB8F
:101B800013AA14AA98E095ABDF01AA5ABF4F8C9311
:101B900011961C9211961C92119684E791E0119671
:101BA0009C938E9312968CE991E011969C938E9360
:101BB000129689EC91E011969C938E93129681EF88
:101BC00091E011969C938E9312968EE192E011967D
:101BD0009C938E93129687E392E08D939C93FB8760
:101BE000EA870AE010E0118B008B61E0CF010E94D0
:101BF000AA05EA85FB85118B008B62E1CE010E946C
:101C000093098E010D5E1F4F8D34E1F08434D1F0C5
:101C10008031C1F063E070E080E090E00E94250434
:101C200062E1CE010E9493098D3461F0843451F059
:101C3000803141F082E091E00E946703C8010E9478
:101C40009E0CFFCF81E08C87FF844F2D61E0CE0199
:101C50000E94AD07FF86FD84EE844F2D6FE0CE011C
:101C60000E94AD07FD86EE86CE010E94EC0789ED4D
:101C700090E00E946703C8010E949E0C2A892150AF
:101C8000330B49E0429F7001439FF00C1124870100
:101C90000C591F4F6E018DE6E80EF11C5E01C80164
:101CA0000E949D14F50181935F010F5F1F4FE016A5
:101CB000F106A9F79E01285F3F4F80E0F601919160
:101CC0006F018927E217F307C9F79885891310C0B8
:101CD00087EB90E00E94710B81E0DF91CF911F9123
:101CE0000F91FF90EF90DF90CF90BF90AF9008954D
:101CF00082E790E0EFCF1F920F920FB60F92112460
:101D00002F933F934F935F936F937F938F939F9303
:101D1000AF93BF93EF93FF9382E093E00E94F802AA
:101D2000FF91EF91BF91AF919F918F917F916F91B3
:101D30005F914F913F912F910F900FBE0F901F9089
:101D400018951F920F920FB60F9211242F938F9315
:101D50009F93EF93FF93E0911203F091130380811F
:101D6000E0911803F091190382FD1BC090818091CE
:101D70001B038F5F8F7320911C03821741F0E0914A
:101D80001B03F0E0EE5FFC4F958F80931B03FF91E8
:101D9000EF919F918F912F910F900FBE0F901F90F9
:101DA00018958081F4CF1F920F920FB60F921124D5
:101DB0002F933F938F939F93AF93BF938091E902AB
:101DC0009091EA02A091EB02B091EC023091E8020E
:101DD00023E0230F2D3758F50196A11DB11D209347
:101DE000E8028093E9029093EA02A093EB02B09399
:101DF000EC028091ED029091EE02A091EF02B09181
:101E0000F0020196A11DB11D8093ED029093EE02A8
:101E1000A093EF02B093F002BF91AF919F918F9189
:101E20003F912F910F900FBE0F901F90189526E8AD
:101E3000230F0296A11DB11DD2CF1F920F920FB694
:101E40000F9211240F900FBE0F901F9018951F92A4
:101E50000F920FB60F9211242F933F934F935F93DE
:101E60006F937F938F939F93AF93BF93EF93FF9362
:101E70008091B900887F803609F44AC0F0F5883235
:101E800009F4A5C018F5803109F499C0B8F4882385
:101E900009F4F5C0883009F492C0FF91EF91BF9129
:101EA000AF919F918F917F916F915F914F913F91F2
:101EB0002F910F900FBE0F901F901895883109F445
:101EC00086C0803251F78093BF0214C0803409F479
:101ED0009BC040F48033B9F38833F9F68093BF0296
:101EE00085ECAEC0803509F483C0883509F494C010
:101EF000883499F60E94B70CD0CF883909F48AC08B
:101F000038F5883729F050F4883611F0803729F6F3
:101F100083E08093C0021092BE0255C0883809F455
:101F200079C0803919F0803809F0B7CF8091BE02AE
:101F3000803208F06FC0E091BE0281E08E0F809386
:101F4000BE028091BB00F0E0E256FD4F80833BC0B3
:101F5000803B39F0D0F4803A09F477C0883A09F030
:101F60009CCF84E08093C00210929D0210929C024C
:101F7000F0E0E0E0099580919C0281110FC081E0C2
:101F800080939C0210927C0209C0803C09F4A8CF87
:101F9000883C09F4A5CF883B09F07FCFE0919D02F2
:101FA00081E08E0F80939D02F0E0E458FD4F808128
:101FB0008093BB0090919D0280919C0229C08091EA
:101FC000E5028093BB0085EC8093BC0066CF9091C6
:101FD000E4028091E302981758F5E091E40281E071
:101FE0008E0F8093E402F0E0ED53FD4F8081E9CF46
:101FF000E091E40281E08E0F8093E4028091BB00C7
:10200000F0E0ED53FD4F80839091E4028091E30274
:102010009817C8F285E8D8CFE091E40281E08E0FEE
:102020008093E4028091BB00F0E0ED53FD4F80838C
:102030008091C20281115ECF81E08093C10284EA67
:102040008093BC001092C00228CF85EC8093BC0026
:102050001092C0028091BE02803230F4E091BE0244
:10206000F0E0E256FD4F10826091BE0270E08EE912
:1020700092E0F0E0E0E009951092BE020ECF1092DF
:10208000BF0238CF1F920F920FB60F9211242F93D9
:102090003F934F935F936F937F938F939F93AF93F0
:1020A000BF93CF93DF93EF93FF9380917402C0911E
:1020B000AB03D0E087FF36C01092850010928400F9
:1020C000809174028F5F8093740280917402082E55
:1020D000000C990B8C179D072CF4809174028430AE
:1020E0000CF449C0809184009091850080E49DE0CB
:1020F00090938900809388008FEF80937402FF9102
:10210000EF91DF91CF91BF91AF919F918F917F918F
:102110006F915F914F913F912F910F900FBE0F9054
:102120001F90189580917402082E000C990B8C1743
:102130009D0734F6E09174028E2FEE0F990BFC018F
:10214000EE0FFF1FE80FF91FE156FC4F808186FF5D
:10215000B7CFE09174028E2FEE0F990BFC01EE0FBA
:10216000FF1FE80FF91FE156FC4F808160E08F737D
:102170000E94A203A5CF2091840030918500E091B8
:1021800074028E2FEE0F990BFC01EE0FFF1FE80F6C
:10219000F91FE156FC4F81819281820F931F90932A
:1021A000890080938800E09174028E2FEE0F990BC6
:1021B000FC01EE0FFF1FE80FF91FE156FC4F808175
:1021C00086FF9DCFE09174028E2FEE0F990BFC01DC
:1021D000EE0FFF1FE80FF91FE156FC4F808161E011
:1021E0008F730E94A2038BCF1F93CF93DF93109224
:1021F00005031092040388EE93E0A0E0B0E0809322
:10220000060390930703A0930803B09309038AE0A1
:1022100091E0909303038093020385EC90E0909308
:102220000F0380930E0384EC90E09093110380934E
:10223000100380EC90E0909313038093120381ECE1
:1022400090E0909315038093140382EC90E09093B8
:1022500017038093160386EC90E090931903809304
:10226000180310921B0310921C0310921D0310926E
:102270001E031092F8031092F7031092F9031092C4
:10228000FA031092FB031092F5031092F6038CE010
:1022900090E00E94F114FC01AC01445F5F4F6FEFCE
:1022A000C8EBDBE02091AB03243008F0B7C031E08D
:1022B000320F3093AB03208330E0D901AA0FBB1F4C
:1022C000A20FB31FA156BC4F1296DC93CE93119769
:1022D00033964E175F0731F79093F4038093F3031F
:1022E0001092F2031092E5031FEF1093E803C2E08F
:1022F000D0E0D093E703C093E6038EE08093E90338
:102300008FE08093EA036DE271E08CEE93E00E942F
:10231000161681E08093EB031092CC031093CF0349
:10232000D093CE03C093CD0380E18093D00381E1AD
:102330008093D10363E371E083ED93E00E9416166E
:1023400012E01093D20389E28093AF031092B70397
:102350001092B6031092B80385E690E00E94F11443
:10236000EC011B821A8288EE93E0A0E0B0E08C833F
:102370009D83AE83BF838CE191E09983888398E04D
:102380009C8789E08D871E871F8780E28AAB1BAA06
:102390001CAA9DABFE01EA5AFF4F80833196108242
:1023A00031961082319684E791E091838083329652
:1023B0008CE991E091838083329689EC91E091835E
:1023C0008083329681EF91E09183808332968EE113
:1023D00092E091838083329687E392E091838083B9
:1023E000D093AE03C093AD0369E371E080EB93E05B
:1023F0000E94161688E290E0998B888B61E0CE01EE
:102400000E94AA05E091AD03F091AE0384E690E04E
:10241000918B808BDF91CF911F910895608358CF6E
:10242000789484B5826084BD84B5816084BD85B5AF
:10243000826085BD85B5816085BD80916E008160BB
:1024400080936E0010928100809181008260809361
:102450008100809181008160809381008091800063
:102460008160809380008091B10084608093B1008E
:102470008091B00081608093B00080917A00846088
:1024800080937A0080917A00826080937A008091B4
:102490007A00816080937A0080917A0080688093CE
:1024A0007A001092C100E0911203F091130382E0D0
:1024B0008083E0910E03F0910F031082E0911003EE
:1024C000F091110380E1808310921A03E0911603CA
:1024D000F091170386E08083E0911403F0911503D7
:1024E000808180618083E0911403F09115038081E5
:1024F00088608083E0911403F091150380818068E7
:102500008083E0911403F091150380818F7D808397
:1025100086E00E94500287E00E94500285E00E94FF
:10252000500284E00E9450028FE391E00E949E0CD2
:1025300085E591E00E94B00C85E10E94EE0327E161
:1025400033E1DC010E94E41428EE33E040E050E087
:102550000E94B31469017A014AE0C701B6010E94E2
:10256000540C89E691E00E949E0C21EDC21627E0F2
:10257000D206E104F10408F074C08DE691E00E94F7
:102580009E0C85E10E94EE0327E133E1DC010E940D
:10259000E4146834774E8641910538F46DE770E0B5
:1025A00080E090E00E942504ECCF89EB91E00E944E
:1025B0009E0C89ED93E00E94990D80EC93E00E94BF
:1025C000990DC1E0C093F5038BE00E94500261E0D9
:1025D0008BE00E94A203C093F20380E991E00E9485
:1025E000710BC093F9038AE08093FA0385E090E0D1
:1025F0000E94F114FC011082118212829093F80360
:102600008093F70394838383C093FB038EED91E063
:102610000E94670384E192E00E94B00C88ED91E093
:102620000E9467036091F90370E090E080E04AE067
:102630000E94540C82ED91E00E94710B8091FB038B
:102640008823B1F19091F903E091F703F091F80339
:1026500080E0981759F11182108212828F5F3596AF
:10266000F8CF81EDC81A87E0D80AE108F1082BE419
:10267000C21624E0D206E104F10408F09ACF8CEDF2
:1026800091E00E949E0C8BEE91E00E949E0CFFCF89
:1026900064E670E080E090E00E94630411C064E6AC
:1026A00070E080E090E00E94630418C00E947F0BFD
:1026B0008091F2038111ECCF8EEF91E00E94710BBB
:1026C00064E670E080E090E00E9425048091F203CF
:1026D0008111E5CF8EEF91E00E94710B84E10E94A1
:1026E000EE038436910580F487E192E00E949E0C0F
:1026F00080E392E00E949E0C89ED93E00E942C0DF5
:1027000080EC93E00E942C0DC0E0D0E06AEF72E014
:1027100089ED93E00E94900A87E492E00E94B00C59
:1027200080910003909101030E94980C84E592E04F
:102730000E94B00C8091FE029091FF020E94980CC2
:1027400088E592E00E94B00C8091FC029091FD021D
:102750000E94980C8CE592E00E94B00C8091FA02E5
:102760009091FB020E94980C8AE291E00E94640B17
:1027700068EF72E080EC93E00E94900A80E692E0BD
:102780000E94B00C80910003909101030E94980C6C
:1027900084E592E00E94B00C8091FE029091FF02CD
:1027A0000E94980C88E592E00E94B00C8091FC0297
:1027B0009091FD020E94980C8CE592E00E94B00C72
:1027C0008091F8029091F9020E94980C8AE291E0BF
:1027D0000E94640B8091FB03882341F18091F903EF
:1027E000882311F18091FC029091FD022091FE025C
:1027F0003091FF02E091F703F091F803409100035C
:102800005091010365E0569547956A95E1F741833C
:1028100075E0369527957A95E1F72083A5E09695A2
:102820008795AA95E1F782830E947F0B6091F7025A
:10283000FF24F394F60EF092F7020E9457040091E1
:10284000F3021091F4022091F5023091F602601B20
:10285000710B820B930B683E734081059105B8F0B4
:102860000E9457046093F3027093F4028093F50280
:102870009093F6026F2D70E090E080E04AE00E94B5
:10288000540C8AE291E00E94640B1092F70280914E
:10289000F8029091F9022091FA023091FB02821B1A
:1028A000930B9093F2028093F1028DE692E00E94E6
:1028B000B00CC090F102D090F2020D2C000CEE088A
:1028C000FF084AE0C701B601F7FE0DC06DE282E0E5
:1028D00093E00E941A0366277727CB016C197D09C4
:1028E0008E099F094AE00E94540C8AE291E00E94FE
:1028F000640B209709F40ACF0E94E402882309F4AC
:1029000005CF0E94000002CF8091F203882321F0BE
:1029100061E08BE00E94A2038091F3039091F403A5
:10292000009711F00E948D158091F7039091F803A4
:10293000009711F00C948D150895F999FECF92BD72
:1029400081BDF89A992780B50895262FF999FECF71
:102950001FBA92BD81BD20BD0FB6F894FA9AF99ABC
:102960000FBE01960895A1E21A2EAA1BBB1BFD0102
:102970000DC0AA1FBB1FEE1FFF1FA217B307E4075E
:10298000F50720F0A21BB30BE40BF50B661F771FB6
:10299000881F991F1A9469F7609570958095909596
:1029A0009B01AC01BD01CF010895A29FB001B39F6F
:1029B000C001A39F700D811D1124911DB29F700D48
:1029C000811D1124911D08950E94D514B7FF08950B
:1029D000821B930B0895EE0FFF1F0590F491E02DDD
:1029E00009940F931F93CF93DF938230910510F4D6
:1029F00082E090E0E091FE03F091FF0330E020E000
:102A0000B0E0A0E0309799F42115310509F44AC0EF
:102A1000281B390B24303105D8F58A819B8161153B
:102A2000710589F1FB0193838283FE0111C040810E
:102A300051810281138148175907E0F0481759075F
:102A400099F4109761F012960C93129713961C93B9
:102A50003296CF01DF91CF911F910F91089500938E
:102A6000FE031093FF03F4CF2115310551F04217F7
:102A7000530738F0A901DB019A01BD01DF01F8011C
:102A8000C1CFEF01F9CF9093FF038093FE03CDCF29
:102A9000FE01E20FF31F8193919322503109398394
:102AA0002883D7CF2091FC033091FD03232B41F4E1
:102AB00020910201309103013093FD032093FC0328
:102AC00020910001309101012115310541F42DB70C
:102AD0003EB74091040150910501241B350BE09154
:102AE000FC03F091FD03E217F307A0F42E1B3F0B4C
:102AF0002817390778F0AC014E5F5F4F2417350770
:102B000048F04E0F5F1F5093FD034093FC038193E9
:102B100091939FCFF0E0E0E09CCFCF93DF930097BD
:102B2000E9F0FC01329713821282A091FE03B0916A
:102B3000FF03ED0130E020E01097A1F42081318106
:102B4000820F931F2091FC033091FD032817390752
:102B500009F061C0F093FD03E093FC03DF91CF9196
:102B60000895EA01CE17DF07E8F54A815B819E01EF
:102B700041155105B1F7E901FB83EA834991599168
:102B8000C40FD51FEC17FD0761F480819181029677
:102B9000840F951FE90199838883828193819B83A8
:102BA0008A83F0E0E0E012968D919C911397009754
:102BB000B9F52D913C911197CD010296820F931F8B
:102BC0002091FC033091FD032817390739F630971F
:102BD00051F51092FF031092FE03B093FD03A093F2
:102BE000FC03BCCFD383C28340815181840F951FE6
:102BF000C817D90761F44E5F5F4F88819981480FEC
:102C0000591F518340838A819B819383828321153D
:102C1000310509F0B0CFF093FF03E093FE039ECFA0
:102C2000FD01DC01C0CF13821282D7CFFB01DC0192
:102C300001900D920020E1F7089511E0C9E4D1E080
:102C400004C0FE010E94EB142196CA34D107C9F7D3
:042C5000F894FFCF26
:102C5400000000048000000000001A037A02A702AA
:102C64008203D802B602CA02000000003A05120527
:102C7400610B60055A05FB04EA040D0A004932435E
:102C84002D31004932432D32004932432D3300485F
:102C9400656C6C6F2C20427269636B2053696D7094
:102CA4006C6573210054656E73616F2064612062EA
:102CB4006174657269613A2000206D560042726940
:102CC400636B206C696761646F206170656E61730A
:102CD400206E61205553422C207061726120656C16
:102CE400652066756E63696F6E61722C206C69670E
:102CF40075652061206368617665206C6967612F62
:102D04006465736C6967612E00427269636B206C41
:102D1400696761646F2C20636F6D65C3A7616E641E
:102D24006F206F2063C3B36469676F004261746589
:102D34007269612066726163612100436F6C6F7117
:102D44007565206F20627269636B20706172612007
:102D54006361727265676172206520616775617273
:102D640064652E00533400426F74616F2061706596
:102D7400727461646F206E6F20696E6963696F009D
:102D840063616C696272616E646F2073656E736FE8
:102D94007265732E2E2E0053656E736F7231202D63
:102DA40020523A0020473A0020423A0020433A0099
:102DB40053656E736F7232202D20523A0045727241
:042DC4006F3A200042
:00000001FF
