:100000000C9463000C948B000C948B000C948B006C
:100010000C948B000C948B000C948B000C948B0034
:100020000C948B000C948B000C948B000C94BD0AE8
:100030000C948B000C948B000C948B000C948B0014
:100040000C9458090C948B000C9426090C9400090C
:100050000C948B000C948B000C948B000C948B00F4
:100060000C94A2090C948B000000000024002700CF
:100070002A0000000000250028002B0000000000DE
:1000800023002600290004040404040404040202DA
:100090000202020203030303030301020408102007
:1000A0004080010204081020010204081020000012
:1000B0000008000201000003040700000000000027
:1000C0000000BB0C331511241FBECFEFD8E0DEBFFC
:1000D000CDBF12E0A0E0B1E0ECE0FEE202C005908E
:1000E0000D92AE3AB107D9F723E0AEEAB2E001C013
:1000F0001D92A83FB207E1F710E0C2E6D0E004C0CD
:100100002197FE010E94CE15C136D107C9F70E9482
:10011000A70D0C94F9160C940000AF92BF92CF92E9
:10012000DF92EF92FF920F931F93CF93DF936C01B7
:100130007B018B01040F151FEB015E01AE18BF0898
:10014000C017D10759F06991D601ED91FC9101904A
:10015000F081E02DC6010995892B79F7C501DF9162
:10016000CF911F910F91FF90EF90DF90CF90BF90B4
:10017000AF900895FC01538D448D252F30E0842FDE
:1001800090E0821B930B541710F0CF9608950197BF
:100190000895FC01918D828D981761F0A28DAE0FAC
:1001A000BF2FB11D5D968C91928D9F5F9F73928F33
:1001B00090E008958FEF9FEF0895FC01918D828D5F
:1001C000981731F0828DE80FF11D858D90E008952C
:1001D0008FEF9FEF0895FC01918D228D892F90E084
:1001E000805C9F4F821B91098F739927089581E34B
:1001F00093E00E94EB0021E0892B09F420E0822F9C
:10020000089580E090E0892B29F00E94F700811189
:100210000C9400000895FC01A48DA80FB92FB11D06
:10022000A35ABF4F2C91848D90E001968F7399272C
:10023000848FA689B7892C93A089B1898C9183700A
:1002400080648C93938D848D981306C00288F38903
:10025000E02D80818F7D80830895EF92FF920F9330
:100260001F93CF93DF93EC0181E0888F9B8D8C8D62
:1002700098131AC0E889F989808185FF15C09FB756
:10028000F894EE89FF896083E889F9898081837019
:10029000806480839FBF81E090E0DF91CF911F91C8
:1002A0000F91FF90EF900895F62E0B8D10E00F5FE9
:1002B0001F4F0F731127E02E8C8D8E110CC00FB6BF
:1002C00007FCFACFE889F989808185FFF5CFCE0157
:1002D0000E940B01F1CFEB8DEC0FFD2FF11DE35AC6
:1002E000FF4FF0829FB7F8940B8FEA89FB898081DA
:1002F0008062CFCFCF93DF93EC01888D8823B9F054
:10030000AA89BB89E889F9898C9185FD03C0808120
:1003100086FD0DC00FB607FCF7CF8C9185FFF2CF9D
:10032000808185FFEDCFCE010E940B01E9CFDF91E7
:10033000CF910895833081F028F4813099F0823094
:10034000A9F008958730A9F08830C9F08430B1F45D
:10035000809180008F7D03C0809180008F77809393
:100360008000089584B58F7784BD089584B58F7D0E
:10037000FBCF8091B0008F778093B000089580917B
:10038000B0008F7DF9CFCF93DF93282F30E0F901B4
:10039000E255FF4F8491F901E656FF4FD491F901E0
:1003A000EA57FF4FC491CC23A1F081110E949A011A
:1003B000EC2FF0E0EE0FFF1FE458FF4FA591B49132
:1003C000EC91ED2381E090E009F480E0DF91CF91A2
:1003D000089580E090E0FACFFC0184850E94C3017B
:1003E0000895FC0185850E94C30108951F93CF9352
:1003F000DF93282F30E0F901E255FF4F8491F90196
:10040000E656FF4FD491F901EA57FF4FC491CC2330
:10041000A9F0162F81110E949A01EC2FF0E0EE0F47
:10042000FF1FEE58FF4FA591B4918FB7F894EC9150
:10043000111108C0D095DE23DC938FBFDF91CF91DF
:100440001F910895DE2BF8CFCF93DF9390E0FC014E
:10045000E656FF4F24918A579F4FFC0184918823D1
:10046000C9F090E0880F991FFC01E859FF4FA59152
:10047000B491FC01EE58FF4FC591D49161110DC0AC
:100480009FB7F8948C91209582238C9388812823A0
:1004900028839FBFDF91CF910895623051F49FB7B9
:1004A000F8943C91822F809583238C93E8812E2BA6
:1004B000EFCF8FB7F894EC912E2B2C938FBFEACF10
:1004C000CF93DF93FC01C485DFB7F89460E08C2FF5
:1004D0000E94F60161E08C2F0E942402DFBFDF91B1
:1004E000CF910895FC01668584850C942402CF93F6
:1004F000DF93FC01C585DFB7F89460E08C2F0E9484
:10050000F60161E08C2F0E942402DFBFDF91CF91C2
:100510000895FC01668585850C942402823091053E
:1005200038F0880F991F880F991F05970197F1F7E9
:1005300008953FB7F8948091250390912603A091E8
:100540002703B091280326B5A89B05C02F3F19F0BB
:100550000196A11DB11D3FBFBA2FA92F982F882743
:10056000BC01CD01620F711D811D911D42E0660F1E
:10057000771F881F991F4A95D1F708958F929F92F0
:10058000AF92BF92CF92DF92EF92FF924B015C014C
:100590000E9499026B017C010E9499026C197D09ED
:1005A0008E099F09683E734081059105A8F321E0FB
:1005B000821A9108A108B10888EEC80E83E0D81EFF
:1005C000E11CF11C81149104A104B10429F7FF90EE
:1005D000EF90DF90CF90BF90AF909F908F90089555
:1005E0002FB7F89460912103709122038091230327
:1005F000909124032FBF08952091D602260F332710
:10060000331F21323105ECF42091FA02FC0190E015
:1006100080E0243069F082E00895A091D602219113
:10062000AC014A545D4FA40FB52FB11D2C93019618
:10063000861798F38091D602680F6093D60280E007
:10064000089581E0089508958FEF9FEF08958FEF4B
:100650009FEF08958091AF0290E091958195910967
:100660000895CF93DF93CB01EA01642F0E94FC022F
:10067000CE01DF91CF910895CF93DF931F92CDB735
:10068000DEB7698361E0CE0101960E94FC0281E041
:1006900090E00F90DF91CF910895DC01D396EC911B
:1006A000D397D4962C91E21730F4E80FF92FF11D6F
:1006B000828990E008958FEF9FEF0895DC01D39633
:1006C000EC91D397D4968C91D497E81758F481E0A5
:1006D0008E0FD3968C93D397EA0FFB2FF11D82894F
:1006E00090E008958FEF9FEF0895CF92DF92EF9201
:1006F000FF920F931F93CF93DF936C01EB017B016C
:10070000E40EF51E10E000E0CE15DF0561F0699102
:10071000D601ED91FC910190F081E02DC601099583
:10072000080F191FF1CFC801DF91CF911F910F91D1
:10073000FF90EF90DF90CF900895CF93DF93DC018F
:10074000A95ABF4FEC91EC01CA5ADF4F2881E2173A
:1007500050F021E030E0FC013383228390E080E020
:10076000DF91CF91089521E02E0F2C93E80FF92F00
:10077000F11D66AB81E090E0F3CFFC0184A993A961
:10078000891B990B089508950F931F93CF93DF93BF
:10079000EC0188859985892BD9F40E9499020C81F6
:1007A0001D812E813F81DC01CB01801B910BA20BAF
:1007B000B30B80959095A095B0958827B7FD83954C
:1007C0009927AA27BB27DF91CF911F910F910895F9
:1007D0000E94F002E4CF0F931F93CF93DF93EC01BD
:1007E000488359836A837B8381E090E09987888777
:1007F0000E94F002088119812A813B81DC01CB0132
:10080000800F911FA21FB31F8C839D83AE83BF8374
:10081000DF91CF911F910F910895FF920F931F9336
:10082000CF93DF93CDB7DEB72A970FB6F894DEBF2C
:100830000FBECDBF8C01F62EFC014089518970E0BE
:1008400060E021E030E0CE0101960E94EB03F80168
:10085000E85AFF4F108235960190F081E02DC801D3
:100860000995F801878590E00E948E02F801E75A09
:10087000FF4F0190F081E02DC8010995F8018785AF
:1008800090E00E948E02FF20B1F0BE016F5F7F4FAB
:10089000C8010E947804811116C082E090E02A9677
:1008A0000FB6F894DEBF0FBECDBFDF91CF911F9181
:1008B0000F91FF900895F801E15AFF4F0190F081E8
:1008C000E02DC8010995F801878590E00E948E020D
:1008D000F801E55AFF4F0190F081E02DC80109951C
:1008E000F801878590E00E948E0290E080E0D7CFEB
:1008F000EF92FF920F931F93CF93DF93EC018B0145
:10090000FC01E15AFF4F0190F081E02D09957E0135
:1009100083E6E80EF11CD701ED91FC91CE0109951B
:10092000811111C0C8010E94C4038823A1F360E0B3
:10093000CE010E940D0480E0DF91CF911F910F91B5
:10094000FF90EF90089581E0F7CF8F929F92AF9242
:10095000BF92CF92DF92EF92FF920F931F93CF93AC
:10096000DF93CDB7DEB72A970FB6F894DEBF0FBE80
:10097000CDBF8C01E62EDC0150964D915C9170E06C
:1009800060E021E030E0CE0101960E94EB0398E0A8
:10099000F92E6801BDE5CB0ED11C5801E9E5AE0E7C
:1009A000B11C4801FBE58F0E911CD601ED91FC9125
:1009B000C8010995D401E7FED501ED91FC91C8016C
:1009C0000995F801878590E00E948E02BE016F5F55
:1009D0007F4FC8010E947804811117C082E0E82E81
:1009E000F12CC7012A960FB6F894DEBF0FBECDBF1B
:1009F000DF91CF911F910F91FF90EF90DF90CF90FB
:100A0000BF90AF909F908F900895D8011F968C91C2
:100A100090E00E948E02EE0CCE0101960E94C4036B
:100A2000882329F061E0C8010E940D04D7CFFA9411
:100A3000F110BBCFD601ED91FC91C8010995F801E9
:100A4000E55AFF4F0190F081E02DC8010995F801AA
:100A5000878590E00E948E02BE016F5F7F4FC801C4
:100A60000E947804882309F4B9CFF801EF59FF4FA9
:100A70000190F081E02DC801099591E0811101C03C
:100A800090E0E92ED8011F968C9190E00E948E0292
:100A9000D601ED91FC91C8010995A3CF1F93CF9387
:100AA000DF93EC01162FFC01E75AFF4F0190F08114
:100AB000E02D09958F8590E00E948E02FE01E35A99
:100AC000FF4F0190F081E02DCE0109958F8590E0D8
:100AD0000E948E02612FCE01DF91CF911F910C9465
:100AE000A504FF920F931F93CF93DF93CDB7DEB78B
:100AF0002A970FB6F894DEBF0FBECDBF8C01F62E3D
:100B0000FC014089518970E060E021E030E0CE01D5
:100B100001960E94EB03F801E35AFF4F0190F08128
:100B2000E02DC8010995F801878590E00E948E02AA
:100B3000F801E55AFF4F0190F081E02DC8010995B9
:100B4000F801878590E00E948E02BE016F5F7F4FA3
:100B5000C8010E947804882311F1F801878590E08C
:100B60000E948E02F801E75AFF4F0190F081E02DBC
:100B7000C8010995F801878590E00E948E026F2DCB
:100B8000C8010E94A5042A960FB6F894DEBF0FBED6
:100B9000CDBFDF91CF911F910F91FF90089582E01B
:100BA00090E0F1CF2F923F924F925F926F927F929F
:100BB0008F929F92AF92BF92CF92DF92EF92FF926D
:100BC0000F931F93CF93DF93CDB7DEB72D970FB65B
:100BD000F894DEBF0FBECDBF8C014B87DC01D396EE
:100BE0001C92D397D4961C92660F6F5FFC01E85A53
:100BF000FF4F8081882309F48CC0C8010E947105D1
:100C0000892B09F066C07801512C6801BDE5CB0E37
:100C1000D11C3801EBE56E0E711C5801F3E6AF0EE6
:100C2000B11C180181E6280E311CAB85A150BB0B0D
:100C30004D01F801E75AFF4FFD87EC87D801D296A6
:100C40008C91D297581608F044C0F701128A50963A
:100C50004D915C9170E060E021E030E0CE010196C2
:100C60000E94EB0388E0482ED70152968C91529750
:100C7000880F52968C93D601ED91FC91C80109958D
:100C8000D301ED91FC91C8010995F801878590E0A9
:100C90000E948E02BE016F5F7F4FC8010E947804E0
:100CA0008823B9F0D8011F968C9190E00E948E02A3
:100CB000D501ED91FC91C801099581112EC0CE019D
:100CC00001960E94C403882399F361E0C8010E9441
:100CD0000D0461E0C8010E940D04D801D4968C91E6
:100CE0002D960FB6F894DEBF0FBECDBFDF91CF912A
:100CF0001F910F91FF90EF90DF90CF90BF90AF903A
:100D00009F908F907F906F905F904F903F902F902B
:100D10000895C8010E944E0573CFD101ED91FC9159
:100D2000C8010995882321F0F70182898160828BAF
:100D30004A94411099CFD601ED91FC91C8010995D3
:100D4000C701801B910BAC85BD858816990609F4F7
:100D5000D301ED91FC91C8010995F801878590E0D8
:100D60000E948E02BE016F5F7F4FC8010E9478040F
:100D7000882309F4AECFD8011F968C9190E00E9491
:100D80008E02D501ED91FC91C8010995811107C032
:100D9000CE0101960E94C403882399F396CFF801EF
:100DA000878590E00E948E02D601ED91FC91C801EA
:100DB0000995F80184A98F5F84AB5394FFEFEF1A74
:100DC000FF0A8B8585113ACF84CFEF92FF921F9354
:100DD000CF93DF93EC016DA9660FFC01E85AFF4F3A
:100DE00080818823A9F0CE010E94710512E0813034
:100DF000910519F0029781F414E061E0CE010E94A0
:100E00000D04812FDF91CF911F91FF90EF900895F6
:100E1000CE010E944E05EACF10E07E0187E5E80E84
:100E2000F11CF7018081181770F4FE01E10FF11D2C
:100E300066A9CE010E94A5048130910531F0029788
:100E4000D9F21F5FEECF10E0D8CF13E0D6CF0F93CB
:100E50001F93CF93DF9300D0CDB7DEB7806889832F
:100E60006A8309EE13E0D80111968D919C9129E2D5
:100E7000FC0125ABE95AFF4F1082DC01ED91FC919A
:100E80000280F381E02D42E050E0BE016F5F7F4FB2
:100E90000995F801818192810E94E506D8018C9321
:100EA0000F900F90DF91CF911F910F9108951F9395
:100EB000CF93DF93162FCBEDD3E0A981BA819B812D
:100EC000D5969C93D597FD01E95AFF4F1082ED917D
:100ED000FC9111970190F081E02D682FCD010995CB
:100EE00089819A81DC01ED91FC910190F081E02DE6
:100EF000612F099589819A810E94E5068883DF9197
:100F0000CF911F9108950F931F93CF93DF93162FC7
:100F1000072FCBEDD3E0A981BA819B81D5969C9315
:100F2000D597FD01E95AFF4F1082ED91FC91119781
:100F30000190F081E02D682FCD01099589819A817A
:100F4000DC01ED91FC910190F081E02D602F09957D
:100F500089819A81DC01ED91FC910190F081E02D75
:100F6000612F099589819A810E94E5068883DF9126
:100F7000CF911F910F910895CF93DF93CBEDD3E0E5
:100F8000A981BA819B81D5969C93D597FD01E95A99
:100F9000FF4F1082ED91FC9111970190F081E02DAF
:100FA000682FCD01099589819A810E94E506888381
:100FB00041E06B8189819A810E94D20589819A8161
:100FC000DC01ED91FC910284F385E02D0995DF9120
:100FD000CF9108950F931F93CF93DF93CBEDD3E081
:100FE000A981BA819B81D5969C93D597FD01E95A39
:100FF000FF4F1082ED91FC9111970190F081E02D4F
:10100000682FCD01099589819A810E94E506888320
:1010100042E06B8189819A810E94D20589819A81FF
:10102000DC01ED91FC910284F385E02D099500E04F
:10103000182F89819A81DC01ED91FC910284F3855E
:10104000E02D0995802B912BDF91CF911F910F916E
:10105000089590E080E00895FC0101900020E9F7F8
:101060003197AF01481B590BBC0181E393E00C940D
:101070008D008F929F92AF92BF920F931F93CF9349
:10108000DF93CDB7DEB7A1970FB6F894DEBF0FBEE2
:10109000CDBF19A2423008F44AE08E010F5D1F4F08
:1010A000842E912CB12CA12CA50194010E946E15C7
:1010B000E62FB901CA01EA30F4F4E05DD801EE93FD
:1010C0008D01232B242B252B79F790E080E01097BE
:1010D00019F0CD010E942C08A1960FB6F894DEBF3E
:1010E0000FBECDBFDF91CF911F910F91BF90AF90F9
:1010F0009F908F900895E95CE1CFCF93DF930E949A
:101100002C08EC018AE291E00E942C088C0F9D1FB4
:10111000DF91CF9108951F93CF93DF9385ED809357
:10112000BC008091B2029091B302A091B402B09140
:10113000B5020796A11DB11D23E0B695A795979519
:1011400087952A95D1F72091BC0024FD03C0109209
:10115000FA0252C04091B2025091B3026091B402BF
:101160007091B502452B462B472B69F30097A105DB
:10117000B10541F02AE22A95F1F700C00197A109D3
:10118000B109E1CF8091B102C1E0C093B0028823E0
:1011900099F1D091B8001091BA008091BC008A7B7F
:1011A0008093BC0060E082E10E94F60160E083E190
:1011B0000E94F6011092FA02C093FC021092FB0208
:1011C00061E082E10E94F60161E083E10E94F601A4
:1011D0008091B9008E7F8093B9008091B9008D7F96
:1011E0008093B90088E48093B80085E48093BC00C4
:1011F0001093BA00D093B800DF91CF911F9108955A
:101200001F920F920FB60F9211242F933F934F937B
:101210005F936F937F938F939F93AF93BF93EF935E
:10122000FF9381E393E00E940B01FF91EF91BF9147
:10123000AF919F918F917F916F915F914F913F916E
:101240002F910F900FBE0F901F9018951F920F9225
:101250000FB60F9211242F938F939F93EF93FF93C9
:10126000E0914103F09142038081E0914703F091C6
:10127000480382FD1BC0908180914A038F5F8F736A
:1012800020914B03821741F0E0914A03F0E0EF5CBC
:10129000FC4F958F80934A03FF91EF919F918F911F
:1012A0002F910F900FBE0F901F9018958081F4CF53
:1012B0001F920F920FB60F9211242F933F938F938B
:1012C0009F93AF93BF938091210390912203A091AC
:1012D0002303B09124033091200323E0230F2D3703
:1012E00058F50196A11DB11D209320038093210381
:1012F00090932203A0932303B093240380912503AA
:1013000090912603A0912703B09128030196A11D77
:10131000B11D8093250390932603A0932703B093D8
:101320002803BF91AF919F918F913F912F910F9083
:101330000FBE0F901F90189526E8230F0296A11D4F
:10134000B11DD2CF1F920F920FB60F9211242F937F
:101350003F934F935F936F937F938F939F93AF933D
:10136000BF93EF93FF938091B900887F803609F493
:101370004AC0F0F5883209F4A5C018F5803109F4A7
:1013800099C0B8F4882309F4F5C0883009F492C0F4
:10139000FF91EF91BF91AF919F918F917F916F914D
:1013A0005F914F913F912F910F900FBE0F901F9023
:1013B0001895883109F486C0803251F78093F9027C
:1013C00014C0803409F49BC040F48033B9F38833EF
:1013D000F9F68093F90285ECAEC0803509F483C03C
:1013E000883509F494C0883499F60E948B08D0CFD0
:1013F000883909F48AC038F5883729F050F48836DE
:1014000011F0803729F683E08093FA021092F802F7
:1014100055C0883809F479C0803919F0803809F04E
:10142000B7CF8091F802803208F06FC0E091F802E7
:1014300081E08E0F8093F8028091BB00F0E0E852CB
:10144000FD4F80833BC0803B39F0D0F4803A09F4F3
:1014500077C0883A09F09CCF84E08093FA0210921A
:10146000D7021092D602F0E0E0E009958091D60212
:1014700081110FC081E08093D6021092B60209C09C
:10148000803C09F4A8CF883C09F4A5CF883B09F03B
:101490007FCFE091D70281E08E0F8093D702F0E0FA
:1014A000EA54FD4F80818093BB009091D7028091D8
:1014B000D60229C080911F038093BB0085EC8093E6
:1014C000BC0066CF90911E0380911D03981758F5BC
:1014D000E0911E0381E08E0F80931E03F0E0E35045
:1014E000FD4F8081E9CFE0911E0381E08E0F809354
:1014F0001E038091BB00F0E0E350FD4F808390918C
:101500001E0380911D039817C8F285E8D8CFE0919B
:101510001E0381E08E0F80931E038091BB00F0E0DC
:10152000E350FD4F80838091FC0281115ECF81E00A
:101530008093FB0284EA8093BC001092FA0228CFC9
:1015400085EC8093BC001092FA028091F802803200
:1015500030F4E091F802F0E0E852FD4F1082609123
:10156000F80270E088ED92E0F0E0E0E0099510927A
:10157000F8020ECF1092F90238CF1F920F920FB6D9
:101580000F9211242F933F934F935F936F937F9309
:101590008F939F93AF93BF93CF93DF93EF93FF937B
:1015A0008091AE02C091DA03D0E087FF36C010927E
:1015B0008500109284008091AE028F5F8093AE020E
:1015C0008091AE02082E000C990B8C179D072CF40D
:1015D0008091AE0284300CF449C0809184009091D7
:1015E000850080E49DE090938900809388008FEFD0
:1015F0008093AE02FF91EF91DF91CF91BF91AF91B8
:101600009F918F917F916F915F914F913F912F911A
:101610000F900FBE0F901F9018958091AE02082E6C
:10162000000C990B8C179D0734F6E091AE028E2FBB
:10163000EE0F990BFC01EE0FFF1FE80FF91FE253AD
:10164000FC4F808186FFB7CFE091AE028E2FEE0F68
:10165000990BFC01EE0FFF1FE80FF91FE253FC4F3F
:10166000808160E08F730E94F601A5CF20918400F5
:1016700030918500E091AE028E2FEE0F990BFC01A8
:10168000EE0FFF1FE80FF91FE253FC4F818192819B
:10169000820F931F9093890080938800E091AE029F
:1016A0008E2FEE0F990BFC01EE0FFF1FE80FF91FB5
:1016B000E253FC4F808186FF9DCFE091AE028E2FDA
:1016C000EE0F990BFC01EE0FFF1FE80FF91FE2531D
:1016D000FC4F808161E08F730E94F6018BCF1F93D6
:1016E000CF93DF93C9EED3E0A981BA8199E2D59671
:1016F0009C93D597FD01E95AFF4F1082682F6068CF
:10170000ED91FC9111970190F081E02DCD010995AB
:1017100089819A810E94E506888342E069E2898195
:101720009A810E94D20589819A81DC01ED91FC9118
:101730000284F385E02D0995182F89819A81DC01B7
:10174000ED91FC910284F385E02D099520E0382F7E
:10175000C901812BDF91CF911F910895CF93DF9322
:10176000EC0181E00E94BC0784FB992790F99883E3
:1017700083FB992790F99A8382FB992790F99983A3
:1017800086FB992790F99B83881F8827881F8C8365
:10179000DF91CF910895682F616080E00E94570724
:1017A0000E94F0027093E3036093E20383E10E94DE
:1017B000BC078770B9F48091DF039091E003892B17
:1017C000A9F30E94F0022091E2033091E303621B2F
:1017D000730B8091DF039091E0038617970730F732
:1017E00080E0089561E08BE00E94570760E080E0B0
:1017F0000E94570781E008958F929F92AF92BF9207
:10180000EF92FF920F931F93CF93DF937C01EB0135
:1018100080E50E94BC078F5F880F90E099838883E2
:1018200086E40E94BC07082F10E00F5F1F4F1D8346
:101830000C83A881B0E020E03FE24AE350E00E9440
:101840005B156C507E4F8F4F9F4F38EE832E33E0E9
:10185000932EA12CB12CA50194010E946E15D801E4
:101860000E9466156C507E4F8F4F9F4FA5019401CB
:101870000E946E152A873B874C875D8781E50E9411
:10188000EA078C01112702C0000F111F9A95E2F799
:101890000F5F1F4F1F830E83A881B0E020E03FE25F
:1018A0004AE350E00E945B156C507E4F8F4F9F4F74
:1018B000A50194010E946E15D8010E945B156C5021
:1018C0007E4F8F4F9F4FA50194010E946E152E876A
:1018D0003F87488B598B80E70E94BC078F5F880F3A
:1018E00090E09B838A8381E70E94EA079C01992705
:1018F00002C0880F991F3A95E2F701969987888769
:10190000F7012381222331F02E813F81821B930B2B
:1019100099878887AA81B0E020E03FE24AE350E05F
:101920000E945B156C507E4F8F4F9F4F28EE822E8A
:1019300023E0922EA12CB12CA50194010E946E15DA
:10194000A885B9850E945B156C507E4F8F4F9F4FC5
:10195000A50194010E946E152A8B3B8B4C8B5D8BED
:10196000DF91CF911F910F91FF90EF90BF90AF90BB
:101970009F908F900895CF93DF931092340310922D
:10198000330388EE93E0A0E0B0E0809335039093BA
:101990003603A0933703B09338038AE091E0909325
:1019A00032038093310385EC90E090933E03809363
:1019B0003D0384EC90E09093400380933F0380ECE0
:1019C00090E0909342038093410381EC90E09093E8
:1019D00044038093430382EC90E09093460380930A
:1019E000450386EC90E09093480380934703109260
:1019F0004A0310924B0310924C0310924D038CE05B
:101A000090E00E94D415FC01AC01445F5F4F6FEF82
:101A1000C8EBDBE02091DA03243008F096C031E017
:101A2000320F3093DA03208330E0D901AA0FBB1FB5
:101A3000A20FB31FA253BC4F1296DC93CE93119703
:101A40003396E417F50731F79093F3038093F2038D
:101A50001092EC0386EF8093EF0381E090E0909387
:101A6000EE038093ED0380E18093F00381E18093A6
:101A7000F10389E28093DE031092E0031092DF030A
:101A80001092E10385E690E00E94D415FC011382D8
:101A9000128288EE93E0A0E0B0E084839583A68371
:101AA000B7838CE191E0918380838EE084878FE01F
:101AB000858782E086878AE0878780E282AB13AAE7
:101AC00014AA98E095ABDF01AA5ABF4F8C931196E8
:101AD0001C9211961C92119680E692E011969C93AE
:101AE0008E93129682E792E011969C938E931296B3
:101AF00087E792E011969C938E93129689E892E084
:101B000011969C938E9312968CEE91E011969C9375
:101B10008E93129681EF91E08D939C93F093DD0369
:101B2000E093DC0388E290E0918B808B61E0CF0151
:101B30000E940D04E091DC03F091DD0384E690E067
:101B4000918B808BDF91CF910895608379CFCF9374
:101B5000DF93CDB7DEB7A1970FB6F894DEBF0FBE07
:101B6000CDBF789484B5826084BD84B5816084BD26
:101B700085B5826085BD85B5816085BD80916E002B
:101B8000816080936E00109281008091810082605C
:101B90008093810080918100816080938100809199
:101BA00080008160809380008091B1008460809388
:101BB000B1008091B00081608093B00080917A0084
:101BC000846080937A0080917A00826080937A00AA
:101BD00080917A00816080937A0080917A00806899
:101BE00080937A001092C100E0914103F09142038A
:101BF00082E08083E0913D03F0913E031082E0910A
:101C00003F03F091400383E3808310924903E09106
:101C10004503F091460386E08083E0914303F09111
:101C20004403808180618083E0914303F091440309
:101C3000808188608083E0914303F0914403808138
:101C400080688083E0914303F091440380818F7D1D
:101C5000808361E086E00E94240261E087E00E94C8
:101C6000240261E085E00E94240261E084E00E9499
:101C700024028DE291E00E947D0883E491E00E94BD
:101C80002C0887E480937C0080917A0080648093A4
:101C90007A0080917A0086FDFCCFA0917800B09107
:101CA000790027E133E10E94B31528EE33E040E0EC
:101CB00050E00E946E1569017A014AE0C701B60141
:101CC0000E94390887E591E00E947D082CE1C21648
:101CD0002CE0D206E104F10448F48BE591E00E9487
:101CE0007D088AE691E00E947D08FFCF0091F20313
:101CF0001091F303D8018C91843008F052C061E058
:101D00008DE00E942402F8018081282F30E0F90143
:101D1000EE0FFF1FE20FF31FE253FC4F9081907C08
:101D20009D609083D80111961C92119712961C9277
:101D300086958695B4E08B9FB001112430E020E0B9
:101D4000AB01420F531FFA01EE0FFF1FE40FF51F07
:101D5000E253FC4F908196FD16C02F5F3F4F243019
:101D6000310571F781110FC01092800082E08093DD
:101D700081001092850010928400B19A80916F00CA
:101D8000826080936F00D801EC918E2F90E0FC016F
:101D9000EE0FFF1FE80FF91FE253FC4F80818064B4
:101DA000808385E690E00E94D415FC018091F103C8
:101DB0009091F0031382128248EE53E060E070E0ED
:101DC00044835583668377832CE131E0318320831C
:101DD0009487858782E086878AE0878780E282AB66
:101DE00013AA14AA98E095ABDF01AA5ABF4F8C93AF
:101DF00011961C9211961C92119680E692E0119613
:101E00009C938E93129682E792E011969C938E9308
:101E1000129687E792E011969C938E93129689E82A
:101E200092E011969C938E9312968CEE91E011960F
:101E30009C938E93129681EF91E08D939C93F093F7
:101E4000EB03E093EA030AE010E0118B008B61E002
:101E5000CF010E940D04A091EA03B091EB035196CB
:101E60001C930E93509789E2D5968C93D597FD01DC
:101E7000E95AFF4F1082ED91FC9111970190F0818A
:101E8000E02D62E9CD0109958091EA039091EB0381
:101E90000E94E5068093E90341E069E28091EA034C
:101EA0009091EB030E94D2058091EA039091EB039D
:101EB000DC01ED91FC910284F385E02D09958D34D0
:101EC00049F0843439F0803129F083E991E00E94AF
:101ED0007D08FFCF81E08093EC031091EF03612F29
:101EE0000E9427071093EF031091ED030091EE037A
:101EF000612F8FE00E9427071093ED030093EE03FC
:101F000061E080E00E94270763E070E080E090E0FD
:101F10000E94BE0263E080E00E9427078091EF03E9
:101F200020E031E0281B31094CE0429FC001439F73
:101F3000900D112465E070E00E949F156F5F7F4F48
:101F4000072E000C880B990B0E94BE028EEB91E0CD
:101F50000E947D0810E31093DE0380E00E94BC071E
:101F60008091DB03882381F089E28093DE0380E0A7
:101F70000E94BC078091DB03811106C060E38AE800
:101F80000E9457071093DE0380EC0E94BC078E3E30
:101F900029F08CEE91E00E947D08FFCF89E80E9435
:101FA000BC07682F616089E80E94570760E088E8F5
:101FB0000E94570761E080E80E94570761E08FEFB9
:101FC0000E94570760E080E00E94570781E90E9465
:101FD000BC078093E40361E080E00E94570760E063
:101FE0008FEF0E94570760E080E80E94570780E665
:101FF0000E94BC07682F626180E60E94570760E27A
:1020000070E084E40E9483076FEF81E00E9457072D
:1020100061E080E80E94570761E08FEF0E94570758
:1020200060E080E00E94570766E08FEF0E9457074C
:1020300083E80E94BC07682F646083E80E9457070A
:1020400067E08FEF0E94570761E081E80E94570721
:1020500061E080E80E9457076BE684E90E94570719
:1020600060E083E80E9457070E94F0027093E30348
:102070006093E20383E80E94BC0781111AC080913B
:10208000DF039091E003892BA9F30E94F0022091D5
:10209000E2033091E303621B730B8091DF039091A5
:1020A000E0038617970730F78EE792E00E947D08DD
:1020B000FFCF61E083E80E94570782E90E94BC07D6
:1020C000F82EE894F7F8D82EDD1CDD24DD1C60E046
:1020D00081E80E94570766E08FEF0E94570783E868
:1020E0000E94BC07682F6B7F83E80E94570761E05E
:1020F0008FEF0E94570761E080E00E94570760E081
:102100008FEF0E94570760E080E80E945707A09178
:10211000DC03B091DD038091DE03D5968C93D597D7
:10212000FD01E95AFF4F1082ED91FC91119701904A
:10213000F081E02D60EBCD0109958091DC03909159
:10214000DD030E94E5068093DB0346E06091DE0339
:102150008091DC039091DD030E94D2058E01095E1F
:102160001F4F580167E0E62EEA94EE2079F0809147
:10217000DC039091DD03DC01ED91FC910284F38599
:10218000E02D0995F50181935F01EECF61E08FEFBE
:102190000E94570760E08FE40E9457076CE28EE4CC
:1021A0000E94570760E08FEF0E94570764EB86EBB1
:1021B0000E9457075CE0E52ED11001C0E12C90E0B1
:1021C00080E0E1E0F0E0482F46954695469550E0E6
:1021D0009801240F351FD9012C91682F67708E1537
:1021E00010F09F1137C0400F511FDF0102C0AA0F2E
:1021F000BB1F6A95E2F7BD0160952623DA012C9397
:102200008F5F803301F78091DC039091DD03209193
:10221000DE03FC0125ABE95AFF4F1082DC01ED9192
:10222000FC910190F081E02D60EB099547E0F42EE0
:102230008091DC039091DD03FA94FF20A9F0F8016E
:1022400061918F01DC01ED91FC910190F081E02D15
:102250000995EECF30E002C0359527956A95E2F7F3
:1022600020FFCECF9F5FCCCF0E94E5068093DB039B
:1022700061E08FEF0E94570760E080E00E945707FF
:1022800060E08FEF0E94570760E089E00E945707E7
:1022900060E080E10E94570760E081E10E945707FB
:1022A00061E084E20E9457076FEF85E20E945707C2
:1022B00060E085E70E94570761E08FEF0E945707B3
:1022C0006CE28EE40E94570760E088E40E945707A2
:1022D00060E280E30E94570760E08FEF0E9457079B
:1022E00069E080E30E94570760E084E50E94570799
:1022F00064E081E30E94570763E082E30E9457078E
:1023000063E880E40E94570765E286E40E9457076D
:1023100060E080E60E94570760E087E20E9457076E
:1023200066E080E50E94570760E081E50E9457075C
:1023300066E982E50E94570768E086E50E94570734
:1023400060E387E50E94570760E081E60E94570737
:1023500060E082E60E94570760E084E60E9457072B
:1023600060E085E60E94570760EA86E60E9457070C
:1023700061E08FEF0E94570762E382E20E945707F5
:1023800064E187E40E9457076FEF89E40E945707D2
:1023900060E08AE40E94570760E08FEF0E945707D1
:1023A0006AE08AE70E94570760E08BE70E945707C0
:1023B00061E288E70E94570761E08FEF0E945707AC
:1023C00064E383E20E94570760E082E40E945707BB
:1023D0006FEF84E40E94570766E285E40E94570786
:1023E00065E086E40E94570760E480E40E94570796
:1023F00066E08EE00E9457076AE180E20E9457077C
:1024000060E483E40E94570760E08FEF0E94570763
:1024100063E084E30E94570764E485E30E94570762
:1024200061E08FEF0E94570764E081E30E94570745
:1024300069E08BE40E94570765E08CE40E9457072F
:1024400064E08DE40E94570760E08FEF0E94570719
:1024500060E084E40E94570760E285E40E94570729
:1024600068E087E40E94570768E288E40E94570703
:1024700060E087E60E94570764E080E70E94570704
:1024800061E081E70E9457076EEF82E70E945707DD
:1024900060E086E70E94570760E087E70E945707E1
:1024A00061E08FEF0E94570761E08DE00E945707BF
:1024B00060E08FEF0E94570761E080E80E945707B5
:1024C00068EF81E00E94570761E08FEF0E94570795
:1024D00061E08EE80E94570761E080E00E945707A4
:1024E00060E08FEF0E94570760E080E80E94570786
:1024F00064E08AE00E94570784E80E94BC07682FC6
:102500006F7E84E80E94570761E08BE00E945707C6
:10251000CE014D960E94AE0BBE016F5F7F4FCE0184
:102520004D960E94FC0B8D8D882309F4F3C08B859A
:102530009C85AD85BE858C57924FAF4FBF4F2F8D79
:10254000222309F4ECC04B855C856D857E854E5455
:102550005D4F6F4F7F4F440F551F661F771F840FCE
:10256000951FA61FB71F28A1222361F04F85588908
:1025700069897A894C565D4F6F4F7F4F840F951F45
:10258000A61FB71F29A1222361F04B895C896D89A1
:102590007E894A5D5D4F6F4F7F4F840F951FA61F49
:1025A000B71F8093E5039093E603A093E703B093EE
:1025B000E80368EE81E00E945707C090E503D090E1
:1025C000E603E090E703F090E803CE014D960E9409
:1025D000AE0BBE016F5F7F4FCE014D960E94FC0B8C
:1025E0008D8D882309F4A8C08B859C85AD85BE851B
:1025F0008C57924FAF4FBF4F2F8D222309F4A1C0AC
:102600004B855C856D857E854E545D4F6F4F7F4F4A
:10261000440F551F661F771F840F951FA61FB71FF6
:1026200018A1112361F04F85588969897A894C5620
:102630005D4F6F4F7F4F840F951FA61FB71F29A1B6
:10264000222309F49AC02C013D01E6E24E0EE2E09D
:102650005E1E611C711CC414D504E604F70408F462
:102660008CC0AB81B0E020E03FE24AE350E00E9442
:102670005B154B015C01F4EF8F0EF1E09F1EA11C76
:10268000B11CA70196012419350946095709A8EE7E
:10269000B3E00E945B152B013C01C501B40120EDA4
:1026A00037E040E050E00E946E15420E531E641E5B
:1026B000751EC501B40128EE33E040E050E00E94F1
:1026C0006E15C301B2010E946E15112331F08F8186
:1026D0009885280F391F411D511D70E060E02115BC
:1026E000310541055105F1F189019A0101501109A6
:1026F0002109310970E060E0D901C8018827892BE0
:102700008A2B8B2B59F136952795179507956F5F77
:102710007F4FF2CF86E39BE0A0E0B0E010CF2E8D9C
:10272000222309F420CF4B855C856D857E854C5630
:102730005D4F6F4F7F4F13CF86E39BE0A0E0B0E08B
:102740005BCF2E8D222309F46BCF4B855C856D8585
:102750007E854C565D4F6F4F7F4F5ECF762F66273D
:10276000602B712B81E70E948307C092E503D09212
:10277000E603E092E703F092E80361E081E00E9463
:10278000570780E40E94CB0B882309F48DCC62E0CC
:1027900081E00E94570780E00E94CB0B882309F458
:1027A00083CC68EE81E00E94570784E092E00E94AB
:1027B0007D0884E10E946F0B90932A038093290384
:1027C00086E10E946F0B9093300380932F0388E182
:1027D0000E946F0B90932E0380932D038AE10E9439
:1027E0006F0B90932C0380932B0387E392E00E945E
:1027F0002C0860912F037091300390E080E04AE054
:102800000E94390882E792E00E942C0860912D0313
:1028100070912E0390E080E04AE00E94390886E73C
:1028200092E00E942C0860912B0370912C0390E0A1
:1028300080E04AE00E9439088AE792E00E942C0872
:102840006091290370912A0390E080E04AE00E94A1
:1028500039088AE291E00E942C08A8E8CA2ED12CFF
:10286000B4EB4B2E512C612C712C10E0212E10E07A
:10287000312E61E080E80E94570761E08FEF0E94EF
:10288000570760E080E00E9457076091E40381E908
:102890000E94570761E080E00E94570760E08FEFD9
:1028A0000E94570760E080E80E94570761E080E0DF
:1028B0000E9457070E94F0027093E3036093E203C3
:1028C00080E00E94BC0780FFA4C08091DF0390914C
:1028D000E003892BA9F30E94F0022091E2033091DA
:1028E000E303621B730B8091DF039091E003861773
:1028F000970730F781E08093E1030FEF1FEF980116
:10290000E090F203F090F303003242E01407CCF5BC
:10291000D70111968C9111979601281B310987FDDB
:102920003395220F331F220F331F4901330FAA089B
:10293000BB0812968C9128E532E0281B310987FDEF
:102940003395220F331F220F331F032E000C440B2D
:10295000550B281939094A095B09D801053B1105AE
:1029600014F0A4EBB0E0B7FF02C0B0E0A0E00E941A
:102970006615A30192010E943C15280D391D4A1DC0
:102980005B1DD701EC91E43090F511968C91119775
:10299000A601481B510987FD5395CA01880F991F4D
:1029A000880F991F281739078CF012968C91A8E58B
:1029B000B2E0A81BB10987FDB395CD01880F991F1F
:1029C000880F991F281739070CF4C9010297880F3F
:1029D000991F4FB7F8942E2F30E0F901EE0FFF1F2B
:1029E000E20FF31FE253FC4F928381834FBF6AE0F3
:1029F00070E080E090E00E94BE022114310409F4EE
:102A000038CF0E94F700882309F433CF0E940000DA
:102A100030CF0E94F0027093E3036093E20383E1FE
:102A20000E94BC078770B1F48091DF039091E003AE
:102A3000892BA9F30E94F0022091E2033091E30375
:102A4000621B730B8091DF039091E0038617970759
:102A500030F750CF8EE10E94EA078C0161E08BE0F5
:102A60000E9457074CCF8091F2039091F303009797
:102A700011F00C9470160895052E97FB1EF4009427
:102A80000E94531557FD07D00E946E1507FC03D016
:102A90004EF40C94531550954095309521953F4F29
:102AA0004F4F5F4F089590958095709561957F4F3A
:102AB0008F4F9F4F08950E949015A59F900DB49F32
:102AC000900DA49F800D911D11240895B7FF0C94C3
:102AD0005B150E945B15821B930B0895A1E21A2ED1
:102AE000AA1BBB1BFD010DC0AA1FBB1FEE1FFF1FB2
:102AF000A217B307E407F50720F0A21BB30BE40B02
:102B0000F50B661F771F881F991F1A9469F7609548
:102B10007095809590959B01AC01BD01CF01089502
:102B2000A29FB001B39FC001A39F700D811D11240E
:102B3000911DB29F700D811D1124911D089597FB69
:102B4000072E16F4009407D077FD09D00E94BA151D
:102B500007FC05D03EF4909581959F4F08957095A0
:102B600061957F4F08950E949015B7FF0895821BCD
:102B7000930B0895AA1BBB1B51E107C0AA1FBB1FE3
:102B8000A617B70710F0A61BB70B881F991F5A95F9
:102B9000A9F780959095BC01CD010895EE0FFF1F18
:102BA0000590F491E02D09940F931F93CF93DF9339
:102BB0008230910510F482E090E0E091F603F0910C
:102BC000F70330E020E0B0E0A0E0309799F4211561
:102BD000310509F44AC0281B390B24303105D8F5DA
:102BE0008A819B816115710589F1FB019383828341
:102BF000FE0111C04081518102811381481759079C
:102C0000E0F04817590799F4109761F012960C9369
:102C1000129713961C933296CF01DF91CF911F919B
:102C20000F9108950093F6031093F703F4CF211545
:102C3000310551F04217530738F0A901DB019A0121
:102C4000BD01DF01F801C1CFEF01F9CF9093F70388
:102C50008093F603CDCFFE01E20FF31F8193919392
:102C60002250310939832883D7CF2091F403309142
:102C7000F503232B41F4209102013091030130939D
:102C8000F5032093F40320910001309101012115F7
:102C9000310541F42DB73EB7409104015091050133
:102CA000241B350BE091F403F091F503E217F307D1
:102CB000A0F42E1B3F0B2817390778F0AC014E5FAC
:102CC0005F4F2417350748F04E0F5F1F5093F503F1
:102CD0004093F403819391939FCFF0E0E0E09CCF89
:102CE000CF93DF930097E9F0FC01329713821282B1
:102CF000A091F603B091F703ED0130E020E01097CA
:102D0000A1F420813181820F931F2091F40330912F
:102D1000F5032817390709F061C0F093F503E09334
:102D2000F403DF91CF910895EA01CE17DF07E8F5AC
:102D30004A815B819E0141155105B1F7E901FB8391
:102D4000EA8349915991C40FD51FEC17FD0761F42F
:102D5000808191810296840F951FE9019983888370
:102D6000828193819B838A83F0E0E0E012968D91CB
:102D70009C9113970097B9F52D913C911197CD0136
:102D80000296820F931F2091F4033091F5032817C8
:102D9000390739F6309751F51092F7031092F60380
:102DA000B093F503A093F403BCCFD383C2834081D7
:102DB0005181840F951FC817D90761F44E5F5F4F8B
:102DC00088819981480F591F518340838A819B8153
:102DD000938382832115310509F0B0CFF093F70377
:102DE000E093F6039ECFFD01DC01C0CF1382128277
:102DF000D7CF10E0C2E6D0E004C0FE010E94CE159D
:0C2E00002196C336D107C9F7F894FFCF24
:102E0C000000F8038000000000002D018D00BA00C6
:102E1C007A01EB00C900DD00000000009D03750382
:102E2C002908C303BD035E034D030D0A0048656CFE
:102E3C006C6F2C20427269636B2053696D706C65EA
:102E4C0073210054656E73616F206461206261743C
:102E5C00657269613A2000206D560042617465729A
:102E6C0069612066726163612100436F6C6F7175DB
:102E7C0065206F20627269636B20706172612063E0
:102E8C006172726567617220652061677561726439
:102E9C00652E004572726F20616F206465746563E6
:102EAC00746172206F2073656E736F72206465207D
:102EBC00636F7220544353333437323521005365DA
:102ECC006E736F7220646520636F722054435333AA
:102EDC00343732352064657465637461646F2063C4
:102EEC006F6D207375636573736F2100564C3533AA
:102EFC004C3058206EC3A36F20656E636F6E747276
:102F0C0061646F0053656E736F7220646520646931
:102F1C007374616E63696120564C35334C305820A4
:102F2C0064657465637461646F20636F6D20737581
:102F3C00636573736F210053656E736F72206465E4
:102F4C0020636F7220544353333437323520696E0B
:102F5C00696369616C697A61646F2E2056616C6F6C
:102F6C0072657320696E696369616973202D2052E3
:102F7C003A0020473A0020423A0020433A0045727A
:102F8C00726F20616F206465746563746172206F69
:102F9C002073656E736F722064652064697374614D
:0E2FAC006E63696120564C35334C305821005D
:00000001FF
